:020000040800F2
:1000000010A400209D0100080D210008C11F000858
:100010000921000873120008357F00080000000065
:100020000000000000000000000000001D39000872
:10003000491C000800000000F9210008353A0008BA
:10004000B7010008B7010008B7010008B7010008B0
:10005000B7010008B7010008B7010008B7010008A0
:10006000B7010008B7010008B7010008B701000890
:10007000B7010008B7010008B7010008B701000880
:10008000B7010008B7010008B7010008B701000870
:10009000B7010008B7010008B7010008B701000860
:1000A000B7010008B7010008B7010008B701000850
:1000B0005D3C0008653C0008B7010008B701000876
:1000C000B7010008B7010008B7010008B701000830
:1000D000B70100089D3F0008B7010008B7010008FC
:1000E000B7010008B7010008B7010008B701000810
:1000F000B7010008B7010008B7010008B701000800
:10010000B701000889280008B7010008B7010008F6
:10011000B7010008B7010008B7010008B7010008DF
:10012000B7010008B7010008B70100081D19000851
:10013000B7010008B7010008B7010008B7010008BF
:10014000B7010008B7010008B7010008B7010008AF
:10015000B7010008B7010008B701000821410008F5
:10016000B7010008B7010008B7010008B70100088F
:10017000B7010008B1210008B7010008B701000865
:10018000B7010008B7010008DFF80CD000F01AFC36
:100190000048004711A8000810A400200648804726
:1001A00006480047FEE7FEE7FEE7FEE7FEE7FEE75C
:1001B000FEE7FEE7FEE7FEE7B93A0008890100081E
:1001C00040EA01039B0703D009E008C9121F08C0D9
:1001D000042AFAD203E011F8013B00F8013B521E59
:1001E000F9D27047D2B201E000F8012B491EFBD2D0
:1001F00070470022F6E710B513460A460446194632
:10020000FFF7F0FF204610BD421C10F8011B00292B
:10021000FBD1801A704710B5002200E0521C835CAD
:100220008C5CA34201D1002BF8D1D8B2E1B2401AC4
:1002300010BD0246C9B200E0401C0378002BFBD180
:1002400002E003788B4203D0401E9042F9D2002096
:10025000704700000FB400B58DB010A909900B9045
:1002600000914FF0FF300A9000200C900548069056
:10027000054807906A4609A80F9900F037F90DB0B4
:100280005DF814FB09050008270500082DE9FF5F4C
:100290001D464FF0FF3BD5E9014691465F464FF0C2
:1002A0000008A9697F1C01988847296A8246884707
:1002B0000028F6D1BAF1FF3F0CD024F4C064002E20
:1002C00019DD600614D5BAF12B0F09D0BAF12D0F44
:1002D0000ED103E0584604B0BDE8F09F44F48064BA
:1002E000A9697F1C01988847761E8246002E02DD90
:1002F000BAF1300F03D0B9F1000F26D032E0A9696E
:10030000761E44F400747F1C019888478246002EB4
:1003100005DDBAF1780F06D0BAF1580F03D0B9F164
:10032000000F10D01EE0B9F1000F02D0B9F1100F8C
:1003300018D1A969761E24F400747F1C019888479F
:100340008246102002E0082000E00A20814609E0F1
:1003500008FB0908A969761E44F400747F1C019803
:1003600088478246002E05DD4946504600F0AAF82F
:100370000028EDDAE96901988847A00502D46FF0FA
:100380000100A8E7E00725D1600613D5600502D576
:10039000C8F1000000E0404629680A1D2A6009688B
:1003A000220501D5087015E0220701D5088011E06B
:1003B00008600FE02868011D29600068210502D54A
:1003C00080F8008006E0210702D5A0F8008001E057
:1003D000C0F8008038467EE700F0004230F0004070
:1003E0000AD0C10D01F56071C0F3160042EA015157
:1003F000C20840071143704700200146704701F0D2
:10040000004330B421F0004150EA010206D00A0D49
:10041000A2F56072C1F31301002A02DC30BC002097
:100420007047440F44EAC104C100E01830BC00EB3F
:10043000C25000F0D7B830B50B460146002020224C
:10044000012409E021FA02F59D4205D303FA02F5E1
:10045000491B04FA02F52844151EA2F10102F1DC41
:1004600030BD2DE9F05F0546002092469B46884648
:100470000646814640241BE0284641464746224620
:1004800000F0C1FA53465A46C01A914110D31146A2
:100490001846224600F0A8FA2D1A67EB01084F46CD
:1004A00022460120002100F09FFA17EB00094E417F
:1004B000201EA4F10104DFDC484631462A464346AB
:1004C000BDE8F09F3A2800D2303820F02002412ABF
:1004D00001D3A2F13700884201D34FF0FF307047BB
:1004E000026811441378016018467047D1600449CE
:1004F00051610449116200211161114600F0AABA4C
:10050000E10400084B0A0008426842B1016811F892
:10051000013B23B1521EC0E9001218467047012169
:10052000C160881E704742685AB1C368016843B908
:1005300083688B4205D0491E521CC0E9001200207E
:1005400070474FF0FF3070470FB4002300B589B0FB
:100550000CA900910B996FF00042CB601E4B0693E3
:100560001E4B07930423CDE901321D4A089202462F
:100570006B46002000F098FC09B05DF814FB70B5E4
:1005800086B006464FF0FF300091CDE90101002012
:1005900015460C4604903246694604A8FFF7D4FF7E
:1005A00002460498211825B108B1084600E020460B
:1005B0002860049800280DD0002A02DD00988842A7
:1005C00008D0081B0094CDE901043246694604A80E
:1005D000FFF7BAFF06B070BD09050008270500083F
:1005E0004B0A00080029A8BF7047401C490008BFFB
:1005F00020F00100704710B4B0FA80FC00FA0CF053
:1006000050EA010404BF10BC704749B1CCF120048A
:1006100021FA04F411FA0CF118BF01212143084317
:10062000A3EB0C01CB1D4FEA00614FEA102042BF43
:10063000002010BC704700EBC35010440029A4BF39
:1006400010BC7047401C490008BF20F0010010BCDE
:1006500070472DE9FE4F804681EA0300C00F0C462B
:10066000009021F0004123F00045B8EB0200A941C1
:1006700005D24046214690461C460B46024623F0D2
:100680000040104347D0270DC7F30A00C3F30A51B7
:100690000290401A019040286BDAC3F3130040F433
:1006A000801B0098924620B10023D2EB030A63EB33
:1006B0000B0B01985946C0F14002504600F094F9E6
:1006C00006460D4650465946019A00F0ACF910EB2B
:1006D00008006141002487EA115284EAE7731A4353
:1006E00040D0009A62B3019A012A4FEA075215DC02
:1006F000001B61EB02014FF0004202EA0752CDE914
:100700000042001C41F5801132462B4600F0F7FCF8
:1007100003B0BDE8F08F40462146F9E7001B61EBCE
:100720000201001C41F5801300185B412018A2F55E
:10073000001747EB030140EAD570B6196D4111E08F
:100740006D084FEA360645EAC0754FEA0752001BAE
:1007500061EB0201001C41F5801149084FEA3000AD
:100760000019514132462B4603B0BDE8F04F00F06E
:10077000B7BC0098012240000023D0EB020263EBDB
:10078000E073009821464FEAE074B8EB000061EB9B
:100790000401E9E783F000435BE781F0004158E79B
:1007A0002DE9FE4F81EA030404F0004421F00041EA
:1007B00000944FF0000B23F0004350EA01045ED098
:1007C00052EA03045BD0C3F30A54C1F30A552C4424
:1007D000A4F2F3340194A0FB0254C1F3130141F4D9
:1007E0008011C3F3130343F4801301FB024400FBA5
:1007F000034E840A970A44EA815447EA8357A4FBCC
:10080000076802958D0A05FB07854FEA932C04FBC8
:100810000C542705029D4FEA065847EA1637B5EBF8
:1008200008056EEB070C870E920E47EA811742EA25
:100830008312A7FB0201B6EB0B0164EB00042B0D46
:1008400043EA0C335E1844EB1C50DA465146E7FB92
:100850000201C5F313044FEA0B3343EA14534FEA82
:100860000432019C43EA0603A4F10C040294009CA8
:10087000CDE900B400F043FC03B0BDE8F08F0020E8
:100880000146F9E72DE9F04D81EA030404F0004B3D
:1008900021F0004514464FF0000A23F0004150EAD1
:1008A000050220D054EA01021DD0C5F30A570246C2
:1008B000C5F31303C1F31300C1F30A5640F48015C6
:1008C00043F48013A7EB0608101BD64608F2FD3848
:1008D00073EB050002D308F1010801E092185B41B7
:1008E000B8F1000F03DA00200146BDE8F08D0020CA
:1008F0004FF48011064684460EE0171B73EB050784
:1009000005D3121B63EB050306434CEA010C4908AF
:100910004FEA300092185B4150EA0107EDD152EAEC
:10092000030012D082EA040083EA0501084305D0DF
:10093000101BAB4106D20122002306E000224FF03B
:10094000004302E06FF0010253101AEB06004CEB7B
:10095000085110EB0A0041EB0B01BDE8F04D00F02F
:10096000BFBBC1F30A52C1F3130140F2FF3341F49C
:1009700080119A4202DA00200146704740F2334368
:100980009A42A2F2334202DC524200F03CB800F03C
:100990002BB8000030B5041E71F1000404DB4FF0E9
:1009A0000044404264EB0101141E73F1000405DBB6
:1009B0001C464FF00043524263EB0403994208BFC8
:1009C000904230BD064C074D06E0E06840F0010360
:1009D00094E8070098471034AC42F6D3FFF7D8FBF1
:1009E000F05D0308105E0308202A04DB203A00FAB9
:1009F00002F1002070479140C2F1200320FA03F376
:100A0000194390407047202A04DB203A21FA02F073
:100A10000021704721FA02F3D040C2F12002914038
:100A2000084319467047202A06DBCB17203A41FAC3
:100A300002F043EAE07306E041FA02F3D040C2F16B
:100A400020029140084319467047C0B24FF4F0515C
:100A500000F0A4BB2DE9F34F8BB04FF0000801F17B
:100A60000C000C464FF0010B46460DF1080A0190B0
:100A70006269012101989047051E2DD0252D2CD0AB
:100A8000216A8847C0B16269012101989047216AB3
:100A900088470028F7D1411E62690198904700E01D
:100AA000761CA1690B988847216A88470028F7D1EE
:100AB000E1690B988847DBE7A1690B9888470746EF
:100AC000A84201D1761CD3E7E1690B9888477F1CC7
:100AD00002D1B8F1000F6FD046E1002762693D46B0
:100AE0003946019890472A2804D16269012101986A
:100AF00090470125DFF884926269012101989047AF
:100B0000A0F130010A290AD24F45E5DC07EB870145
:100B100000EB4107303FDFD445F01005ECE7E90674
:100B200001D46FF000476C280AD04C2814D06828F4
:100B300015D06A280DD074281CD07A281AD01DE050
:100B400062690121019890476C2802D045F00405A4
:100B500014E045F002050DE045F020050AE0626969
:100B6000012101989047682802D045F0080505E06A
:100B700045F400656269012101989047C4E9015775
:100B800065283DD019DC58287AD00CDC452837D0B0
:100B900004DC252826D0412831D131E046282FD049
:100BA00047282CD12CE05B2877D0612828D06328F7
:100BB0007CD0642823D15AE0D0E06F2848D008DCEC
:100BC00066281DD067281BD0692821D06E2816D131
:100BD00027E0702845D0732868D0752847D078283A
:100BE0000DD14DE0A1690B988847054625283FF4B3
:100BF00069AFE1690B9888476D1C3FF46AAFB3E0B9
:100C000023466A466FF001000B9900F04DF99EE013
:100C100045F040006060A80723464FF0000236D43C
:100C20003EE0E8077FF447AF2068011D21600068BF
:100C3000290501D506701BE7290701D5068017E7AE
:100C4000A90703D5F117C0E9006111E706600FE7B6
:100C500045F040006060A80723464FF0080216D414
:100C60001EE040F60E0125EA0100606016E045F046
:100C700040006060A80723464FF00A0207D40FE047
:100C800045F040006060A80708D5234610226FF0A9
:100C900001000B99AFF3008059E007E023461022D2
:100CA0006FF001000B99FFF7F1FA50E04FF00009E7
:100CB0004F464B46632802D05B2806D040E0E8064A
:100CC00001D40120A06001273AE062690121019866
:100CD00090475E2805D14FF00109626949460198A5
:100CE0009047216939B900210A46534643F821202B
:100CF000491C0829FADBB0B3216969B9C11700EBB7
:100D0000D16253110AEB830122F01F02821A0120E3
:100D10000B68904003430B60626901210198904782
:100D20005D28E8D1B9F1000F09D00020514651F8F3
:100D30002020D24341F82020401C0828F7DB02ABDA
:100D4000224600976FF001000B99AFF30080002856
:100D50000CDA401C08D1BBF1000F05D04FF0FF307A
:100D60000DB0BDE8F08FFFE74046F9E7E90701D194
:100D700008F1010806444FF0000B79E6CCCCCC0C0E
:100D80002DE9FF4F087883B09946FF2805D0491C0C
:100D90002D2804D00024002008E000200BE00124CE
:100DA000F9E700EB800003EB4000491C0B78FF2BB8
:100DB000F7D104B1404200230293147819461D462E
:100DC0002D2C01D02B2C04D1521C2D2C13D00024FF
:100DD0000294AA461478FF2C0FD00A25A3FB0578AD
:100DE00001FB05814FF0000C03FB0C11521CE319B1
:100DF0004AEB0101EEE70124EAE7814453EA0100EE
:100E000002D019F5C87F06DA03980021C0E9001165
:100E100007B0BDE8F08F0025AE4E2F46DFF8B88250
:100E2000184600F0CFF9CDE90001B9F1000002DA6F
:100E3000C9F1000400E004460023A74A1AEB030BA3
:100E400042EB045A12E0E00707D02A463346384600
:100E50004146FFF7A5FC074688462A46334610461A
:100E60001946FFF79DFC05460E466410002CEAD19A
:100E7000DDE90001B9F1000F5A46534606DAFFF7E3
:100E800001FD3A464346FFF7FDFC05E0FFF788FC0D
:100E90003A464346FFF784FC029A0AB181F00041CA
:100EA000039AC2E90001B3E72DE9FF4F1F468DB059
:100EB000D7E901464FF0FF382E2045464FF0000994
:100EC0000B90B9696D1C0E988847396A824688472D
:100ED0000028F6D1BAF1FF3F0AD024F4D064002EE6
:100EE00011DDBAF12B0F08D0BAF12D0F0BD102E0B2
:100EF000404611B08DE744F48064B9696D1C0E98CA
:100F000088478246761E6946600501D52D2000E09F
:100F10002B208DF8000001F1010B0DF1200809E0F4
:100F2000B9696D1C0E98884782460F9844F4007486
:100F3000761E0560002E02DDBAF1300FF0D00B995D
:100F40008A453ED144F0800406E00F99681CA9F15F
:100F5000010944F400740860B9696D1C761E0E988E
:100F6000884782463028F0D02BE00B998A4505D17E
:100F7000200603D444F08004761E18E0504607F0A3
:100F800099F908B30DF11301761E44F400748B45F2
:100F900008D2AAF130000BF8010B200607D5A9F101
:100FA000010003E0200602D409F101008146A005FA
:100FB00002D50F99681C0860B9696D1C0E988847A6
:100FC0008246002ED1DC53E0002E51DDBAF1650FD0
:100FD00002D0BAF1450F4BD1A00549D5B9696D1CB6
:100FE00024F44074761E0E9888478246002E0CDD4D
:100FF0002B2804D0BAF12D0F07D144F48074B969BD
:101000006D1C0E9888478246761EE00501D52D217D
:1010100000E02B2108F8011BCDF82C8021E00DF118
:101020002901761E44F4007488450CD2AAF13000E0
:1010300010F0FF0088F8000002D10B99884509D90B
:1010400008F1010806E0E00501D5244801E042F27C
:101050000F708146B9696D1C0E98884782460F98BB
:101060000560002E04DD504607F024F90028D6D193
:10107000F9690E988847FF208BF8000088F8000077
:101080000020069007904B466A4608A906A8FFF77D
:1010900077FEA00502D46FF001002AE714F0240FB8
:1010A0000AD0E00714D1DDE906123868031D3B6061
:1010B0000068C0E900120BE0DDE90601FFF79FF9C7
:1010C0000146E00704D13868021D3A6000680160FB
:1010D00028460EE7000014400000F03FF1D8FFFF63
:1010E00010B5141E73F1000408DA401C41F1000130
:1010F00092185B411A4301D120F0010010BD2DE987
:10110000F04D92469B4611B1B1FA81F202E0B0FA7D
:1011100080F220329046FFF767FC04460F4640EA13
:101120000A0041EA0B0153465A46084313D01146C0
:1011300053EA010019D0C8F140025046FFF763FCA2
:1011400005460E46504659464246FFF74DFC0843B9
:1011500005D0012004E020463946BDE8F08D00208E
:10116000054346EAE0762C4337430A986305E40AD0
:10117000A0EB08000022FD0A44EA47540A3002D5D9
:1011800000200146E9E7010510196941DDE908453C
:1011900000196941BDE8F04DA2E700007F2801D9A0
:1011A000002208E0064A02EB5002C007127800D184
:1011B000120902F00F020120904008407047000021
:1011C0003B5D03080EB540F2334202920022CDE9A6
:1011D00000221346FFF793FF03B000BD70B505462C
:1011E0000C4608480560204600F00EF800BF054890
:1011F00000680028FBD100214FF0804002F059FD2B
:1012000070BD0000F40000203EB5044600214FF000
:10121000804002F04EFD00220121880702F0B1FD5E
:10122000022C02D10B20019004E0012C02D142F6E5
:10123000DF6001900520ADF800000020ADF8080047
:10124000ADF8020069464FF0804002F0EDFD01214B
:10125000880702F02BFD0121880702F01BFD012207
:101260001146900702F08DFD0121880702F021FD53
:101270003EBD00BFFEE72DE9F04305460E464FF6A2
:10128000FF7448F2050817E015F8010B00F0D7FECF
:10129000814684EA092408270BE004F4004018B1D1
:1012A00088EA440084B203E04FF6FF7000EA440489
:1012B0007F1E002FF1D100BF301EA6F10106E3D141
:1012C000204600F0A9FEBDE8F08370B500254FF47C
:1012D000803400E0641E24B1802001F0A9FA0028C7
:1012E000F8D014B90325284670BD40F2FF5001F034
:1012F0005BFA2846F8E700002DE9F0410646002792
:101300004848056801E04748056805F045000028A1
:10131000F9D005F0040030B10327042001F044FAAD
:101320003846BDE8F08105F0010028B10127012011
:1013300001F03AFA3846F4E701F074FAB04202D00C
:1013400010273846EDE740F2FF5001F02DFA00205B
:1013500001F08EFA04463448204008B93846E0E7E8
:1013600004F0004008B11C20DBE704F0804008B125
:101370000920D6E704F0005008B10A20D1E704F0B4
:10138000805008B10B20CCE704F0006008B10C20BD
:10139000C7E704F0806008B10D20C2E704F0807058
:1013A00008B10E20BDE704F4000008B10F20B8E733
:1013B00004F4800008B11020B3E704F4001008B171
:1013C0001120AEE704F4801008B11220A9E704F45C
:1013D000002008B11320A4E704F4802008B11420F1
:1013E0009FE704F4003008B115209AE704F4803038
:1013F00008B1162095E704F4004008B1172090E7E3
:1014000004F4804008B118208BE704F4005008B1C0
:10141000192086E704F0080008B11A2081E7384651
:101420007FE70000342C014008E0FFFD70B5002587
:101430001048046801E00F48046804F045000028E3
:10144000F9D004F0040028B10325042001F0ACF920
:10145000284670BD04F0010028B10125012001F0EB
:10146000A3F92846F5E740F2FF5001F09DF9284620
:10147000EFE70000342C014070B500250B480468EC
:1014800001E00A48046804F045000028F9D004F09F
:10149000040028B10325042001F086F9284670BD18
:1014A00040F2FF5001F080F92846F8E7342C014063
:1014B0002DE9F04106460F464FF000082248056826
:1014C00001E02148056805F045000028F9D005F045
:1014D000040038B14FF00308042001F065F94046DC
:1014E000BDE8F08105F0010030B14FF001080120A6
:1014F00001F05AF94046F3E701F094F9B04203D005
:101500004FF010084046EBE740F2FF5001F04CF975
:10151000002001F0ADF9044604F4604018B9200C35
:1015200038804046DCE704F4005008B11320D7E7C8
:1015300004F4804008B11020D2E704F4004008B160
:101540000F20CDE74046CBE7342C014070B5002694
:101550004FF480350F48046802E06D1E0D480468A2
:1015600004F0450008B9002DF7D115B104F00400CE
:1015700028B10326042001F017F9304670BD04F0AD
:10158000400028B10026402001F00EF93046F5E772
:101590003046F3E7342C014010B5ADF5916D454868
:1015A000006898B94448008801280FD100F08EFFE8
:1015B0004249087008460078002804DD0846007893
:1015C000401C087002E001203C4908703B4802784A
:1015D0003BA13D4806F048FD95A9012008F06CFBB1
:1015E000044634B1214639A006F02EFD0DF5916D6B
:1015F00010BD3CA102A808F049FC044644B12146B4
:1016000039A006F021FD0021012008F055FBEDE78F
:1016100012222D490BA808F069FB0446002C3AD190
:1016200025480088012836D10BA80E9908F06CFADD
:1016300004463348B0F90000072819DD3048B0F9F6
:101640000000C21F01AB2F490BA808F0E5FC0446BF
:101650002DA00168009101AB022269460BA808F099
:10166000DBFC04461548017828A006F0EDFC00BF1D
:1016700010480068401C0F49086008460068B0F533
:10168000967F0DD30D480078401C0C49087000204F
:101690000849086004E00948017827A006F0D4FC56
:1016A0000BA808F021FA0021012008F005FB00BF7B
:1016B0009CE700000C000020040000201200002025
:1016C00025642E74787400001C110020B9D2D4D87F
:1016D000CEC4BCFECFB5CDB3CAA7B0DC20282564EC
:1016E000290D0A00313A2F00B4F2BFAAB8F9C4BFDD
:1016F000C2BCCAA7B0DC20282564290D0A0000005E
:1017000002010020FD3000200D0A000070616765B5
:1017100031372E74302E7478743D2225642E7478FF
:10172000742055C5CCCEC4BCFED0B4C8EBB3C9B987
:10173000A622FFFFFF0000007061676531372E743D
:10174000302E7478743D2225642E7478742055C52B
:10175000CCCEC4BCFED0B4C8EBCAA7B0DC22FFFF1D
:10176000FF00000010B5ADF5916D4148006878B9F3
:1017700000F01CFF3F49087008460078002804DD8F
:1017800008460078401C087002E0012039490870C2
:101790003848027838A13A4806F066FC95A900203E
:1017A00008F08AFA044634B1214636A006F04CFC13
:1017B0000DF5916D10BD39A102A808F067FB044634
:1017C00044B1214636A006F03FFC0021084608F04F
:1017D00073FAEDE712222A490BA808F087FA0446AB
:1017E000002C36D10BA80E9908F08EF90446324829
:1017F000B0F90000072819DD2F48B0F90000C21F1A
:1018000001AB2E490BA808F007FC04462CA0016888
:10181000009101AB022269460BA808F0FDFB0446CB
:101820001448017827A006F00FFC00BF104800689C
:10183000401C0F49086008460068B0F5967F0DD33C
:101840000C480078401C0B490870002008490860CB
:1018500004E00848017826A006F0F6FB0BA808F083
:1018600043F90021084608F027FA00BFA0E700006E
:10187000140000201800002025642E7478740000E5
:101880002B210020B9D2D4D8CEC4BCFECFB5CDB365
:10189000CAA7B0DC20282564290D0A00303A2F00A1
:1018A000B4F2BFAAB8F9C4BFC2BCCAA7B0DC202832
:1018B0002564290D0A00000002010020FD300020EF
:1018C0000D0A000070616765302E74302E747874D4
:1018D0003D2225642E747874205344BFA8CEC4BC26
:1018E000FED0B4C8EBB3C9B9A622FFFFFF000000C9
:1018F00070616765302E74302E7478743D222564D3
:101900002E747874205344BFA8CEC4BCFED0B4C893
:10191000EBCAA7B0DC22FFFFFF00000010B501F00A
:10192000BFFC10BD0246094B9A4201D2084801E0B3
:101930000648103801F000531BB1064B0B40C36042
:1019400002E0044B0B4083607047000010640240CB
:10195000006002407D0F7D0F21B1026842F001025C
:10196000026003E0026822F001020260704700009A
:10197000016821F001010160002101604160816086
:10198000C1600161212141614A49884204D13D2160
:10199000484A103A91608CE046491831884205D196
:1019A0004FF47461434A103A916082E0414930310A
:1019B000884205D14FF474113E4A103A916078E0A4
:1019C0003C494831884205D14FF07461394A103A98
:1019D00091606EE037496031884204D13649354A1A
:1019E000103AD16065E033497831884204D13349F7
:1019F000304A103AD1605CE02E499031884204D1DF
:101A00002F492C4A103AD16053E02A49A831884224
:101A100005D14FF03D51274A103AD16049E029499C
:101A2000884204D13D21274A083A116041E0254906
:101A30001831884205D14FF47461224A083A116086
:101A400037E020493031884205D14FF474111D4AE6
:101A5000083A11602DE01B494831884205D14FF00A
:101A60007461184A083A116023E0164960318842CF
:101A700004D11149134A121F11601AE0114978313B
:101A8000884204D10D490F4A121F116011E00D491F
:101A90009031884204D10A490A4A121F116008E0B5
:101AA0000849A831884204D14FF03D51054A121F20
:101AB00011607047106002403D000020400F002080
:101AC00000003D201064024021B1026842F0200273
:101AD000026003E0026822F02002026070470146C3
:101AE00000200A6802F001020AB1012000E0002093
:101AF00070470146486880B27047000030B5034621
:101B00000A46002000240B4DAB4201D20A4901E0F5
:101B10000849103902F000550DB14C6800E00C681E
:101B2000064D2C4004EA02050DB1012000E0002022
:101B300030BD000010640240006002407D0F7D0F48
:101B400010B501F080034BB122B1436943F080032B
:101B5000436103E0436923F08003436180290BD094
:101B60002AB1036801F01E042343036004E0036804
:101B700001F01E04A343036010BD000010B5002255
:101B80000268134B1A40CC680B6823434C6923430B
:101B90008C692343CC6923430C6A23434C6A234357
:101BA0008C6A23434C6B23438C6B23431A430260A0
:101BB000426922F00702D1E90B3423431A43426100
:101BC0000B6943604B6883608B68C36010BD000085
:101BD0003F801CF010B500F0F3FA01F0E1FF01F0D6
:101BE0009FFF10BD70B505460C46FF2C16DA224645
:101BF00029461148FEF7E4FA00211048FFF7ACFE31
:101C000000BF0E48FFF76BFF0028FAD121460B48B2
:101C100000F018F801210948FFF79EFE09E0084985
:101C20000648FFF76BFF20B105490448FFF77AFE2D
:101C300000E0F4E700BF70BDF7310020A06402406F
:101C400000002020416070477047000008B504483C
:101C5000044B054A00210090044803F079F808BDC0
:101C6000A40000207800002074300020C82A002042
:101C70002DE9FC4107460D46002600240020009077
:101C8000019008205B49086010204860402088606F
:101C90000020C8604FF480600861084600F044FEF0
:101CA0001020FFF729FB044614B12046BDE8FC8153
:101CB0005148008800044F490860372048604020A0
:101CC00088600020C8604FF480600861084600F01A
:101CD0002BFE3720FFF710FB04460CB12046E5E74A
:101CE0004FF0FF3045490860082048603020886088
:101CF0000220C8600020086101204861084600F009
:101D00006BFD00203B49086033204860402088601C
:101D10000020C8604FF480600861084600F004FEAF
:101D20003320FFF7E9FA04460CB12046BEE709E08C
:101D30004FF4001000F07CFD20B100F0EFFD4DF8F5
:101D40002600761C2E48006840F22A6108400028D0
:101D5000EED0082000F06CFD28B1082000F024FD32
:101D600004242046A2E7022000F062FD28B10220F0
:101D700000F01AFD0224204698E7202000F058FDCC
:101D800028B1202000F010FD062420468EE74FF4F5
:101D9000007000F04DFD30B14FF4007000F004FD14
:101DA0000724204682E740F2FF5000F0FDFC009837
:101DB0000006009901F47F4140EA0120009901F4F6
:101DC0007F0140EA1120009940EA116068600198A3
:101DD0000006019901F47F4140EA0120019901F4D4
:101DE0007F0140EA1120019940EA116028602046F5
:101DF0005CE7000010220020300000202422002098
:101E0000342C0140F0B50A4600210023002400BF15
:101E10003DE0012505FA01F3156805EA03049C423B
:101E200034D105684F000326BE40B54305601579DF
:101E30004E00B5400668354305601579012D02D086
:101E40001579022D16D185684F000326BE40B54393
:101E5000856055794E00B540866835438560456894
:101E600001268E40B5434560456896798E40B6B2EE
:101E700035434560C5684F000326BE40B543C56085
:101E8000D5794E00B540C6683543C560491C102958
:101E9000BFD3F0BDF0B5002300244D07ED0E02FACC
:101EA00005F3CE1000F1200555F826504E07F70E29
:101EB0000F26BE40B543CF1000F1200646F827504C
:101EC000CE1000F1200555F8265045EA0304CE1047
:101ED00000F1200545F82640F0BD024600201369B8
:101EE0000B400BB1012000E0002070474183704798
:101EF0000183704701464869806880B2704708B521
:101F00000146D1F8CC00006800900098C0F3414031
:101F100008BD024602F29B30405C7047024602F563
:101F2000547050F82100704770B504460E460025E5
:101F30000021C4F8101300BF0BE0002104F5457028
:101F400040F825103C3040F825103C304155681CC5
:101F5000C5B20F2DF1DB0821A4F8B213314620469B
:101F600004F050FF204604F057FB204604F016FA18
:101F70000121204604F0B2FF204604F0A8FA2046D2
:101F800004F0A3FB002070BD0146D1F81003704798
:101F900010B50446204604F014FF002010BD70B5B3
:101FA00004460D46002104F29B304155113000EBF0
:101FB000451041612946204604F0B2FD70BD000085
:101FC00009A100200BE00A56124B9A8000BF114A6B
:101FD000128802F04002002AF9D0421CD0B22A280E
:101FE000F1D300BFFEE700000D0A456E7465722054
:101FF000486172644661756C745F48616E646C65BB
:10200000722C2053797374656D2048616C742E0DA9
:102010000A0000000010014010B502460020002117
:102020000AE001238B4013402BB1C1F10F040123BF
:10203000A3409BB21843491C1029F2DB10BD10B518
:102040000246002000210AE001238B4013402BB1FF
:10205000C1F107040123A340DBB21843491C08293E
:10206000F2DB10BD10B50948007800B910BD084872
:10207000007800B1FAE70020044908704FF40051DD
:102080000448FFF735FF00BFF0E700001001002013
:10209000110100200010024010B54FF40051054816
:1020A000FFF724FF01200449087014200349087039
:1020B00010BD00000010024010010020110100209E
:1020C0001CB50121102000F00FF94FF46040009082
:1020D00001208DF8040003208DF8050069460948A9
:1020E000FFF790FE4FF400510648FFF701FF4FF451
:1020F00080410448FFF7FCFE4FF400410148FFF720
:10210000F7FE1CBD0010024000BFFEE77047000054
:1021100070B5002100230F22C4781CB3174C24682B
:1021200004F4E064C4F5E064C4F30721C1F10404DD
:10213000E3B20A4144789C40E1B2847814402143E0
:102140000C07210E0E4C05786155047804F01F052C
:102150000124AC4005786D11AD0005F1E025C5F80E
:10216000004109E0047804F01F050124AC40054D4E
:102170000678761145F8264070BD00000CED00E0B1
:1021800000E400E080E100E002490143024A1160FE
:10219000704700000000FA050CED00E0024A0A401A
:1021A0000243024B1A60704780FFFF1F08ED00E0FA
:1021B00010B5024803F0A0FC10BD0000C82A0020A2
:1021C000002004E00B4921F81000411C88B2B0F552
:1021D0007A7FF7DB002009E0C0F57A718AB200F55A
:1021E0007A71044B23F81120411C88B2B0F57A7F34
:1021F000F2DB70476C3400207047000010B514A06B
:1022000005F022FF13A005F01FFF1EA005F01CFF24
:1022100010A005F019FF2148016821A005F014FF66
:102220001E4883794279017921A005F00DFF1B48F2
:10223000816825A005F008FF1848C16826A005F0B0
:1022400003FF04A005F000FF01A005F0FDFE10BD96
:102250000D0A00003D3D3D3D3D3D3D3D3D3D3D3D8B
:102260003D3D3D3D3D3D3D3D3D3D3D3D3D3D3D3D9E
:102270003D3D3D3D3D3D3D3D3D3D3D3D3D3D3D3D8E
:102280000D0A000020202020202020B9CCBCFEB068
:10229000E6B1BED0C5CFA20D0A000000ACAE00086A
:1022A000B9CCBCFEC3FBB3C63A2025730D0A0000AF
:1022B000B0E620B1BE20BAC53A205625642E25646A
:1022C0002E25640D0A000000B1E0D2EBC8D5C6DAB5
:1022D0003A2025730D0A0000B1E0D2EBCAB1BCE48C
:1022E0003A2025730D0A000029B1064A12680243FC
:1022F000044B1A6004E0034A12688243014B1A60DF
:10230000704700003038024029B1064A1268024383
:10231000044B1A6004E0034A12688243014B1A60BE
:10232000704700004038024029B1064A1268024353
:10233000044B1A6004E0034A12688243014B1A609E
:10234000704700002038024029B1064A1268024353
:10235000044B1A6004E0034A12688243014B1A607E
:10236000704700004438024029B1064A126802430F
:10237000044B1A6004E0034A12688243014B1A605E
:102380007047000024380240F0B5002100220024EC
:10239000022500260223324F3F6807F00C0121B1CD
:1023A000042905D0082937D105E02E4F076036E013
:1023B0002D4F076033E02A4F3F1F3F68C7F3805619
:1023C000274F3F1F3F6807F03F036EB1264FB7FB13
:1023D000F3F7DFF88CC0ACF1040CDCF800C0CCF3F0
:1023E000881C07FB0CF40CE01E4FB7FBF3F7DFF87B
:1023F00070C0ACF1040CDCF800C0CCF3881C07FB07
:102400000CF4174F3F1F3F68C7F301477F1C7D0047
:10241000B4FBF5F7076002E0124F076000BF00BF92
:102420000F4F3F6807F0F0010909104F7A5C076809
:10243000D74047600A4F3F6807F4E051890A0B4FC5
:102440007A5C4768D7408760054F3F6807F4604172
:10245000490B064F7A5C4768D740C760F0BD000063
:10246000083802400024F40000127A0044000020E2
:102470000FB410B5A2B025A80190802102A8019B3D
:10248000249A05F005FE044600200190002C03DD8F
:10249000214602A800F004F822B010BC5DF814FB3D
:1024A00010B50246002000BF0AE0135C064CA38072
:1024B00000BF054B1B8803F04003002BF9D0401CE4
:1024C0008842F2D310BD00000010014070B5ADF598
:1024D000207D002613A9012007F0EEFB04463CB145
:1024E000214622A005F0B0FD00200DF5207D70BD35
:1024F00024A10AA807F0CAFC044664BB20E09DF8AA
:10250000100000F0100000B11AE02E210DF11100B2
:10251000FDF78FFE054695B11BA12846FDF77BFE12
:1025200068B901AA1AA10DF11100FDF793FE012867
:1025300004D10198B04201DD0198C6B200BF00BFCE
:1025400002A90AA807F0DEFC041E08D19DF81100BC
:102550000028D4D103E021460FA005F075FD00212D
:10256000012007F0A9FB3046BFE70000B9D2D4D85C
:10257000B4E6B4A2C9E8B1B8CAA7B0DC2028256483
:10258000290A0000313A2F002E74787400000000F0
:1025900025642E7478740000B4F2BFAAC4BFC2BC14
:1025A000CAA7B0DC20282564290A000070B5ADF563
:1025B000207D002613A9002007F07EFB04463CB1D5
:1025C000214622A005F040FD00200DF5207D70BDC4
:1025D00024A10AA807F05AFC044664BB20E09DF839
:1025E000100000F0100000B11AE02E210DF11100D2
:1025F000FDF71FFE054695B11BA12846FDF70BFE12
:1026000068B901AA1AA10DF11100FDF723FE0128F6
:1026100004D10198B04201DD0198C6B200BF00BFED
:1026200002A90AA807F06EFC041E08D19DF811004B
:102630000028D4D103E021460FA005F005FD0021BC
:10264000084607F039FB3046BFE70000B9D2D4D8BE
:10265000B4E6B4A2C9E8B1B8CAA7B0DC20282564A2
:10266000290A0000303A2F002E7478740000000010
:1026700025642E7478740000B4F2BFAAC4BFC2BC33
:10268000CAA7B0DC20282564290A00007CB50546CD
:10269000002400200090019000F0EAF800F00070A3
:1026A00010B10E2420467CBD3D49098888B2694698
:1026B000FFF7DEFA04460CB12046F4E7012D36D1CF
:1026C000019800F4802000282ED0354800880004AE
:1026D0003449086037204860402088600020C86086
:1026E000A8020861084600F01FF93720FEF704FE33
:1026F00004460CB12046D6E702202A49086006208D
:102700004860402088600020C8604FF48060086105
:10271000084600F009F90620FEF7EEFD04460CB16C
:102720002046C0E72046BEE725242046BBE70198A7
:1027300000F4803078B31A48008800041949086012
:1027400037204860402088600020C8604FF48060D7
:102750000861084600F0E8F83720FEF7CDFD044692
:102760000CB120469FE700200E4908600620486013
:10277000402088600020C8604FF4806008610846EF
:1027800000F0D2F80620FEF7B7FD04460CB1204653
:1027900089E7204687E7FFE72524204683E70000F6
:1027A000300000201022002001490860704700001E
:1027B000382C01400149086070470000382C014066
:1027C0000149086070470000A08025420149086067
:1027D000704700008C85254200210B4B02681A606F
:1027E0001B1D42681A601A1D116821F0F701D0E91B
:1027F00002231A4303691A4343691A431143024AE5
:102800000832116070470000242C014010B50121EE
:10281000C802FFF7A9FD00214FF40060FFF7A4FDF7
:1028200010BD000001480068C0B27047102C014084
:1028300001460020034A12680A400AB1012000E064
:1028400000207047342C014001460020034A1268E2
:102850000A400AB1012000E000207047342C0140FA
:102860000248006800F0030070470000002C01409F
:1028700008B50146002000900248084400900098E6
:10288000006808BD142C014010B500F01DFD10BDFE
:1028900029B1064A12680243044B1A6004E0034A55
:1028A00012688243014B1A60704700003C2C0140C3
:1028B00000210A4A116847F6FF629143027D83684E
:1028C0001A4343681A43C3681A4303681A430369E7
:1028D0001A431143014A116070470000042C014063
:1028E00008B54FF4C060FFF74FFC31208DF80000B1
:1028F00000208DF801008DF8020001208DF8030002
:102900006846FFF705FC3B208DF8000001208DF89C
:1029100001006846FFF7FCFB08BD000001480068A5
:1029200070470000802C01400021094B02681A60AA
:102930001A1D11686FF30A01D0E901231A43C36815
:102940001A4303691A431143014A121D116070476B
:10295000082C01400149086070470000002C01402C
:1029600008B50120009008210448FFF7B6FA08B125
:10297000002000909DF8000008BD0000000C0240FF
:1029800070B50446002520480068032802D1272599
:10299000284670BD1C48006838B11B4800680128F3
:1029A00003D01948006802282CD1B4F5805F02D109
:1029B00027252846EDE7B4F5006F13D10120FFF776
:1029C00065FE0546F5B900201049087508604860A5
:1029D00088604FF40060C860002008610846FFF777
:1029E00067FF0FE00020FFF751FE054655B90020B4
:1029F00006490875086048608860C8600861084634
:102A0000FFF756FF2846C4E72C000020F8210020DD
:102A1000F0B5014600200022BC4B1B7881F85630EF
:102A2000BB4B1B88A1F85430BA4B1B681A0E930994
:102A30000B70C2F383034B7002F003038B70B54B32
:102A40001B68C3F30742CA70B24B1B88C3F307224B
:102A50000A71B04B1A784A715B681A0E1301CB8069
:102A6000AC4B5B68C3F30742CB8843EA1213CB80BD
:102A700002F00F030B72A74B9B88C3F30722D30905
:102A80004B72C2F380138B72C2F34013CB72C2F34A
:102A900000130B7300234B739C4B1B681BB19B4BA8
:102AA0001B68012B4FD193071B0D0B61994B1A79B2
:102AB0000B6943EA82030B61964B9B681A0E0B6904
:102AC00043EA92130B61C2F3C2030B7502F00703D2
:102AD0004B75904B9B68C3F3074253098B75C2F348
:102AE0008203CB7593075B0F0B768A4B1B89C3F36D
:102AF00007220B7E43EAD2130B760B695B1C002482
:102B0000C1E912340B7ED1E912649B1C012505FA40
:102B100003F3DF17A6FB035C04FB03C306FB0733C9
:102B2000C1E912530C7A0123A3400B650027D1E9B8
:102B300012560B6DA5FB034C06FB03C305FB0733C5
:102B4000C1E912432DE0714B1B68022B29D1714B57
:102B50001A7993069B0A0B616E4B9B681A0E0B69E0
:102B600043EA02230B616B4B9B68C3F307420B697B
:102B700013430B61674B1B89C3F307220B695B1C73
:102B80004FF40074A3FB04344FF480660025A3FBCC
:102B9000067C04FB06C403FB0543C1E912737310F2
:102BA0000B65C2F3801301F8193F93065B0E4B705F
:102BB000584B1A7A4B7843EAD2134B7002F07F03DA
:102BC0008B70544BDB681A0ED309CB70C2F34113E0
:102BD0000B71C2F382034B7193071B0F8B714D4B2B
:102BE000DB68C3F307428B7943EA92138B71C2F31C
:102BF0004013CB7100230B7202F001034B72454B63
:102C00009B89C3F30722D3098B72C2F38013CB7263
:102C1000C2F340130B73C2F300134B73C2F381036F
:102C20008B7302F00303CB733A4B1A7B53080B747C
:102C300001234B74384B1B681A0ECA741939364B72
:102C40001B68C3F307421402CC85334B1B88C3F3C4
:102C50000722CB8D1343CB852F4B1A7814060C63B8
:102C60005B681A0E0B6B43EA02440C632A4B5B68E9
:102C7000C3F307420B6B43EA02240C63264B9B8889
:102C8000C3F307220B6B13430B63234B1A793423D3
:102C90005A54214B9B681A0E35235A541E4B9B687D
:102CA000C3F3074214068C631B4B1B89C3F3072233
:102CB0008B6B43EA02448C63174B1A7A8B6B43EAA3
:102CC00002248C63144BDB681A0E8B6B13438B63EB
:102CD000114BDB68C3F307423C235B5C43EA1214ED
:102CE0003C235C5413071C0DCC870B4B9B89C3F30F
:102CF0000722CB8F1343CB87074B1A7B5408402303
:102D00005C54012441235C54F0BD00002C000020E1
:102D100030000020702100208021002008B5002014
:102D20000090FFF71DFE012809D1684600F020FC45
:102D300008B1FF2008BD0098C0F34320FAE7FF2048
:102D4000F8E710B50424FFF7E9FF0446042C01D18D
:102D5000002010BDFF2C01D10220FAE70120F8E786
:102D600008B500200090FFF7BBFD00F069F9FFF700
:102D70004DFD00F0C5F900909DF8000010B19DF8E0
:102D8000000008BD00F030F800909DF8000010B180
:102D90009DF80000F5E700201149087508604860BB
:102DA0008860C86008610846FFF782FD0D48FFF79C
:102DB0002FFE00909DF8000030B90A49B1F8541078
:102DC000080400F0BBFB00909DF8000020B94FF410
:102DD0000060FFF7D5FD00909DF80000D1E70000EE
:102DE000F8210020A021002038B500240120009007
:102DF000FFF736FD10B92524204638BD4448006849
:102E0000042828D000204349086002204860C020E0
:102E100088600020C8604FF4806008610846FFF7B2
:102E200083FDFEF703FB04460CB12046E5E70020D6
:102E3000FFF71EFD384908600420FFF719FD3649E9
:102E400048600820FFF714FD334988600C20FFF725
:102E50000FFD3149C8602E48006858B12C48006801
:102E6000012807D02A480068062803D028480068AF
:102E7000022816D10020274908600320486040201E
:102E800088600020C8604FF4806008610846FFF742
:102E90004BFD69460320FEF70BFB04460CB12046B0
:102EA000ABE71B48006804282ED0BDF800001B4982
:102EB0000860BDF800000004164908600920486059
:102EC000C02088600020C8604FF480600861084618
:102ED000FFF72AFDFEF7AAFA04460CB120468CE75C
:102EE0000020FFF7C5FC0E4908600420FFF7C0FC76
:102EF0000B4948600820FFF7BBFC094988600C209B
:102F0000FFF7B6FC0649C8600024204675E70000BC
:102F10002C00002010220020802100203000002002
:102F20007021002030B58FB004460D464FF0FA51A5
:102F30001D48FEF7F7FC00211B48FEF70DFD1A485F
:102F4000FEF716FD4FF000600090184801900294C3
:102F500000200390049005904FF48060069080005C
:102F6000079080000890002009904FF440300A90AC
:102F700004200B9003200C904FF400000D90801063
:102F80000E9069460848FEF7F9FD01221021064817
:102F9000FEF7D6FD20210448FEF796FD01210248E8
:102FA000FEF7DAFC0FB030BD58640240802C0140BF
:102FB00030B58FB004460D464FF0FA511E48FEF76B
:102FC000B1FC00211C48FEF7C7FC1B48FEF7D0FCF3
:102FD0004FF0006000901948019002944020039047
:102FE0000020049005904FF48060069080000790C8
:102FF00080000890002009904FF440300A9004208F
:103000000B9003200C904FF400000D9080100E9058
:1030100069460948FEF7B2FD012210210648FEF775
:103020008FFD20210448FEF74FFD01210248FEF7E5
:1030300093FC0FB030BD000058640240802C01406A
:103040001CB501210C20FFF74FF90C2208212A485A
:10305000FEF720FF0C2209212748FEF71BFF0C2258
:103060000A212548FEF716FF0C220B212248FEF705
:1030700011FF0C2211462048FEF70CFF0C22022102
:103080001E48FEF707FF4FF47060009001208DF896
:10309000050002208DF8040000208DF806000120B4
:1030A0008DF8070069461448FEF7ACFE0420009036
:1030B00069461248FEF7A6FE4FF4805000900120AA
:1030C0008DF8070069460C48FEF79CFE082000902A
:1030D00000208DF8040001208DF80700694607489C
:1030E000FEF790FE0121C802FFF72EF901218805A5
:1030F000FFF7FAF81CBD000000080240000C024077
:10310000F8B5002000900025002400260027762036
:103110005F4908750020086048608860C8600861E1
:103120000846FFF7C5FB0320FFF714FC0120FFF75B
:1031300047FB00205749086048608860C8604FF42A
:10314000806008610846FFF7EFFBFEF7BEF80090CD
:103150009DF8000010B19DF80000F8BD4FF4D57047
:103160004C49086008204860402088600020C86002
:103170004FF4806008610846FFF7D6FBFEF7E6F9DA
:1031800000909DF8000020B901204349086087079E
:1031900012E000203F4908603720486040208860E6
:1031A0000020C8604FF4806008610846FFF7BCFB50
:1031B0003720FEF7A1F8009000203649086037203C
:1031C0004860402088600020C8604FF4806008613B
:1031D0000846FFF7A9FB3720FEF78EF800909DF810
:1031E0000000002851D13BE000202A490860372028
:1031F0004860402088600020C8604FF4806008610B
:103200000846FFF791FB3720FEF776F800909DF80F
:10321000000010B19DF800009FE7204838431D4989
:10322000086029204860402088600020C8604FF472
:10323000806008610846FFF777FBFEF71DF90090F4
:103240009DF8000010B19DF8000086E70020FFF710
:103250000FFB0546012080EAD57080F00106641C52
:103260001EB94FF6FF708442BED34FF6FF70844202
:1032700004D31B2000909DF800006EE705F080400D
:10328000051E02D00220044908609DF8000064E792
:10329000F8210020102200202C00002000001080C7
:1032A00010B50748006800F0C05040B10120054942
:1032B00008604FF0C25102485830FEF733FB10BD92
:1032C000006402404000002010B54FF48070FFF70A
:1032D000BBFA50B10020254908704FF48070FFF709
:1032E00069FA01202249086037E00220FFF7ACFAB2
:1032F00030B10220FFF75EFA02201C4908702CE072
:103300000820FFF7A1FA30B10820FFF753FA042094
:103310001649087021E02020FFF796FA30B12020EE
:10332000FFF748FA06201149087016E01020FFF751
:103330008BFA30B11020FFF73DFA05200B490870D9
:103340000BE04FF40070FFF77FFA30B14FF40070DC
:10335000FFF730FA07200549087000214CF23A3097
:10336000FFF796FA0148007810BD000038000020F1
:103370003C0000202DE9F04107460D46144600268A
:1033800000202D4908702D4908602D4908602D49FD
:1033900008602D480068022801D104026D0A2B48FC
:1033A0000460102029494860402088600020C860DF
:1033B0004FF4806008610846FFF7B6FA1020FDF769
:1033C0009BFF064616B13046BDE8F0814FF0FF3056
:1033D0001F49086008464460902088600220C86049
:1033E00000200861012048610846FFF7F5F91748F9
:1033F0000560112015494860402088600020C860A1
:103400004FF4806008610846FFF78EFA1120FDF73F
:1034100073FF06460EB13046D6E7012140F22A304E
:10342000FFF736FA0120FFF7D1F921463846FFF7BA
:1034300079FD3046C8E70000380000203C0000203D
:10344000340000202C2C01402C00002010220020F1
:10345000242200202DE9F04180460D4614461E46E8
:10346000002700202E4908702E49086001202E49AF
:10347000086000202D4908602D480068022801D10D
:1034800004026D0A2B48046010202A49486040203D
:1034900088600020C8604FF4806008610846FFF72C
:1034A00043FA1020FDF728FF074617B13846BDE85C
:1034B000F0814FF0FF302049086006FB04F04860BF
:1034C000902088600220C8600020086101204861C7
:1034D0000846FFF781F91748056012201549486032
:1034E000402088600020C8604FF480600861084672
:1034F000FFF71AFA1220FDF7FFFE07460FB1384614
:10350000D5E7012140F22A30FFF7C2F90120FFF789
:103510005DF906FB04F14046FFF704FD3846C6E7B7
:10352000380000203C000020340000202C2C0140FA
:103530002C000020102200202422002070B5044618
:1035400000250A4804600720084948604020886038
:103550000020C8604FF4806008610846FFF7E4F976
:103560000720FDF7C9FE0546284670BD1022002041
:1035700070B50446002514B92625284670BD0F48AD
:10358000008800040E4908600D20486040208860D3
:103590000020C8604FF4806008610846FFF7C4F956
:1035A0000D20FDF7A9FE05460DB12846E6E70020EF
:1035B000FFF75EF920602846E0E7000030000020B9
:1035C0001022002010B5002400200A4908600C20B9
:1035D0004860402088600020C8604FF48060086127
:1035E0000846FFF7A1F90C20FDF786FE04462046A9
:1035F00010BD00001022002070B500256C1E00E0F8
:10360000641E1848006838B91748006820B9174880
:10361000007808B9002CF3D1002012490860441E3C
:1036200000E0641E1248006800F4005008B1002C4D
:10363000F7D110480068012805D1FFF7C3FF054600
:1036400000200C4908600CB905B9042540F2FF5070
:10365000FFF7AAF80548007810B10448007870BD5B
:103660002846FCE7400000203C00002038000020F5
:10367000342C01403400002070B500256C1E00E0A1
:10368000641E1848006838B91748006820B9174800
:10369000007808B9002CF3D1002012490860441EBC
:1036A00000E0641E1248006800F4805008B1002C4D
:1036B000F7D110480068012805D1FFF783FF0546C0
:1036C00000200C4908600CB905B9042540F2FF50F0
:1036D000FFF76AF80548007810B10448007870BD1B
:1036E0002846FCE7400000203C0000203800002075
:1036F000342C0140340000202DE9F04107460D46EE
:103700001446002600202C4908702C4908602C49DA
:1037100008602C4908602C480068022801D1040286
:103720006D0A2A48046010202849486040208860BB
:103730000020C8604FF4806008610846FFF7F4F885
:103740001020FDF7D9FD064616B13046BDE8F081E0
:103750001E48056018201D494860402088600020F0
:10376000C8604FF4806008610846FFF7DDF8182054
:10377000FDF7C2FD06460EB13046E7E74FF0FF30D9
:103780001349086008464460902088600020C860A3
:103790000861012048610846FFF71EF8012140F248
:1037A0002A30FFF775F821463846FFF701FC012063
:1037B000FFF70CF83046C9E7380000203C00002035
:1037C000340000202C2C01402C000020102200206E
:1037D000242200202DE9F04180460F4615461E4662
:1037E00000240020454908704549086001204549EA
:1037F000086000204449086044480068022801D15C
:1038000005027F0A42480560102041494860402077
:1038100088600020C8604FF4806008610846FFF7A8
:1038200083F81020FDF768FD044614B12046BDE87A
:10383000F081384800880004354908603720486026
:10384000402088600020C8604FF48060086108460E
:10385000FFF76AF83720FDF74FFD04460CB120460C
:10386000E5E72B480660172029494860402088601A
:103870000020C8604FF4806008610846FFF754F8E4
:103880001720FDF739FD04460CB12046CFE720484C
:10389000076019201E494860402088600020C860E9
:1038A0004FF4806008610846FFF73EF81920FDF7E5
:1038B00023FD04460CB12046B9E74FF0FF3016490E
:1038C000086006FB05F04860902088600020C86012
:1038D0000861012048610846FEF77EFF012140F2A1
:1038E0002A30FEF7D5FF0120FEF770FF06FB05F139
:1038F0004046FFF75DFB204699E7000038000020B6
:103900003C000020340000202C2C01402C00002022
:1039100010220020300000202422002070470000E8
:103920000CB50020019000903448006840F48030CD
:103930003249086000BF3148006800F40030009050
:103940000198401C0190009818B90198B0F5A04F5B
:10395000F1D12A48006800F4003010B10120009035
:1039600001E0002000900098012846D12348403013
:10397000006840F0805021494031086020480068CC
:1039800040F480401E4908601C48083000681B490C
:10399000083108600846006840F4004008600846A6
:1039A000006840F4A05008601648091F0860081F0E
:1039B000006840F08070091F086000BF0F48006871
:1039C00000F000700028F9D040F205600E49086050
:1039D0000A480830006820F00300084908310860F0
:1039E0000846006840F00200086000BF0348083045
:1039F000006800F00C000828F8D10CBD0038024027
:103A00000070004008544007003C0240042808D1E0
:103A10004FF0E021096941F004014FF0E02211610B
:103A200007E04FF0E021096921F004014FF0E022A6
:103A30001161704710B500F001F810BD10B51948BC
:103A4000006840B117480068401E1649086010B968
:103A5000012015490870002408E004EB4401134AD2
:103A600002EB810004F0D5FF601CC4B2042CF4DB2F
:103A70000F480068401C0E490860084600686FF057
:103A80000041884202D100200949086009480078B5
:103A9000401CC0B2074908700A2801DB00200870EA
:103AA00010BD00001C000020200000203C21002050
:103AB000240000202800002010B51548006840F4BC
:103AC0007000134908601348006840F00100114974
:103AD000086000200F49083108600E4800680E4950
:103AE00008400C4908600D48091D0860081F00685F
:103AF00020F48020091F0860002006490C3108606E
:103B0000FFF70EFF4FF0006001498039086010BDDB
:103B100088ED00E000380240FFFFF6FE1030002480
:103B200000B58FB001218805FEF7DEFB1948FDF7CF
:103B30001FFF00BF1748FDF7D2FF0028FAD14FF052
:103B40004060009014480190144802904020039077
:103B50004FF4FA600490002005904FF480600690C6
:103B600040000790800008904011099000020A90E0
:103B700000200B9003200C9000200D900E906946C1
:103B80000448FDF7FBFF01210248FDF7E5FE0FB0F9
:103B900000BD000070640240400001406C34002011
:103BA00000B58BB001210846FEF7CEFB01211020A5
:103BB000FEF79AFB4FF48040099002208DF8280010
:103BC00003208DF8290000208DF82A0001208DF8AF
:103BD0002B0009A91F48FEF715F901220E211D48E7
:103BE000FEF758F9A720ADF818000020ADF81A002C
:103BF0004FF4FA7007900020ADF820008DF82200F5
:103C000006A9154800F010F96020ADF80400012065
:103C1000ADF80600002003900220ADF8100001A9C5
:103C20000D4800F0B7F808210B4800F0EFF801212B
:103C3000094800F02FF801221103074800F087F827
:103C40000121054800F035F80121034800F070F823
:103C50000BB000BD001002400000014010B502F0A2
:103C600073FB10BD10B50121084800F079F860B170
:103C70000121064800F01AF805480078002804DD04
:103C800003480078401E0249087010BD000400403F
:103C90001101002021B1028842F08002028004E07C
:103CA00002884FF67F731A4002807047CA4302822F
:103CB000704721B1028842F00102028004E00288CC
:103CC0004FF6FE731A400280704700001FB50121B5
:103CD0000220FEF719FB40F2E73002905320ADF8C6
:103CE00004000020ADF80600ADF80C0001A90F4853
:103CF00000F09AF8012211460C4800F042F8012128
:103D00000A48FFF7D6FF4FF4A060FEF73DFA1D20EA
:103D10008DF8000001208DF801008DF802008DF86B
:103D200003006846FEF7F4F91FBD000000040040E0
:103D300031B1B0F8442042F40042A0F8442005E03C
:103D4000B0F84420C2F30E02A0F8442070471AB124
:103D500083890B43838102E083898B43838170478E
:103D600030B50246002000230024158A05EA01032D
:103D7000958905EA010413B10CB1012000E000208F
:103D800030BD1AB183890B43838102E083898B4361
:103D90008381704770B5002200230024058C4EF605
:103DA000FF7635400584038C8488828B48F6FF7546
:103DB0002A404FF6FF452A400D884FF6FF7606EA67
:103DC00005252A434DF6FF752B408D8906EA0535FA
:103DD0002B434D8806EA05352B430A4DA84202D0F5
:103DE000094DA84208D14BF6FF752C400D8A4FF6BD
:103DF000FF7606EA85152C43848082838D680564EE
:103E0000038470BD00000140000401400A46002107
:103E1000818B4FF2FF7319404FF6FF7303EA0223C1
:103E2000194381837047000000220288184B984292
:103E30000ED0184B98420BD0B0F1804F08D0164BE3
:103E4000984205D0154B984202D0154B984204D1A8
:103E50004FF68F731A404B881A43124B984207D083
:103E6000114B984204D04FF6FF431A400B891A4376
:103E700002804B68C3620B880385054B984202D0D1
:103E8000044B984201D18B7A0386012383827047C9
:103E90000000014000040140000400400008004010
:103EA000000C0040001000400014004000B589B034
:103EB00008210806FEF772F94FF4A060FEF764F9D6
:103EC00025208DF8200001208DF8210000208DF89C
:103ED000220001208DF8230008A8FEF719F901211E
:103EE0000920FEF701FA01211020FEF72DFA2948DA
:103EF00000F0B0F902A800F0D6FA684600F08EF99A
:103F000002208DF81C008DF81D0000208DF81E0089
:103F100001208DF81F004002069006A91E48FDF7FB
:103F200071FF072209211C48FDF7B4FF4FF48060A0
:103F3000069006A91848FDF765FF07220A211648D2
:103F4000FDF7A8FF6946134800F058F94FF4E13037
:103F500002900020ADF80C00ADF80E00ADF8100096
:103F6000ADF814000C20ADF8120002A9094800F0C9
:103F700027FA012240F22551064800F0FCF940F2F0
:103F80002661044800F02BF90121024800F04CF9A9
:103F900009B000BD001001400000024010B540F221
:103FA00025511D4800F0BDF950B31B4880881B49BE
:103FB0001B4A126888541A480068401C1849086057
:103FC0000846006802280FD308460068801E13497F
:103FD000085C232808D112480068401E085C2A2883
:103FE00002D101200F4908700D480068642802D9E9
:103FF00000200B49086040F22551074800F0EFF817
:1040000040F22771044800F08CF920B140F227718A
:10401000014800F0E4F810BD001001400834002011
:104020000C0100200801002000B58FB00121880597
:10403000FEF75AF91848FDF79BFC00BF1648FDF73C
:104040004EFD0028FAD14FF02060009013480190F7
:104050001348029000200390FF2004900020059058
:104060004FF48060069000200790089009904FF46C
:1040700080300A9000200B9003200C9000200D90BF
:104080000E9069460448FDF779FD01210248FDF7CD
:1040900063FC0FB000BD000028640240041401401E
:1040A000F830002000B58FB001218805FEF71CF91B
:1040B0001848FDF75DFC00BF1648FDF710FD00280D
:1040C000FAD14FF0206000901348019013480290FD
:1040D00040200390FF200490002005904FF4806062
:1040E000069000200790089009904FF480300A90C5
:1040F00000200B9003200C9000200D900E9069463C
:104100000448FDF73BFD01210248FDF725FC0FB0F7
:1041100000BD0000A064024004140140F7310020FB
:1041200010B540F22441234800F0FBF858B340F2A8
:104130002441204800F053F81E4800F0ABF900B2CB
:104140001D49088000211D48FDF706FC1C491B483D
:10415000FDF7E8FB1948FDF7CCFCC0F1FF0000B209
:10416000154908800846B0F90000002802DD01204A
:1041700014490870FF211148FDF764FD01210F4823
:10418000FDF7EAFB14E040F226610A4800F0C9F8A6
:1041900070B140F22661074800F021F80A4907484B
:1041A0007830FDF7BFFB002104487830FDF74AFD69
:1041B00010BD0000001401400201002028640240EC
:1041C000400F00100101002000003D2001F40072AA
:1041D000B2F5007F00D100BFCA430280704710B51E
:1041E0000022002340F66A14A14200D100BF0A1247
:1041F00001249440A3B2DC43048010BD10B50246F4
:104200000020108A20F470600B884C8823438C882F
:104210002343CC8823431843108210BD0021018022
:1042200041808180C180704721B1828942F400526F
:10423000828104E082894DF6FF731A4082817047C3
:104240001AB1838A0B43838202E0838A8B43838281
:104250007047000010B504462548844208D101216A
:104260001020FEF781F800211020FEF77DF83EE0D7
:104270002048844209D101214804FEF755F8002165
:104280004FF40030FEF750F831E01B48844209D16A
:1042900001218804FEF748F800214FF48020FEF742
:1042A00043F824E01548844209D10121C804FEF7EF
:1042B0003BF800214FF40020FEF736F817E01048D5
:1042C000844209D101210805FEF72EF800214FF4A0
:1042D0008010FEF729F80AE00A48844207D101213C
:1042E0002020FEF741F800212020FEF73DF810BD08
:1042F000001001400044004000480040004C0040D5
:10430000005000400014014002460020B1F5007F3B
:1043100000D100BF13880B400BB1012000E000204A
:10432000704770B50246002400230025002040F6A7
:104330006A16B14200D100BFC1F3421501F01F035C
:10434000012606FA03F3012D02D19689334006E0D7
:10435000022D02D1168A334001E0968A33400C12B6
:10436000012606FA04F41688344013B10CB101207A
:1043700000E0002070BDF0B50346002400260025B3
:10438000002040F66A17B94200D100BF1846C1F3B9
:10439000421401F01F06012707FA06F5012C01D18E
:1043A0000C3004E0022C01D1103000E014301AB1BE
:1043B00007682F43076002E00768AF430760F0BD5E
:1043C0002DE9FF4705460E460024A14600BFA04642
:1043D000B08900B100BF2C8A24F44054F088044313
:1043E0002C82AC8941F20C608443B0883189084347
:1043F000718908430443AC81AC8A24F44074B089C9
:104400000443AC826846FDF7BFFF2048854202D0D6
:104410001F48854202D1DDF80C9001E0DDF80890DC
:10442000A88900F4004040B109EBC90000EB091075
:1044300031684900B0FBF1F707E009EBC90000EB78
:10444000091031688900B0FBF1F76420B7FBF0F088
:1044500004012009642101FB1078A88900F40040C0
:1044600040B1322000EBC800B0FBF1F000F00700D3
:10447000044308E0322000EB08106421B0FBF1F0A7
:1044800000F00F0004432C81BDE8FF8700100140BD
:104490000014014001468888C0F308007047C1F34A
:1044A0000802828070474FF416510160002181801C
:1044B000C18001810C21418100218181704770B54B
:1044C00005460E46284600F0BEF904464FF6FF703A
:1044D000844205D046F4004105F28C5020F81410B7
:1044E000E0B270BD2DE9F04105460E4617461C4668
:1044F000012105F56B7000EB4410817005F56B70C0
:1045000000EB4410C66005F56B7000EB44100761CA
:1045100005F56B7000EB4410007E30B9002105F505
:104520006B7000EB4410017205E0022105F56B7021
:1045300000EB4410017221462846FDF730FD0020B3
:10454000BDE8F0812DE9F04105460E4617461C46B0
:10455000002105F56B7000EB4410817005F56B7060
:1045600000EB4410C66005F56B7000EB441007616A
:1045700005F56B7000EB4410407E28B905F56B70B3
:1045800000EB4410017205E0022105F56B7000EBB1
:104590004410017221462846FDF701FD0020BDE8C8
:1045A000F0812DE9F04105460C4616461F460221D2
:1045B0002175012161750021E1822683618306F066
:1045C0008000802805D105F56B7000EB471001765F
:1045D00005E0002105F56B7000EB471041760023E4
:1045E0001A462146284600F02BF8BDE8F081014626
:1045F0000122C1F81023002070472DE9F041054643
:104600000E4617461C46012105F56B7000EB441061
:104610008170022105F56B7000EB4410017205F505
:104620006B7000EB4410C66005F56B7000EB441036
:10463000076121462846FDF7B2FC0020BDE8F08165
:104640002DE9F04180460C4615461E460127E078CC
:10465000012802D0022820D108E03246294620460F
:1046600001F0D9FC0220E070012717E0207F0D281F
:1046700005D10120E0700021217700270CE0207F88
:104680000B2803D10120E070022705E0207F0C28D1
:1046900002D10120E070032700E000BF00BF3846D0
:1046A000BDE8F0812DE9F04105460F4616461C464F
:1046B000002105F56B7000EB4410817005F56B70FF
:1046C00000EB4410C76005F56B7000EB4410066109
:1046D0002EB9012105F56B7000EB4410417605F50C
:1046E0006B7000EB4410407E30B9002105F56B7013
:1046F00000EB4410017205E0022105F56B7000EB40
:104700004410017221462846FDF749FC0020BDE80F
:10471000F08170B505460E461446002105F56B7014
:1047200000EB44108170032105F56B7000EB441021
:10473000017205F56B7000EB4410C660082105F5A9
:104740006B7000EB4410016121462846FDF727FC01
:10475000C0B270BD0246022106E0002302F28C5076
:1047600020F81130481CC1B20829F6DB0020704740
:1047700070B505460C46002020706070A0700120C6
:10478000E070012121774021A171002084F82000F0
:104790000121212001552179284600F023F8617973
:1047A000284600F01FF8002070BD01460022C1F825
:1047B00010230020704770B504460D46052D01D02A
:1047C000042D06D1D4F88010486C80470A20207050
:1047D00007E0062D05D10A202070D4F88010086863
:1047E000804770BD0246082909DA02F28C5030F881
:1047F0001100C0F30E0302F28C5020F8113000209B
:1048000070472DE9F04780460C4616461D46DDE907
:10481000089746F08001217506216175E58205F44F
:104820007F40B0F5407F03D140F20941218301E090
:104830000021218367833B464A4621464046FFF7D5
:10484000FFFEBDE8F0870246002100BF0AE002F249
:104850008C5030F8110000F4004008B90846704749
:10486000481CC1B20829F2DB4FF6FF70F7E710B51C
:1048700002460B88147823440B801378981810BDD7
:104880002DE9FC4104460D461646002704F58870C4
:104890004FF4007300222946CDE900062046FFF7B9
:1048A000B0FFB0F1000814D106E004F58870C05DD7
:1048B0000949C855781C87B2B742F6DB04F58873FE
:1048C00005F1500205F13E0105F13400009601F0BA
:1048D000B5F94046BDE8FC81C82800202DE9FC411F
:1048E00004460D46164604F588704FF48073002286
:1048F0002946CDE900062046FFF783FF071E06D1B3
:10490000324604F5887105F1220001F025FA384697
:10491000BDE8FC812DE9FC470446884615461E4645
:104920000A9F04F5887045F4407300224146CDE9A2
:1049300000072046FFF765FFB0F1000905D13A46B0
:10494000314604F5887001F056FA4846BDE8FC8708
:104950002DE9F04106460C464FF0000800250021E5
:10496000A174207F0C2876D2DFE800F0FD060F3D11
:10497000466576919AC0D7ED627904F1140130460C
:10498000FFF7C7FE02212177EEE061793046FDF79F
:10499000C0FA0546012D1FD1207D00F08007608BF5
:1049A00058B141F2883072490880802F02D103212A
:1049B00021770CE00521217709E032206C4908803D
:1049C000802F02D10921217701E00721217730468C
:1049D000FDF790FA208205E0032D03D10B2121770A
:1049E0000521A174C0E02379A2893046A168FFF7B0
:1049F00004FE04212177B7E021793046FDF789FADA
:104A00000546012D01D109212177042D02D16078BD
:104A100020700FE0032D02D10B2121770AE03046F0
:104A2000FDF768FA218A401A51490988884201D95C
:104A30000B21217798E00121627906F56B7000EB7C
:104A4000421041766379A2893046A168FFF72AFEB9
:104A50000621217788E086E061793046FDF759FA32
:104A60000546012D02D1072121770FE0042D04D145
:104A7000607820700C21217708E0022D02D10521F9
:104A8000217703E0032D01D10B2121776CE02379FD
:104A9000002211463046FFF7B0FD0821217763E080
:104AA00021793046FDF735FA0546012D04D16078AD
:104AB00020700D21217718E0032D02D10B212177E1
:104AC00013E03046FDF716FA218A401A2849098872
:104AD000884202D90B21217707E0042D05D16078A7
:104AE00020700421A1744FF003083DE0617906F5C0
:104AF0006B7000EB4110407E80F00101627906F599
:104B00006B7000EB4210417663790022114630460B
:104B1000FFF7C8FD0A21217726E061793046FDF7CD
:104B2000F8F90546012D04D1607820700D21217718
:104B300008E0022D02D10921217703E0032D01D1E4
:104B40000B21217710E0A07B401CC1B2A173022988
:104B500002DC0121217705E00821A1746078207032
:104B60004FF0020800E000BF00BF4046BDE8F08102
:104B70009C00002070B592B005460C460126A07836
:104B80000A287AD2DFE800F00528375D667A97B404
:104B9000D1DB082221462846FFF7A0FED8B994F8B9
:104BA0002910A1712846FDF7F3F90120A070A07922
:104BB0000021CDE90010617900231A46284600F053
:104BC00069FFA0790021CDE90010217900231A4660
:104BD000284600F05FFFB5E0122221462846FFF785
:104BE0007DFE38B9D4F88000C16904F122008847FD
:104BF0000220A070A6E001222146284601F0E5F936
:104C0000F0B9022001F0BCFB0120A41CA077D4F86D
:104C10007E10086A804703202070002000900190D9
:104C2000A27FA1780346284600F034FF00200090C0
:104C30000190A27FA41E61790346284600F02AFF56
:104C400080E0092221462846FFF71AFE08B9042011
:104C5000A07077E0E28E21462846FFF711FE58B992
:104C6000D4F8800004F1500204F13E01436A04F1DB
:104C7000340098470520A07064E062E094F83000AA
:104C800088B1FF20009094F8302002AB21462846DE
:104C9000FFF740FE70B9D4F88000816A02A8884707
:104CA0000620A07006E0D4F88000816A27A088471B
:104CB0000620A07046E094F8310088B1FF200090F3
:104CC00094F8312002AB21462846FFF723FE70B945
:104CD000D4F88000C16A02A888470720A07006E0C7
:104CE000D4F88000C16A19A088470720A07029E085
:104CF00094F8320088B1FF20009094F8322002AB83
:104D000021462846FFF706FE70B9D4F88000016BF3
:104D100002A888470820A07006E0D4F88000016B44
:104D20000AA088470820A0700CE094F8392021469A
:104D3000284601F05DF908B90920A07002E00026BC
:104D400000E000BF00BF304612B070BD4E2F4100E2
:104D50002DE9F04106460F4614461D46DDF8188041
:104D6000304601F0AFFA002001F094FA21463046B7
:104D7000FFF7FEFCE567C4F8808039463046FDF752
:104D8000D3F8D4F8801008688047304601F084FAE0
:104D9000BDE8F08170B505460C4621212175FF2143
:104DA00061750021E1822183618300231A46214637
:104DB0002846FFF745FC70BD2DE9F04105460E463B
:104DC0001446012714B1012C12D108E010480378D1
:104DD000C27831462846FFF7E4FB074609E00C4855
:104DE0004378827831462846FFF7DBFB074600E030
:104DF00000BF00BF07480068401C0649086008461D
:104E00000068042800D904273846BDE8F081000076
:104E1000AC2200205800002010B5024600200023DC
:104E2000014C237010BD00009C2200202DE9F041B0
:104E300005460F46002601242846FDF7A5F820B3B5
:104E4000154801782846FDF769F806460D2E01D071
:104E500002241CE0114800681149884216D10F480D
:104E6000406810494968884211D10C48007B08B954
:104E700000240CE00948007B012801D1012406E050
:104E80000648007B022802D1022400E002240648E2
:104E9000C4732046BDE8F081AC2200208C220020A3
:104EA000555342536C2200209C220020012812D12D
:104EB0000D490978491C0C4A1170114609780A29D4
:104EC00005DA0621094A11700121D1700AE00A2190
:104ED000064A117006E0022803D10A21034A117024
:104EE00000E000BF70470000740000209C220020FA
:104EF00070B505460C46A1212175FE216175002182
:104F0000E1822183012161830123034A214628464E
:104F1000FFF796FB70BD0000B42200202DE9F0479A
:104F200081460F463E46012403254FF000084846BF
:104F3000FDF72AF8002878D05E4800780B2875D253
:104F4000DFE800F0060D1E5566798A999E44B00090
:104F5000484600F05FFA012056490870A5E039463E
:104F60004846FFF717FF044614B90220514908705C
:104F7000032C04D102204F4948700920087094E0A6
:104F800039464846FFF7B4FF0446BCB94A48007AA0
:104F9000494981F80802084690F8080200280ADD0D
:104FA0004648007838B9012044490870D6F8801086
:104FB000086C804779E003203E490870032C04D137
:104FC00003203C494870092008706EE07379002284
:104FD00039464846FFF7E5FA04463CB90020364911
:104FE00081F8080233484078324908705DE048464D
:104FF00000F086FC05463DB904202E4908700020CB
:105000002F490870002402E02846FFF74FFF4CE0CC
:10501000484600F097FB05464DB905202549087024
:10502000002027490870002404E03FE03CE02846C7
:10503000FFF73CFF39E0484600F09CFA05463DB9D1
:1050400008201C49087000201D490870002402E057
:105050002846FFF72BFF28E0484600F0E1FB054615
:105060002DB91448407813490870002402E02846FE
:10507000FFF71CFF19E03946484600F023F814E01A
:10508000D6F88010C86B804700F0FF08B8F1000F19
:1050900003D108200749087003E0B8F1010F00D1DF
:1050A000062402E0042400E000BF00BF2046BDE863
:1050B000F08700009C220020AC2200208800002005
:1050C000740000202DE9F0478046894600244046C0
:1050D000FCF75AFF00287DD0C548007909287AD20C
:1050E000DFE800F079051251A3FDFCFBFA00C1488E
:1050F00043781F22C0494046FFF724FA0120BC49EB
:1051000048710220087170E1BA4841784046FCF7C6
:1051100000FF0446012C26D10020B8490860022077
:10512000B3494871B448007B00F08007B2488068FA
:10513000A8B1B1488068B2490860AD488068B149FB
:10514000086008460068B0490860802F03D103203A
:10515000A749087116E00420A549087112E005204E
:10516000A34908710EE0022C04D1A1484079A0495E
:10517000087107E0042C05D10120A449087008201B
:105180009B49087131E19B4801784046FCF7C1FE1C
:105190000446012C03D09648407903283AD00020D9
:1051A0009649086003209249487192488088944942
:1051B0000968884219D28F4803788288914801682B
:1051C0004046FFF78FF98B4880888D490968081A97
:1051D0008B4901E00AE107E1086086488088894937
:1051E00009680844874908601EE08548006818B9C6
:1051F00005207F49087117E07E48037880480088C1
:1052000082B2804801684046FFF76CF900207C4973
:10521000086009E0042C07D100207C4908700720B1
:105220007349087105204871DFE0724841784046B3
:10523000FCF76FFE0446012C3BD100206F4908604B
:1052400004206B4948716B48C0886D4909688842E1
:105250001AD268484378C2886A4801684046FFF716
:1052600071F968480068684908606248C088654903
:1052700009680844634908605E48C0886049096855
:10528000081A5F49086042E05D48006818B90520C7
:10529000574908713BE0574843785948008882B223
:1052A000584801684046FFF74DF90020544908600E
:1052B0002DE0022C21D153480068534909688842E7
:1052C00012D04C484378C288C088DFF838C1DCF877
:1052D00000C0ACEB000103E074E059E037E017E0F8
:1052E0004046FFF72FF912E042484378C28845480C
:1052F00001684046FFF726F909E0042C07D1012098
:105300004249087008203A490871052048716CE04C
:105310000520374948713E4888603F2088810D2626
:1053200004E000203A498855701EC6B2002EF8D11C
:105330000020374908702F4803782D483F228168A4
:105340004046FFF7CFF80620294908714DE029486B
:1053500001784046FCF7DDFD0446012C0FD100200A
:10536000264908600520224948710846807808705F
:1053700049464046FFF75AFD1D49C87307E0042C13
:1053800005D10020214908700720194908712CE037
:10539000002249464046FFF70FFD054665B91B4808
:1053A0000078022803D108201149087109E010484B
:1053B00040790F49087104E0042D02D102200C4904
:1053C000C87312E0012249464046FFF7F5FC054646
:1053D00025B9074840790649087104E0042D02D137
:1053E00002200349C87300E000BF00BFBDE8F0879A
:1053F0009C220020AC2200206C22002058000020BB
:105400005C00002060000020640000206800002094
:105410008C22002010B504462046FCF7B5FD48B1AB
:105420000748084908600848486000204873012080
:105430000649C8700020064908600649087010BD7A
:10544000555342436C220020504030209C220020C3
:10545000580000207400002070B504460D46104826
:10546000407860B10E484178204601F0FCF90C48C4
:1054700041782046FFF7B6F90020094948700848EE
:10548000007860B106480178204601F0ECF9044844
:1054900001782046FFF7A6F900200149087070BD89
:1054A000AC2200207CB506460D462C4694F84300FD
:1054B000082856D194F84500502852D194F852004B
:1054C00000F0800038B194F852002949C870B4F84F
:1054D0005400888006E094F8520025498870B4F89A
:1054E0005400C88094F85A0000F0800038B194F855
:1054F0005A001F49C870B4F85C00888006E094F830
:105500005A001B498870B4F85C00C880184881783C
:105510003046FEF7D4FF164948700846C178304639
:10552000FEF7CDFF124908700846C0880221CDE978
:1055300000102120035D94F820200D48417830466A
:1055400000F02EFB0A4880880221CDE900102120BE
:10555000035D94F8202006480178304600F020FBD7
:1055600003E0D4F88010086C804700207CBD000068
:10557000AC22002070B5054603262846FCF704FD42
:10558000002855D02B48C078012802D002284DD1E0
:1055900027E03F2028498860802008730A2088730C
:1055A00026482449886005208870102405E00021E1
:1055B00021480F300155601EC4B2002CF7D11A20CB
:1055C0001D49C8733F211C484174C1740120194909
:1055D0000871072008700320C8730220C8700326D2
:1055E00025E01448C07B80B91448807800F0800022
:1055F00018B101201249087302E000201049087315
:1056000001200C49C87000260FE00A48C07B012821
:1056100003D10849C870012607E00648C07B02286C
:1056200003D101200349C870022600E000BF00BF7B
:10563000304670BD9C2200206C220020C82400202F
:10564000B8240020FFB581B007460E461D46032052
:10565000394908703846FCF797FC002867D037486E
:10566000C078012802D002285FD139E03448856033
:105670008020334908730A208873304886601024DC
:1056800005E000212E480F300155601EC4B2002CE9
:10569000F7D128202A49C8739DF80F102848417473
:1056A0009DF80E1081749DF80D10C1749DF80C10BA
:1056B0000175C5F34F2000909DF8011020488175B9
:1056C0009DF80010C17501201C4908710720087061
:1056D0000320C8730220C87003201749087025E012
:1056E0001648C07B50B93846FCF74EFC30B101205B
:1056F0001249C87000201049087015E00F48C07B9F
:10570000012807D13846FCF73FFC18B101200B49AE
:10571000C87009E00948C07B022805D1012007496B
:10572000C87002200449087000E000BF00BF0248B2
:10573000007805B0F0BD0000890000209C22002008
:105740006C22002070B5054603262846FCF71CFC99
:1057500000285AD02E48C078012802D0022852D101
:1057600023E008202B498860802008730A20887372
:1057700029482749886004208870102405E000210A
:1057800024480F300155601EC4B2002CF7D12520EB
:105790002049C87301201E490871072008700320A2
:1057A000C8730220C87003262EE01948C07BC8B910
:1057B000194800781949C870174840788870164809
:1057C000807848701448C07808701348817913486D
:1057D00041721148C0791149087201200C49C87002
:1057E00000260FE00A48C07B012803D10849C87091
:1057F000012607E00648C07B022803D101200449A6
:10580000C870022600E000BF00BF304670BD000037
:105810009C2200206C220020C8240020B8240020F4
:1058200070B5054603262846FCF7AEFB00285DD080
:105830002F48C078012802D0022855D12BE03F2004
:105840002C498860802008730A2088732A482849D8
:10585000886008468078487006208870102405E02B
:10586000002124480F300155601EC4B2002CF7D12E
:1058700003202049C87300211E4801743F21C174D0
:1058800001201B490871072008700320C8730220FB
:10589000C870032629E01648C07BA0B916480178D5
:1058A0001648C171144841781448817112488178B2
:1058B000124841711048C0781049087101200C4904
:1058C000C87000260FE00A48C07B012803D10849B0
:1058D000C870012607E00648C07B022803D10120DA
:1058E0000349C870022600E000BF00BF304670BD0B
:1058F0009C2200206C220020C8240020B824002014
:1059000070B5054603262846FCF73EFB002846D026
:105910002448C078012802D002283ED124E000208B
:105920002149886008730620887320481D498860D3
:105930003F20888103208870102405E000211A4848
:105940000F300155601EC4B2002CF7D1002016495B
:10595000C873012013490871072008700320C87319
:105960000220C870032619E00E48C07B20B9012030
:105970000C49C87000260FE00A48C07B012803D1FB
:105980000849C870012607E00648C07B022803D1F9
:1059900001200449C870022600E000BF00BF304665
:1059A00070BD00009C2200206C2200208C22002070
:1059B0002DE9FF4182B007460E461D464FF0030811
:1059C0003846FCF7E1FA00285BD03048C07801285F
:1059D00002D0022853D138E02D48856000202C49A0
:1059E00008730A20887329488660102405E0002186
:1059F00027480F300155601EC4B2002CF7D12A2071
:105A00002349C8739DF81310214841749DF8121062
:105A100081749DF81110C1749DF810100175C5F3C3
:105A20004F2001909DF80510194881759DF80410CC
:105A3000C175012015490871072008700320C8733B
:105A40000220C8704FF003081AE01048C07B28B944
:105A500001200E49C8704FF000080FE00B48C07BD2
:105A6000012802D10949C87008E00848C07B022813
:105A700004D101200549C8704FF0020800E000BFC2
:105A800000BF404606B0BDE8F08100009C22002027
:105A90006C2200202DE9F04704460D4617461E46AD
:105AA000DDE9089827B104F56B7000EB451007702D
:105AB00004F56B7000EB4510C088404508D0B8F184
:105AC000000F05D004F56B7000EB4510A0F80680C0
:105AD00004F56B7000EB4510C078B04205D026B1DC
