:020000040800F2
:10000000489300209D010008E51B0008991A00088C
:10001000E11B0008BF0E00089D69000800000000F9
:100020000000000000000000000000009121000816
:100030009518000800000000D11C000805230008E6
:10004000B7010008B7010008B7010008B7010008B0
:10005000B7010008B7010008B7010008B7010008A0
:10006000B7010008B7010008B7010008B701000890
:10007000B7010008B7010008B7010008B701000880
:10008000B7010008B7010008B7010008B701000870
:10009000B7010008B7010008B7010008B701000860
:1000A000B7010008B7010008B7010008B701000850
:1000B0002D25000835250008B7010008B701000804
:1000C000B7010008B7010008B7010008B701000830
:1000D000B70100086D280008B7010008B701000843
:1000E000B7010008B7010008B7010008B701000810
:1000F000B7010008B7010008B7010008B701000800
:10010000B7010008B7010008B7010008B7010008EF
:10011000B7010008B7010008B7010008B7010008DF
:10012000B7010008B7010008B7010008B7010008CF
:10013000B7010008B7010008B7010008B7010008BF
:10014000B7010008B7010008B7010008B7010008AF
:10015000B7010008B7010008B7010008F12900083D
:10016000B7010008B7010008B7010008B70100088F
:10017000B7010008891C0008B7010008B701000892
:10018000B7010008B7010008DFF80CD000F064FBED
:1001900000480047B993000848930020064880476C
:1001A00006480047FEE7FEE7FEE7FEE7FEE7FEE75C
:1001B000FEE7FEE7FEE7FEE7892300088901000865
:1001C00040EA01039B0703D009E008C9121F08C0D9
:1001D000042AFAD203E011F8013B00F8013B521E59
:1001E000F9D27047D2B201E000F8012B491EFBD2D0
:1001F00070470022F6E710B513460A460446194632
:10020000FFF7F0FF204610BD421C10F8011B00292B
:10021000FBD1801A704710B5002200E0521C835CAD
:100220008C5CA34201D1002BF8D1D8B2E1B2401AC4
:1002300010BD034611F8012B00F8012B002AF9D15B
:10024000184670470246C9B200E0401C0378002BF4
:10025000FBD102E003788B4203D0401E9042F9D2DA
:100260000020704770B5064606F05CFC0468054641
:100270000A220021304600F0C7F82C6070BD00F063
:10028000004230F000400AD0C10D01F56071C0F3AA
:10029000160042EA0151C20840071143704700208E
:1002A0000146704701F0004330B421F0004150EAAC
:1002B000010206D00A0DA2F56072C1F31301002AF3
:1002C00002DC30BC00207047440F44EAC104C10086
:1002D000E01830BC00EBC25000F0CEB830B50B4691
:1002E000014600202022012409E021FA02F59D4266
:1002F00005D303FA02F5491B04FA02F52844151E3A
:10030000A2F10102F1DC30BD2DE9F05F05460020CD
:1003100092469B4688460646814640241BE0284676
:1003200041464746224600F0B8FA53465A46C01A9C
:10033000914110D311461846224600F09FFA2D1A1B
:1003400067EB01084F4622460120002100F096FA93
:1003500017EB00094E41201EA4F10104DFDC4846E2
:1003600031462A464346BDE8F09F00000FB4002303
:1003700000B589B00CA900910B996FF00042CB60D9
:100380001E4B06931E4B07930423CDE901321D4AF1
:10039000089202466B46002000F044FB09B05DF86D
:1003A00014FB70B586B006464FF0FF300091CDE9E2
:1003B0000101002015460C4604903246694604A807
:1003C000FFF7D4FF02460498211825B108B108466A
:1003D00000E020462860049800280DD0002A02DDA5
:1003E0000098884208D0081B0094CDE901043246E9
:1003F000694604A8FFF7BAFF06B070BD5D0C00089F
:100400007B0C0008E90800082DE9F04791460F46EB
:1004100080460446002614F8015B2DB100F060FA16
:100420000068405DC007F6D12B2D02D02D2D18D0CD
:10043000641E4A463946204600F030FC27B1396830
:10044000A14201D1C7F8008071054FF002040BD51D
:100450004042002803DD06F065FB0460A007BDE80C
:10046000F08746F48066E4E70028F8DA06F05AFBE5
:1004700004606FF00040F2E70029A8BF7047401CFD
:10048000490008BF20F00100704710B4B0FA80FCAA
:1004900000FA0CF050EA010404BF10BC704749B1E7
:1004A000CCF1200421FA04F411FA0CF118BF012157
:1004B00021430843A3EB0C01CB1D4FEA00614FEA37
:1004C000102042BF002010BC704700EBC350104406
:1004D0000029A4BF10BC7047401C490008BF20F091
:1004E000010010BC70472DE9FE4F804681EA0300F1
:1004F000C00F0C46009021F0004123F00045B8EBFE
:100500000200A94105D24046214690461C460B46B2
:10051000024623F00040104347D0270DC7F30A00DE
:10052000C3F30A510290401A019040286BDAC3F3DA
:10053000130040F4801B0098924620B10023D2EBB8
:10054000030A63EB0B0B01985946C0F14002504679
:1005500000F094F906460D4650465946019A00F0BF
:10056000ACF910EB08006141002487EA115284EADB
:10057000E7731A4340D0009A62B3019A012A4FEA06
:10058000075215DC001B61EB02014FF0004202EA4A
:100590000752CDE90042001C41F5801132462B463E
:1005A00000F0DAFB03B0BDE8F08F40462146F9E7E2
:1005B000001B61EB0201001C41F5801300185B4138
:1005C0002018A2F5001747EB030140EAD570B619D1
:1005D0006D4111E06D084FEA360645EAC0754FEAF5
:1005E0000752001B61EB0201001C41F58011490814
:1005F0004FEA30000019514132462B4603B0BDE8A6
:10060000F04F00F09ABB0098012240000023D0EB8D
:10061000020263EBE073009821464FEAE074B8EB06
:10062000000061EB0401E9E783F000435BE781F040
:10063000004158E72DE9FE4F81EA030404F000442D
:1006400021F0004100944FF0000B23F0004350EAEA
:1006500001045ED052EA03045BD0C3F30A54C1F331
:100660000A552C44A4F2F3340194A0FB0254C1F3C4
:10067000130141F48011C3F3130343F4801301FB0E
:10068000024400FB034E840A970A44EA815447EA75
:100690008357A4FB076802958D0A05FB07854FEA7F
:1006A000932C04FB0C542705029D4FEA065847EA99
:1006B0001637B5EB08056EEB070C870E920E47EA6E
:1006C000811742EA8312A7FB0201B6EB0B0164EB30
:1006D00000042B0D43EA0C335E1844EB1C50DA4641
:1006E0005146E7FB0201C5F313044FEA0B3343EA1B
:1006F00014534FEA0432019C43EA0603A4F10C04AC
:100700000294009CCDE900B400F026FB03B0BDE8E4
:10071000F08F00200146F9E72DE9F04D81EA03044E
:1007200004F0004B21F0004514464FF0000A23F07E
:10073000004150EA050220D054EA01021DD0C5F361
:100740000A570246C5F31303C1F31300C1F30A5657
:1007500040F4801543F48013A7EB0608101BD6461F
:1007600008F2FD3873EB050002D308F1010801E03F
:1007700092185B41B8F1000F03DA00200146BDE892
:10078000F08D00204FF48011064684460EE0171BC2
:1007900073EB050705D3121B63EB050306434CEA15
:1007A000010C49084FEA300092185B4150EA0107FA
:1007B000EDD152EA030012D082EA040083EA050177
:1007C000084305D0101BAB4106D20122002306E0EE
:1007D00000224FF0004302E06FF0010253101AEBC9
:1007E00006004CEB085110EB0A0041EB0B01BDE891
:1007F000F04D00F0A2BAC1F30A52C1F3130140F266
:10080000FF3341F480119A4202DA0020014670471A
:1008100040F233439A42A2F2334202DC524200F0E9
:100820003CB800F02BB8000030B5041E71F1000494
:1008300004DB4FF00044404264EB0101141E73F1ED
:10084000000405DB1C464FF00043524263EB0403F7
:10085000994208BF904230BD064C074D06E0E06863
:1008600040F0010394E8070098471034AC42F6D3F7
:10087000FFF78EFCB8490308D8490308202A04DB97
:10088000203A00FA02F1002070479140C2F12003A3
:1008900020FA03F3194390407047202A04DB203AE2
:1008A00021FA02F00021704721FA02F3D040C2F190
:1008B00020029140084319467047202A06DBCB17D7
:1008C000203A41FA02F043EAE07306E041FA02F30B
:1008D000D040C2F120029140084319467047000001
:1008E000004870476C49030810B50446FFF7F8FF4D
:1008F0000068005D00F0010010BD00002DE9FF4F11
:10090000087883B09946FF2805D0491C2D2804D0CB
:100910000024002008E000200BE00124F9E700EBB0
:10092000800003EB4000491C0B78FF2BF7D104B18A
:10093000404200230293147819461D462D2C01D005
:100940002B2C04D1521C2D2C13D000240294AA4627
:100950001478FF2C0FD00A25A3FB057801FB058135
:100960004FF0000C03FB0C11521CE3194AEB010180
:10097000EEE70124EAE7814453EA010002D019F5C9
:10098000C87F06DA03980021C0E9001107B0BDE86E
:10099000F08F0025AE4E2F46DFF8B882184600F0E3
:1009A00037FACDE90001B9F1000002DAC9F100041B
:1009B00000E004460023A74A1AEB030B42EB045A5B
:1009C00012E0E00707D02A46334638464146FFF793
:1009D00031FE074688462A46334610461946FFF739
:1009E00029FE05460E466410002CEAD1DDE900011F
:1009F000B9F1000F5A46534606DAFFF78DFE3A4624
:100A00004346FFF789FE05E0FFF714FE3A464346EA
:100A1000FFF710FE029A0AB181F00041039AC2E981
:100A20000001B3E72DE9FF4F1F468DB0D7E901461E
:100A30004FF0FF382E2045464FF000090B90B96962
:100A40006D1C0E988847396A824688470028F6D17F
:100A5000BAF1FF3F0AD024F4D064002E11DDBAF1C0
:100A60002B0F08D0BAF12D0F0BD102E0404611B088
:100A70008DE744F48064B9696D1C0E9888478246FE
:100A8000761E6946600501D52D2000E02B208DF8EB
:100A9000000001F1010B0DF1200809E0B9696D1C9E
:100AA0000E98884782460F9844F40074761E0560BD
:100AB000002E02DDBAF1300FF0D00B998A453ED1FD
:100AC00044F0800406E00F99681CA9F1010944F480
:100AD00000740860B9696D1C761E0E9888478246BE
:100AE0003028F0D02BE00B998A4505D1200603D49D
:100AF00044F08004761E18E0504606F013F908B35F
:100B00000DF11301761E44F400748B4508D2AAF14E
:100B100030000BF8010B200607D5A9F1010003E016
:100B2000200602D409F101008146A00502D50F99E3
:100B3000681C0860B9696D1C0E9888478246002EB3
:100B4000D1DC53E0002E51DDBAF1650F02D0BAF1CD
:100B5000450F4BD1A00549D5B9696D1C24F44074EB
:100B6000761E0E9888478246002E0CDD2B2804D076
:100B7000BAF12D0F07D144F48074B9696D1C0E9839
:100B800088478246761EE00501D52D2100E02B2105
:100B900008F8011BCDF82C8021E00DF12901761E0B
:100BA00044F4007488450CD2AAF1300010F0FF0024
:100BB00088F8000002D10B99884509D908F101088D
:100BC00006E0E00501D5244801E042F20F708146BD
:100BD000B9696D1C0E98884782460F980560002EF3
:100BE00004DD504606F09EF80028D6D1F9690E982B
:100BF0008847FF208BF8000088F80000002006904E
:100C000007904B466A4608A906A8FFF777FEA0059D
:100C100002D46FF001002AE714F0240F0AD0E00795
:100C200014D1DDE906123868031D3B600068C0E995
:100C300000120BE0DDE90601FFF734FB0146E00797
:100C400004D13868021D3A600068016028460EE74A
:100C5000000014400000F03FF1D8FFFF426842B1AD
:100C6000016811F8013B23B1521EC0E90012184679
:100C700070470121C160881E704742685AB1C3683D
:100C8000016843B983688B4205D0491E521CC0E9F4
:100C90000012002070474FF0FF3070472DE9F05FE1
:100CA00082460078002715468B460AF10104B946B2
:100CB000302801D09DB113E014F8010B01277828EA
:100CC00003D0582801D045B10AE00DB1102D07D14D
:100CD0000027102514F8010B02E0082500E00A2582
:100CE0000026B0460EE005FB080005FB06F10127D3
:100CF00001EB10461FFA80F8B6F5803F00D3B946E5
:100D000014F8010B294600F075F80028EBDABBF166
:100D1000000F05D00FB1641E00E05446CBF8004030
:100D2000B9F1000F06D005F0FDFE02210160C81EDA
:100D3000BDE8F09F48EA0640FAE710B5141E73F1CB
:100D4000000408DA401C41F1000192185B411A438B
:100D500001D120F0010010BD2DE9F04D92469B46D7
:100D600011B1B1FA81F202E0B0FA80F2203290467D
:100D7000FFF784FD04460F4640EA0A0041EA0B01F2
:100D800053465A46084313D0114653EA010019D07E
:100D9000C8F140025046FFF780FD05460E4650461A
:100DA00059464246FFF76AFD084305D0012004E09A
:100DB00020463946BDE8F08D0020054346EAE0763E
:100DC0002C4337430A986305E40AA0EB080000228D
:100DD000FD0A44EA47540A3002D500200146E9E7FB
:100DE000010510196941DDE9084500196941BDE8AF
:100DF000F04DA2E73A2800D2303820F02002412AF4
:100E000001D3A2F13700884201D34FF0FF30704781
:100E10000EB540F2334202920022CDE90022134681
:100E2000FFF79AFF03B000BD70B505460C460848B1
:100E30000560204600F00EF800BF05480068002855
:100E4000FBD100214FF0804001F09BFB70BD000002
:100E5000DC0000203EB5044600214FF0804001F048
:100E600090FB00220121880701F0F3FB022C02D144
:100E70000B20019004E0012C02D142F6DF600190CA
:100E80000520ADF800000020ADF80800ADF8020024
:100E900069464FF0804001F02FFC0121880701F0E6
:100EA0006DFB0121880701F05DFB012211469007CF
:100EB00001F0CFFB0121880701F063FB3EBD00BFBD
:100EC000FEE72DE9F04305460E464FF6FF7448F263
:100ED000050817E015F8010B00F01DFE814684EAB5
:100EE000092408270BE004F4004018B188EA440004
:100EF00084B203E04FF6FF7000EA44047F1E002F27
:100F0000F1D100BF301EA6F10106E3D1204600F06A
:100F1000EFFDBDE8F08300002DE9F04F99B00446E5
:100F20000D460026002016901790189013901490EC
:100F300015900027062113AA16ABCDE90032CDE9A2
:100F4000021064231A460521204607F047FF074692
:100F5000052F76DBBDF85810081908F09FFA12909B
:100F6000BDF85810091D081908F08DFA1190BDF848
:100F70005810891D081908F086FA8046BDF85A10E5
:100F8000081908F080FA8146BDF85A10C91C0819E2
:100F900008F079FA8246BDF85A10891D081908F040
:100FA00072FA834600200D900E900F901090BDF8BD
:100FB000500000280BDDBDF85000102807DABDF8FE
:100FC0005020BDF85C0001190DA8FFF7F9F80020CA
:100FD00009900A900B900C90BDF8520000280BDD90
:100FE000BDF85200102807DABDF85220BDF85E00A7
:100FF000011909A8FFF7E4F8002007900890BDF850
:10100000540000280BDDBDF85400082807DABDF8AD
:101010005420BDF86000011907A8FFF7D1F807A810
:1010200009A90DAA8DE8000FCDE90421069000E082
:1010300007E006A12846DDE9113205F049FD86B238
:1010400000BF304619B0BDE8F08F00002530346491
:10105000253032642530326420253032643A253020
:1010600032643A253032642C25732C25732C257379
:1010700000000000F0B5ADF2F44D05460E4600202C
:10108000109011901290D5F805001090D5F8090035
:10109000119000208DF848006C48006820B110A91C
:1010A0006B48FFF7B8F898B16A48008801280FD15B
:1010B00010A96748FFF7BDF810A800F0FDFE6649CB
:1010C000088008460088401C088000205F490860AE
:1010D000614803885E4A61A1644805F0F9FC5E48F6
:1010E00003885B4A62A113A805F0F2FCB0A90020B6
:1010F00007F064FB044634B1214662A005F0D8FC39
:101100000DF2F44DF0BD65A11DA807F041FC0446A9
:10111000052C0DD161A007F09EFA044694B121463A
:1011200060A005F0C5FC0021084607F047FBE7E793
:1011300044B1214661A005F0BBFC0021084607F040
:101140003DFBDDE70122002113A807F06FF9122211
:1011500013A926A807F04CFB0446002C67D13D4894
:101160000088012863D13948006880B9202259A13C
:1011700008A8FFF725F808A8FFF746F807461CABB4
:101180003A4608A926A807F0C9FC044600BF26A8CD
:10119000299907F089F90446052E12DD4021684699
:1011A000FFF727F869462846FFF7B6FE0746002FE7
:1011B00006DD1CAB3A46694626A807F0AFFC04469C
:1011C00000BF84B93CA001680F911CAB02220FA99B
:1011D00026A807F0A3FC044624B91F48018845A0AF
:1011E00005F066FC00BF26A807F04EF91748006816
:1011F000401C1649086008460068B0F5967F01D388
:10120000002008600122114613A807F00FF90446D8
:1012100044B9012213A926A807F0EAFA10B926A8B2
:1012200007F032F90021084607F0C8FA68E70A48D3
:1012300001883AA005F03CFC26A807F025F900211A
:10124000084607F0BBFA00BF5AE70000180000206C
:1012500022110020E2000020160000205325732DEB
:10126000253033642E637376000000002B110020BC
:101270002F6373762F5325732D253033642E6373BC
:1012800076000000B9D2D4D8CEC4BCFECFB5CDB361
:10129000CAA7B0DC20282564290D0A002F637376C5
:1012A00000000000B4B4BDA8637376C4BFC2BCCA5A
:1012B000A7B0DC20282564290D0A0000B4F2BFAADB
:1012C000637376C4BFC2BCCAA7B0DC2028256429DA
:1012D0000D0A00005365727669636520446174618C
:1012E00054696D652C544F432C436F6E64312C4E02
:1012F0006F0D0A007061676531342E74302E74787A
:10130000743D22253033642E637376CEC4BCFED088
:10131000B4C8EBB3C9B9A622FFFFFF0070616765CF
:1013200031342E74302E7478743D22253033642E7F
:10133000637376CEC4BCFED0B4C8EBCAA7B0DC22BF
:10134000FFFFFF00F0B5ADF2CC4D05460E46002084
:101350000690079008905E490870D5F80500069041
:10136000D5F80900079000208DF820005948006842
:1013700020B106A95848FEF74EFF98B1574800889B
:1013800001280FD106A95448FEF753FF06A800F024
:1013900049FE5349088008460088401C0880002008
:1013A0004C4908604E4803884B4A4EA1514805F00D
:1013B0008FFB4B480388484A4FA109A805F088FBDA
:1013C000A6A9002007F0FAF9044634B121464FA03F
:1013D00005F06EFB0DF2CC4DF0BD52A113A807F045
:1013E000D7FA0446052C0DD14EA007F034F9044677
:1013F00094B121464DA005F05BFB0021084607F0A3
:10140000DDF9E7E744B121464EA005F051FB00218C
:10141000084607F0D3F9DDE7122209A91CA807F056
:10142000E7F90446002C44D12C480088012840D11B
:101430002848006880B9182248A16846FEF7C0FE17
:101440006846FEF7E1FE074612AB3A4669461CA81D
:1014500007F064FB044600BF1CA81F9907F024F89E
:101460000446052E06DD721F12AB691D1CA807F08D
:1014700055FB044684B932A00168059112AB0222E3
:1014800005A91CA807F04AFB044624B914480188A2
:1014900038A005F00DFB00BF0E480068401C0D4948
:1014A000086008460068B0F5967F07D30020086002
:1014B00004E00B48018839A005F0FAFA1CA806F0F0
:1014C000E3FF0021084607F079F900BF82E700003A
:1014D000100000200C00002000110020040000205B
:1014E000140000205325732D253033642E74787436
:1014F00000000000091100202F7478742F53257309
:101500002D253033642E747874000000B9D2D4D8FD
:10151000CEC4BCFECFB5CDB3CAA7B0DC20282564AD
:10152000290D0A002F74787400000000B4B4BDA81F
:10153000747874C4BFC2BCCAA7B0DC202825642953
:101540000D0A0000B4F2BFAA747874C4BFC2BCCA4A
:10155000A7B0DC20282564290D0A000044617461CD
:101560005E54696D655E544F435E4464315E4E6FF8
:101570000D0A00007061676531342E74302E747866
:10158000743D22253033642E747874CEC4BCFED0F2
:10159000B4C8EBB3C9B9A622FFFFFF00706167654D
:1015A00031342E74302E7478743D22253033642EFD
:1015B000747874CEC4BCFED0B4C8EBCAA7B0DC2229
:1015C000FFFFFF000246094B9A4201D2084801E0A2
:1015D0000648103801F000531BB1064B0B40C360A6
:1015E00002E0044B0B40836070470000106402402F
:1015F000006002407D0F7D0F21B1026842F00102C0
:10160000026003E0026822F00102026070470000FD
:10161000016821F0010101600021016041608160E9
:10162000C1600161212141614A49884204D13D21C3
:10163000484A103A91608CE046491831884205D1F9
:101640004FF47461434A103A916082E0414930316D
:10165000884205D14FF474113E4A103A916078E007
:101660003C494831884205D14FF07461394A103AFB
:1016700091606EE037496031884204D13649354A7D
:10168000103AD16065E033497831884204D133495A
:10169000304A103AD1605CE02E499031884204D142
:1016A0002F492C4A103AD16053E02A49A831884288
:1016B00005D14FF03D51274A103AD16049E0294900
:1016C000884204D13D21274A083A116041E025496A
:1016D0001831884205D14FF47461224A083A1160EA
:1016E00037E020493031884205D14FF474111D4A4A
:1016F000083A11602DE01B494831884205D14FF06E
:101700007461184A083A116023E016496031884232
:1017100004D11149134A121F11601AE0114978319E
:10172000884204D10D490F4A121F116011E00D4982
:101730009031884204D10A490A4A121F116008E018
:101740000849A831884204D14FF03D51054A121F83
:1017500011607047106002403D000020400F0020E3
:1017600000003D2010640240014600200A6802F09B
:1017700001020AB1012000E00020704701464868DC
:1017800080B2704730B503460A46002000240B4D56
:10179000AB4201D20A4901E00849103902F0005574
:1017A0000DB14C6800E00C68064D2C4004EA0205BF
:1017B0000DB1012000E0002030BD000010640240A7
:1017C000006002407D0F7D0F10B500220268134BB0
:1017D0001A40CC680B6823434C6923438C6923432C
:1017E000CC6923430C6A23434C6A23438C6A23430A
:1017F0004C6B23438C6B23431A430260426922F0F3
:101800000702D1E90B3423431A4342610B69436059
:101810004B6883608B68C36010BD00003F801CF084
:1018200010B500F039FA00F023FE00F0E1FD10BD24
:1018300070B505460C46FF2C16DA2246294611489B
:10184000FEF7BEFC00211048FFF7D6FE00BF0E4891
:10185000FFF78AFF0028FAD121460B4800F018F85C
:1018600001210948FFF7C8FE09E008490648FFF7CB
:1018700089FF20B105490448FFF7A4FE00E0F4E722
:1018800000BF70BD2F210020A06402400000202076
:10189000416070477047000008B50F480F4B104A71
:1018A000002100900F4801F0BBFE13E00C490D48E9
:1018B00002F024FF00F042F90B480078012809D11A
:1018C0000A4804F0A3FE002007490870FF210748DA
:1018D000FEF78FFCEAE700008C000020600000208B
:1018E000AC1F0020001A0020E7000020302000205C
:1018F000F0B50A4600210023002400BF3DE0012589
:1019000005FA01F3156805EA03049C4234D1056821
:101910004F000326BE40B543056015794E00B54023
:101920000668354305601579012D02D01579022D21
:1019300016D185684F000326BE40B54385605579B2
:101940004E00B540866835438560456801268E4067
:10195000B5434560456896798E40B6B235434560DB
:10196000C5684F000326BE40B543C560D5794E001B
:10197000B540C6683543C560491C1029BFD3F0BDCA
:10198000F0B5002300244D07ED0E02FA05F3CE104A
:1019900000F1200555F826504E07F70E0F26BE40E1
:1019A000B543CF1000F1200646F82750CE1000F1C5
:1019B000200555F8265045EA0304CE1000F1200515
:1019C00045F82640F0BD41837047018370470146CA
:1019D0004869806880B2704708B50146D1F8CC00EC
:1019E000006800900098C0F3414008BD024602F232
:1019F0009B30405C7047024602F5547050F821005D
:101A0000704770B504460E4600250021C4F8101337
:101A100000BF0BE0002104F5457040F825103C3074
:101A200040F825103C304155681CC5B20F2DF1DB44
:101A30000821A4F8B2133146204603F04BFE20469D
:101A400003F052FA204603F011F90121204603F079
:101A5000ADFE204603F0A3F9204603F09EFA0020D5
:101A600070BD0146D1F81003704710B504462046FA
:101A700003F00FFE002010BD70B504460D46002196
:101A800004F29B304155113000EB4510416129466D
:101A9000204603F0ADFC70BD09A100200BE00A5602
:101AA000124B9A8000BF114A128802F04002002AAD
:101AB000F9D0421CD0B22A28F1D300BFFEE70000C3
:101AC0000D0A456E74657220486172644661756CDA
:101AD000745F48616E646C65722C20537973746511
:101AE0006D2048616C742E0D0A000000001001404A
:101AF00010B50246002000210AE001238B4013406C
:101B00002BB1C1F10F040123A3409BB21843491C20
:101B10001029F2DB10BD10B50246002000210AE0BA
:101B200001238B4013402BB1C1F107040123A340D3
:101B3000DBB21843491C0829F2DB10BD10B5094877
:101B4000007800B910BD0848007800B1FAE700201D
:101B5000044908704FF400510448FFF736FF00BFF6
:101B6000F0E70000F4000020F50000200010024023
:101B700010B54FF400510548FFF725FF0120044937
:101B8000087014200349087010BD000000100240C6
:101B9000F4000020F50000201CB50121102000F009
:101BA00099F84FF46040009001208DF80400032064
:101BB0008DF8050069460948FFF79AFE4FF4005179
:101BC0000648FFF702FF4FF480410448FFF7FDFE8F
:101BD0004FF400410148FFF7F8FE1CBD0010024021
:101BE00000BFFEE77047000070B5002100230F2200
:101BF000C4781CB3174C246804F4E064C4F5E064B2
:101C0000C4F30721C1F10404E3B20A4144789C40C3
:101C1000E1B28478144021430C07210E0E4C057864
:101C20006155047804F01F050124AC4005786D115E
:101C3000AD0005F1E025C5F8004109E0047804F0A5
:101C40001F050124AC40054D0678761145F8264065
:101C500070BD00000CED00E000E400E080E100E079
:101C600002490143024A1160704700000000FA0572
:101C70000CED00E0024A0A400243024B1A60704732
:101C800080FFFF1F08ED00E010B5024802F09CFB4A
:101C900010BD0000001A0020002004E00B4921F8CC
:101CA0001000411C88B2B0F57A7FF7DB002009E014
:101CB000C0F57A718AB200F57A71044B23F81120CD
:101CC000411C88B2B0F57A7FF2DB7047A423002074
:101CD0007047000029B1064A12680243044B1A609B
:101CE00004E0034A12688243014B1A607047000007
:101CF0003038024029B1064A12680243044B1A6088
:101D000004E0034A12688243014B1A6070470000E6
:101D10004038024029B1064A12680243044B1A6057
:101D200004E0034A12688243014B1A6070470000C6
:101D30002038024029B1064A12680243044B1A6057
:101D400004E0034A12688243014B1A6070470000A6
:101D50004438024029B1064A12680243044B1A6013
:101D600004E0034A12688243014B1A607047000086
:101D700024380240F0B5002100220024022500266C
:101D80000223324F3F6807F00C0121B1042905D02E
:101D9000082937D105E02E4F076036E02D4F076048
:101DA00033E02A4F3F1F3F68C7F38056274F3F1F3E
:101DB0003F6807F03F036EB1264FB7FBF3F7DFF83C
:101DC0008CC0ACF1040CDCF800C0CCF3881C07FB21
:101DD0000CF40CE01E4FB7FBF3F7DFF870C0ACF16A
:101DE000040CDCF800C0CCF3881C07FB0CF4174F84
:101DF0003F1F3F68C7F301477F1C7D00B4FBF5F729
:101E0000076002E0124F076000BF00BF0F4F3F683E
:101E100007F0F0010909104F7A5C0768D740476066
:101E20000A4F3F6807F4E051890A0B4F7A5C476814
:101E3000D7408760054F3F6807F46041490B064F64
:101E40007A5C4768D740C760F0BD000008380240A0
:101E50000024F40000127A002D0000200FB410B509
:101E6000A2B025A80190802102A8019B249A04F029
:101E700043FE044600200190002C03DD214602A809
:101E800000F004F822B010BC5DF814FB10B5024657
:101E9000002000BF0AE0135C064CA38000BF054B86
:101EA0001B8803F04003002BF9D0401C8842F2D37A
:101EB00010BD0000001001402DE9F043ADF5297D73
:101EC00080464FF000091CA9002006F077FC04466C
:101ED00044B121463DA004F0EBFD00200DF5297D25
:101EE000BDE8F0833FA113A806F052FD0446052C7F
:101EF00013D13CA006F0AFFB04464CB121463BA0F9
:101F000004F0D6FD0021084606F058FC0020E5E765
:101F100034A113A806F03CFD0446CDF844D020209F
:101F20001290002C47D13BE09DF8340000F01000E7
:101F300000B135E01198007808B1119801E00DF179
:101F4000350005462E212846FEF77CF9074637B3B3
:101F50002CA13846FEF75FF908BB287853281ED11C
:101F60002846FEF751F90E2819D3687A2D2816D184
:101F7000D5F801000890D5F80500099000208DF8EB
:101F8000280005F10A00FEF76DF90646414608A84B
:101F9000FEF741F918B94E4501DD1FFA86F900BF79
:101FA0000BA913A806F030FD041E08D19DF83500DA
:101FB0000028B9D103E0214614A004F079FD0021E6
:101FC000084606F0FBFB484688E70000B9D2D4D8A3
:101FD000B4E6B4A2C9E8B1B8CAA7B0DC2028256429
:101FE000290A00002F63737600000000B4B4BDA876
:101FF000637376C4BFC2BCCAA7B0DC20282564299D
:102000000A0000002E63737600000000B4F2BFAA3D
:10201000637376C4BFC2BCCAA7B0DC20282564297C
:102020000A0000002DE9F043ADF5297D80464FF010
:1020300000091CA9002006F0C1FB044644B121465A
:102040003DA004F035FD00200DF5297DBDE8F083AD
:102050003FA113A806F09CFC0446052C13D13CA01C
:1020600006F0F9FA04464CB121463BA004F020FDED
:102070000021084606F0A2FB0020E5E734A113A8E2
:1020800006F086FC0446CDF844D020201290002CA7
:1020900047D13BE09DF8340000F0100000B135E07E
:1020A0001198007808B1119801E00DF1350005464E
:1020B0002E212846FEF7C6F8074637B32CA138462E
:1020C000FEF7A9F808BB287853281ED12846FEF74A
:1020D0009BF80E2819D3687A2D2816D1D5F801005F
:1020E0000890D5F80500099000208DF8280005F12A
:1020F0000A00FEF7B7F80646414608A8FEF78BF837
:1021000018B94E4501DD1FFA86F900BF0BA913A8C7
:1021100006F07AFC041E08D19DF835000028B9D1DC
:1021200003E0214614A004F0C3FC0021084606F099
:1021300045FB484688E70000B9D2D4D8B4E6B4A23B
:10214000C9E8B1B8CAA7B0DC20282564290A000074
:102150002F74787400000000B4B4BDA8747874C4FF
:10216000BFC2BCCAA7B0DC20282564290A00000031
:102170002E74787400000000B4F2BFAA747874C49E
:10218000BFC2BCCAA7B0DC20282564290A00000011
:102190007047000010B5ADF5167D1148006810B904
:1021A0000DF5167D10BD0F4803880F4A0FA1684634
:1021B00004F08EFC09A9002006F000FB044624B1BF
:1021C00021460FA004F074FCEAE70122114668469C
:1021D00006F02CF90021084606F0F0FA00BFDFE710
:1021E0001800002016000020221100202F637376B3
:1021F0002F5325732D253033642E63737600000032
:10220000B9D2D4D8CEC4BCFECFB5CDB3CAA7B0DC4A
:1022100020282564290D0A000CB5002001900090AB
:102220003448006840F480303249086000BF3148CB
:10223000006800F4003000900198401C0190009864
:1022400018B90198B0F5A04FF1D12A48006800F400
:10225000003010B10120009001E0002000900098B3
:10226000012846D123484030006840F08050214981
:10227000403108602048006840F480401E490860F2
:102280001C48083000681B4908310860084600688F
:1022900040F4004008600846006840F4A050086020
:1022A0001648091F0860081F006840F08070091F69
:1022B000086000BF0F48006800F000700028F9D0E7
:1022C00040F205600E4908600A480830006820F0B6
:1022D00003000849083108600846006840F0020021
:1022E000086000BF03480830006800F00C000828B0
:1022F000F8D10CBD0038024000700040085440077F
:10230000003C024010B500F001F810BD10B51948AE
:10231000006840B117480068401E1649086010B9AF
:10232000012015490870002408E004EB4401134A19
:1023300002EB810005F0A5F8601CC4B2042CF4DBAC
:102340000F480068401C0E490860084600686FF09E
:102350000041884202D100200949086009480078FC
:10236000401CC0B2074908700A2801DB0020087031
:1023700010BD000020000020240000204411002097
:10238000280000202C00002010B51548006840F4FB
:102390007000134908601348006840F001001149BB
:1023A000086000200F49083108600E4800680E4997
:1023B00008400C4908600D48091D0860081F0068A6
:1023C00020F48020091F0860002006490C310860B5
:1023D000FFF722FF4FF0006001498039086010BD0F
:1023E00088ED00E000380240FFFFF6FE10300024C8
:1023F00000B58FB001218805FFF76CFC1948FFF785
:1024000007F900BF1748FFF7AFF90028FAD14FF0DE
:1024100040600090144801901448029040200390BE
:102420004FF4FA600490002005904FF4806006900D
:1024300040000790800008904011099000020A9027
:1024400000200B9003200C9000200D900E90694608
:102450000448FFF7B9F901210248FFF7CDF80FB0A2
:1024600000BD00007064024040000140A423002031
:1024700000B58BB001210846FFF75CFC012110205C
:10248000FFF728FC4FF48040099002208DF82800C7
:1024900003208DF8290000208DF82A0001208DF8F6
:1024A0002B0009A91F48FFF723FA01220E211D481E
:1024B000FFF766FAA720ADF818000020ADF81A0063
:1024C0004FF4FA7007900020ADF820008DF822003C
:1024D00006A9154800F010F96020ADF804000120AD
:1024E000ADF80600002003900220ADF8100001A90D
:1024F0000D4800F0B7F808210B4800F0EFF8012173
:10250000094800F02FF801221103074800F087F86E
:102510000121054800F035F80121034800F070F86A
:102520000BB000BD001002400000014010B502F0E9
:1025300073FB10BD10B50121084800F079F860B1B7
:102540000121064800F01AF805480078002804DD4B
:1025500003480078401E0249087010BD0004004086
:10256000F500002021B1028842F08002028004E0E0
:1025700002884FF67F731A4002807047CA43028276
:10258000704721B1028842F00102028004E0028813
:102590004FF6FE731A400280704700001FB50121FC
:1025A0000220FFF7A7FB40F2E73002905320ADF87E
:1025B00004000020ADF80600ADF80C0001A90F489A
:1025C00000F09AF8012211460C4800F042F801216F
:1025D0000A48FFF7D6FF4FF4A060FFF741FB1D202C
:1025E0008DF8000001208DF801008DF802008DF8B3
:1025F00003006846FFF7F8FA1FBD00000004004022
:1026000031B1B0F8442042F40042A0F8442005E083
:10261000B0F84420C2F30E02A0F8442070471AB16B
:1026200083890B43838102E083898B4383817047D5
:1026300030B50246002000230024158A05EA010374
:10264000958905EA010413B10CB1012000E00020D6
:1026500030BD1AB183890B43838102E083898B43A8
:102660008381704770B5002200230024058C4EF64C
:10267000FF7635400584038C8488828B48F6FF758D
:102680002A404FF6FF452A400D884FF6FF7606EAAE
:1026900005252A434DF6FF752B408D8906EA053541
:1026A0002B434D8806EA05352B430A4DA84202D03C
:1026B000094DA84208D14BF6FF752C400D8A4FF604
:1026C000FF7606EA85152C43848082838D68056435
:1026D000038470BD00000140000401400A4600214F
:1026E000818B4FF2FF7319404FF6FF7303EA022309
:1026F000194381837047000000220288184B9842DA
:102700000ED0184B98420BD0B0F1804F08D0164B2A
:10271000984205D0154B984202D0154B984204D1EF
:102720004FF68F731A404B881A43124B984207D0CA
:10273000114B984204D04FF6FF431A400B891A43BD
:1027400002804B68C3620B880385054B984202D018
:10275000044B984201D18B7A038601238382704710
:102760000000014000040140000400400008004057
:10277000000C0040001000400014004000B589B07B
:1027800008210806FFF776FA4FF4A060FFF768FA11
:1027900025208DF8200001208DF8210000208DF8E3
:1027A000220001208DF8230008A8FFF71DFA01215F
:1027B0000920FFF78FFA01211020FFF7BBFA294803
:1027C00000F0B0F902A800F0D6FA684600F08EF9E1
:1027D00002208DF81C008DF81D0000208DF81E00D1
:1027E00001208DF81F004002069006A91E48FFF741
:1027F0007FF8072209211C48FFF7C2F84FF48060D8
:10280000069006A91848FFF773F807220A21164810
:10281000FFF7B6F86946134800F058F94FF4E13075
:1028200002900020ADF80C00ADF80E00ADF81000DD
:10283000ADF814000C20ADF8120002A9094800F010
:1028400027FA012240F22551064800F0FCF940F237
:102850002661044800F02BF90121024800F04CF9F0
:1028600009B000BD001001400000024010B540F268
:1028700025511D4800F0BDF950B31B4880881B4905
:102880001B4A126888541A480068401C184908609E
:102890000846006802280FD308460068801E1349C6
:1028A000085C232808D112480068401E085C2A28CA
:1028B00002D101200F4908700D480068642802D930
:1028C00000200B49086040F22551074800F0EFF85E
:1028D00040F22771044800F08CF920B140F22771D2
:1028E000014800F0E4F810BD001001404023002032
:1028F000F0000020EC00002000B58FB00121880519
:10290000FFF7E8F91848FEF783FE00BF1648FEF708
:102910002BFF0028FAD14FF020600090134801905F
:102920001348029000200390FF200490002005909F
:102930004FF48060069000200790089009904FF4B3
:1029400080300A9000200B9003200C9000200D9006
:102950000E9069460448FEF737FF01210248FEF752
:102960004BFE0FB000BD000028640240041401407B
:102970003020002000B58FB001218805FFF7AAF9AB
:102980001848FEF745FE00BF1648FEF7EDFE00288A
:10299000FAD14FF020600090134801901348029044
:1029A00040200390FF200490002005904FF48060A9
:1029B000069000200790089009904FF480300A900C
:1029C00000200B9003200C9000200D900E90694683
:1029D0000448FEF7F9FE01210248FEF70DFE0FB094
:1029E00000BD0000A0640240041401402F2100201B
:1029F00010B540F22441234800F0FBF858B340F2F0
:102A00002441204800F053F81E4800F0ABF900B212
:102A10001D49088000211D48FEF7EEFD1C491B489A
:102A2000FEF7D0FD1948FEF7A9FEC0F1FF0000B285
:102A3000154908800846B0F90000002802DD012091
:102A400014490870FF211148FEF722FF01210F48A9
:102A5000FEF7D2FD14E040F226610A4800F0C9F802
:102A600070B140F22661074800F021F80A49074892
:102A70007830FEF7A7FD002104487830FEF708FF04
:102A800010BD000000140140E8000020286402404E
:102A9000400F0010E700002000003D2001F400720C
:102AA000B2F5007F00D100BFCA430280704710B565
:102AB0000022002340F66A14A14200D100BF0A128E
:102AC00001249440A3B2DC43048010BD10B502463B
:102AD0000020108A20F470600B884C8823438C8877
:102AE0002343CC8823431843108210BD002101806A
:102AF00041808180C180704721B1828942F40052B7
:102B0000828104E082894DF6FF731A40828170470A
:102B10001AB1838A0B43838202E0838A8B438382C8
:102B20007047000010B504462548844208D10121B1
:102B30001020FFF70FF900211020FFF70BF93EE0FE
:102B40002048844209D101214804FFF7E3F800211D
:102B50004FF40030FFF7DEF831E01B48844209D122
:102B600001218804FFF7D6F800214FF48020FFF7F9
:102B7000D1F824E01548844209D10121C804FFF7A7
:102B8000C9F800214FF40020FFF7C4F817E01048FF
:102B9000844209D101210805FFF7BCF800214FF458
:102BA0008010FFF7B7F80AE00A48844207D10121F4
:102BB0002020FFF7CFF800212020FFF7CBF810BD31
:102BC000001001400044004000480040004C00401C
:102BD000005000400014014002460020B1F5007F83
:102BE00000D100BF13880B400BB1012000E0002092
:102BF000704770B50246002400230025002040F6EF
:102C00006A16B14200D100BFC1F3421501F01F03A3
:102C1000012606FA03F3012D02D19689334006E01E
:102C2000022D02D1168A334001E0968A33400C12FD
:102C3000012606FA04F41688344013B10CB10120C1
:102C400000E0002070BDF0B50346002400260025FA
:102C5000002040F66A17B94200D100BF1846C1F300
:102C6000421401F01F06012707FA06F5012C01D1D5
:102C70000C3004E0022C01D1103000E014301AB105
:102C800007682F43076002E00768AF430760F0BDA5
:102C90002DE9FF4705460E460024A14600BFA04689
:102CA000B08900B100BF2C8A24F44054F08804435A
:102CB0002C82AC8941F20C608443B088318908438E
:102CC000718908430443AC81AC8A24F44074B08910
:102CD0000443AC826846FFF74DF82048854202D095
:102CE0001F48854202D1DDF80C9001E0DDF8089024
:102CF000A88900F4004040B109EBC90000EB0910BD
:102D000031684900B0FBF1F707E009EBC90000EBBF
:102D1000091031688900B0FBF1F76420B7FBF0F0CF
:102D200004012009642101FB1078A88900F4004007
:102D300040B1322000EBC800B0FBF1F000F007001A
:102D4000044308E0322000EB08106421B0FBF1F0EE
:102D500000F00F0004432C81BDE8FF870010014004
:102D60000014014001468888C0F308007047C1F391
:102D70000802828070474FF4165101600021818063
:102D8000C18001810C21418100218181704770B592
:102D900005460E46284600F0BEF904464FF6FF7081
:102DA000844205D046F4004105F28C5020F81410FE
:102DB000E0B270BD2DE9F04105460E4617461C46AF
:102DC000012105F56B7000EB4410817005F56B7007
:102DD00000EB4410C66005F56B7000EB4410076112
:102DE00005F56B7000EB4410007E30B9002105F54D
:102DF0006B7000EB4410017205E0022105F56B7069
:102E000000EB4410017221462846FEF735FE0020F3
:102E1000BDE8F0812DE9F04105460E4617461C46F7
:102E2000002105F56B7000EB4410817005F56B70A7
:102E300000EB4410C66005F56B7000EB44100761B1
:102E400005F56B7000EB4410407E28B905F56B70FA
:102E500000EB4410017205E0022105F56B7000EBF8
:102E60004410017221462846FEF706FE0020BDE808
:102E7000F0812DE9F04105460C4616461F46022119
:102E80002175012161750021E1822683618306F0AD
:102E90008000802805D105F56B7000EB47100176A6
:102EA00005E0002105F56B7000EB4710417600232B
:102EB0001A462146284600F02BF8BDE8F08101466D
:102EC0000122C1F81023002070472DE9F04105468A
:102ED0000E4617461C46012105F56B7000EB4410A9
:102EE0008170022105F56B7000EB4410017205F54D
:102EF0006B7000EB4410C66005F56B7000EB44107E
:102F0000076121462846FEF7B7FD0020BDE8F081A5
:102F10002DE9F04180460C4615461E460127E07813
:102F2000012802D0022820D108E032462946204656
:102F300001F0D9FC0220E070012717E0207F0D2866
:102F400005D10120E0700021217700270CE0207FCF
:102F50000B2803D10120E070022705E0207F0C2818
:102F600002D10120E070032700E000BF00BF384617
:102F7000BDE8F0812DE9F04105460F4616461C4696
:102F8000002105F56B7000EB4410817005F56B7046
:102F900000EB4410C76005F56B7000EB4410066150
:102FA0002EB9012105F56B7000EB4410417605F553
:102FB0006B7000EB4410407E30B9002105F56B705A
:102FC00000EB4410017205E0022105F56B7000EB87
:102FD0004410017221462846FEF74EFD0020BDE850
:102FE000F08170B505460E461446002105F56B705C
:102FF00000EB44108170032105F56B7000EB441069
:10300000017205F56B7000EB4410C660082105F5F0
:103010006B7000EB4410016121462846FEF72CFD41
:10302000C0B270BD0246022106E0002302F28C50BD
:1030300020F81130481CC1B20829F6DB0020704787
:1030400070B505460C46002020706070A07001200D
:10305000E070012121774021A171002084F8200037
:103060000121212001552179284600F023F86179BA
:10307000284600F01FF8002070BD01460022C1F86C
:1030800010230020704770B504460D46052D01D071
:10309000042D06D1D4F88010486C80470A20207097
:1030A00007E0062D05D10A202070D4F880100868AA
:1030B000804770BD0246082909DA02F28C5030F8C8
:1030C0001100C0F30E0302F28C5020F811300020E2
:1030D00070472DE9F04780460C4616461D46DDE94F
:1030E000089746F08001217506216175E58205F497
:1030F0007F40B0F5407F03D140F20941218301E0D8
:103100000021218367833B464A4621464046FFF71C
:10311000FFFEBDE8F0870246002100BF0AE002F290
:103120008C5030F8110000F4004008B90846704790
:10313000481CC1B20829F2DB4FF6FF70F7E710B563
:1031400002460B88147823440B801378981810BD1E
:103150002DE9FC4104460D461646002704F588700B
:103160004FF4007300222946CDE900062046FFF700
:10317000B0FFB0F1000814D106E004F58870C05D1E
:103180000949C855781C87B2B742F6DB04F5887345
:1031900005F1500205F13E0105F13400009601F001
:1031A000B5F94046BDE8FC81001800202DE9FC413E
:1031B00004460D46164604F588704FF480730022CD
:1031C0002946CDE900062046FFF783FF071E06D1FA
:1031D000324604F5887105F1220001F025FA3846DF
:1031E000BDE8FC812DE9FC470446884615461E468D
:1031F0000A9F04F5887045F4407300224146CDE9EA
:1032000000072046FFF765FFB0F1000905D13A46F7
:10321000314604F5887001F056FA4846BDE8FC874F
:103220002DE9F04106460C464FF00008002500212C
:10323000A174207F0C2876D2DFE800F0FD060F3D58
:10324000466576919AC0D7ED627904F11401304653
:10325000FFF7C7FE02212177EEE061793046FEF7E5
:10326000C5FB0546012D1FD1207D00F08007608B36
:1032700058B141F2883072490880802F02D1032171
:1032800021770CE00521217709E032206C49088084
:10329000802F02D10921217701E0072121773046D3
:1032A000FEF795FB208205E0032D03D10B2121774A
:1032B0000521A174C0E02379A2893046A168FFF7F7
:1032C00004FE04212177B7E021793046FEF78EFB1A
:1032D0000546012D01D109212177042D02D1607805
:1032E00020700FE0032D02D10B2121770AE0304638
:1032F000FEF76DFB218A401A51490988884201D99D
:103300000B21217798E00121627906F56B7000EBC3
:10331000421041766379A2893046A168FFF72AFE00
:103320000621217788E086E061793046FEF75EFB72
:103330000546012D02D1072121770FE0042D04D18C
:10334000607820700C21217708E0022D02D1052140
:10335000217703E0032D01D10B2121776CE0237944
:10336000002211463046FFF7B0FD0821217763E0C7
:1033700021793046FEF73AFB0546012D04D16078ED
:1033800020700D21217718E0032D02D10B21217728
:1033900013E03046FEF71BFB218A401A28490988B2
:1033A000884202D90B21217707E0042D05D16078EE
:1033B00020700421A1744FF003083DE0617906F507
:1033C0006B7000EB4110407E80F00101627906F5E0
:1033D0006B7000EB42104176637900221146304653
:1033E000FFF7C8FD0A21217726E061793046FEF714
:1033F000FDFA0546012D04D1607820700D2121775A
:1034000008E0022D02D10921217703E0032D01D12B
:103410000B21217710E0A07B401CC1B2A1730229CF
:1034200002DC0121217705E00821A1746078207079
:103430004FF0020800E000BF00BF4046BDE8F08149
:103440008400002070B592B005460C460126A07895
:103450000A287AD2DFE800F00528375D667A97B44B
:10346000D1DB082221462846FFF7A0FED8B994F800
:103470002910A1712846FEF7F8FA0120A070A07962
:103480000021CDE90010617900231A46284600F09A
:1034900069FFA0790021CDE90010217900231A46A7
:1034A000284600F05FFFB5E0122221462846FFF7CC
:1034B0007DFE38B9D4F88000C16904F12200884744
:1034C0000220A070A6E001222146284601F0E5F97D
:1034D000F0B9022001F0BCFB0120A41CA077D4F8B5
:1034E0007E10086A80470320207000200090019021
:1034F000A27FA1780346284600F034FF0020009008
:103500000190A27FA41E61790346284600F02AFF9D
:1035100080E0092221462846FFF71AFE08B9042058
:10352000A07077E0E28E21462846FFF711FE58B9D9
:10353000D4F8800004F1500204F13E01436A04F122
:10354000340098470520A07064E062E094F83000F1
:1035500088B1FF20009094F8302002AB2146284625
:10356000FFF740FE70B9D4F88000816A02A888474E
:103570000620A07006E0D4F88000816A27A0884762
:103580000620A07046E094F8310088B1FF2000903A
:1035900094F8312002AB21462846FFF723FE70B98C
:1035A000D4F88000C16A02A888470720A07006E00E
:1035B000D4F88000C16A19A088470720A07029E0CC
:1035C00094F8320088B1FF20009094F8322002ABCA
:1035D00021462846FFF706FE70B9D4F88000016B3B
:1035E00002A888470820A07006E0D4F88000016B8C
:1035F0000AA088470820A0700CE094F839202146E2
:10360000284601F05DF908B90920A07002E0002603
:1036100000E000BF00BF304612B070BD4E2F410029
:103620002DE9F04106460F4614461D46DDF8188088
:10363000304601F0AFFA002001F094FA21463046FE
:10364000FFF7FEFCE567C4F8808039463046FEF798
:10365000D8F9D4F8801008688047304601F084FA21
:10366000BDE8F08170B505460C4621212175FF218A
:1036700061750021E1822183618300231A4621467E
:103680002846FFF745FC70BD2DE9F04105460E4682
:103690001446012714B1012C12D108E01048037818
:1036A000C27831462846FFF7E4FB074609E00C489C
:1036B0004378827831462846FFF7DBFB074600E077
:1036C00000BF00BF07480068401C06490860084664
:1036D0000068042800D904273846BDE8F0810000BE
:1036E000E41100204000002010B502460020002315
:1036F000014C237010BD0000D41100202DE9F041D1
:1037000005460F46002601242846FEF7AAF920B3F5
:10371000154801782846FEF76EF906460D2E01D0B1
:1037200002241CE0114800681149884216D10F4854
:10373000406810494968884211D10C48007B08B99B
:1037400000240CE00948007B012801D1012406E097
:103750000648007B022802D1022400E00224064829
:10376000C4732046BDE8F081E4110020C41100209C
:1037700055534253A4110020D4110020012812D126
:103780000D490978491C0C4A1170114609780A291B
:1037900005DA0621094A11700121D1700AE00A21D7
:1037A000064A117006E0022803D10A21034A11706B
:1037B00000E000BF704700005C000020D411002032
:1037C00070B505460C46A1212175FE2161750021C9
:1037D000E1822183012161830123034A2146284696
:1037E000FFF796FB70BD0000EC1100202DE9F047BB
:1037F00081460F463E46012403254FF00008484607
:10380000FEF72FF9002878D05E4800780B2875D293
:10381000DFE800F0060D1E5566798A999E44B000D7
:10382000484600F05FFA012056490870A5E0394685
:103830004846FFF717FF044614B9022051490870A3
:10384000032C04D102204F4948700920087094E0ED
:1038500039464846FFF7B4FF0446BCB94A48007AE7
:10386000494981F80802084690F8080200280ADD54
:103870004648007838B9012044490870D6F88010CD
:10388000086C804779E003203E490870032C04D17E
:1038900003203C494870092008706EE073790022CB
:1038A00039464846FFF7E5FA04463CB90020364958
:1038B00081F8080233484078324908705DE0484694
:1038C00000F086FC05463DB904202E490870002012
:1038D0002F490870002402E02846FFF74FFF4CE014
:1038E000484600F097FB05464DB90520254908706C
:1038F000002027490870002404E03FE03CE028460F
:10390000FFF73CFF39E0484600F09CFA05463DB918
:1039100008201C49087000201D490870002402E09E
:103920002846FFF72BFF28E0484600F0E1FB05465C
:103930002DB91448407813490870002402E0284645
:10394000FFF71CFF19E03946484600F023F814E061
:10395000D6F88010C86B804700F0FF08B8F1000F60
:1039600003D108200749087003E0B8F1010F00D126
:10397000062402E0042400E000BF00BF2046BDE8AA
:10398000F0870000D4110020E41100207000002016
:103990005C0000202DE9F04780468946002440461F
:1039A000FEF75FF800287DD0C548007909287AD253
:1039B000DFE800F079051251A3FDFCFBFA00C148D5
:1039C00043781F22C0494046FFF724FA0120BC4932
:1039D00048710220087170E1BA4841784046FEF70C
:1039E00005F80446012C26D10020B84908600220C1
:1039F000B3494871B448007B00F08007B248806842
:103A0000A8B1B1488068B2490860AD488068B14942
:103A1000086008460068B0490860802F03D1032081
:103A2000A749087116E00420A549087112E0052095
:103A3000A34908710EE0022C04D1A1484079A049A5
:103A4000087107E0042C05D10120A4490870082062
:103A50009B49087131E19B4801784046FDF7C6FF5C
:103A60000446012C03D09648407903283AD0002020
:103A70009649086003209249487192488088944989
:103A80000968884219D28F48037882889148016872
:103A90004046FFF78FF98B4880888D490968081ADE
:103AA0008B4901E00AE107E108608648808889497E
:103AB00009680844874908601EE08548006818B90D
:103AC00005207F49087117E07E4803788048008808
:103AD00082B2804801684046FFF76CF900207C49BB
:103AE000086009E0042C07D100207C4908700720F9
:103AF0007349087105204871DFE0724841784046FB
:103B0000FDF774FF0446012C3BD100206F4908608B
:103B100004206B4948716B48C0886D490968884228
:103B20001AD268484378C2886A4801684046FFF75D
:103B300071F968480068684908606248C08865494A
:103B400009680844634908605E48C088604909689C
:103B5000081A5F49086042E05D48006818B905200E
:103B6000574908713BE0574843785948008882B26A
:103B7000584801684046FFF74DF900205449086055
:103B80002DE0022C21D1534800685349096888422E
:103B900012D04C484378C288C088DFF838C1DCF8BE
:103BA00000C0ACEB000103E074E059E037E017E03F
:103BB0004046FFF72FF912E042484378C288454853
:103BC00001684046FFF726F909E0042C07D10120DF
:103BD0004249087008203A490871052048716CE094
:103BE0000520374948713E4888603F2088810D266E
:103BF00004E000203A498855701EC6B2002EF8D164
:103C00000020374908702F4803782D483F228168EB
:103C10004046FFF7CFF80620294908714DE02948B2
:103C200001784046FDF7E2FE0446012C0FD100204A
:103C300026490860052022494871084680780870A6
:103C400049464046FFF75AFD1D49C87307E0042C5A
:103C500005D10020214908700720194908712CE07E
:103C6000002249464046FFF70FFD054665B91B484F
:103C70000078022803D108201149087109E0104892
:103C800040790F49087104E0042D02D102200C494B
:103C9000C87312E0012249464046FFF7F5FC05468D
:103CA00025B9074840790649087104E0042D02D17E
:103CB00002200349C87300E000BF00BFBDE8F087E1
:103CC000D4110020E4110020A411002040000020A5
:103CD00044000020480000204C000020500000203C
:103CE000C411002010B504462046FDF7BAFE48B1C5
:103CF00007480849086008484860002048730120C8
:103D00000649C8700020064908600649087010BDC1
:103D100055534243A411002050403020D4110020BC
:103D2000400000205C00002070B504460D4610489D
:103D3000407860B10E484178204601F0FCF90C480B
:103D400041782046FFF7B6F9002009494870084835
:103D5000007860B106480178204601F0ECF904488B
:103D600001782046FFF7A6F900200149087070BDD0
:103D7000E41100207CB506460D462C4694F843001D
:103D8000082856D194F84500502852D194F8520092
:103D900000F0800038B194F852002949C870B4F896
:103DA0005400888006E094F8520025498870B4F8E1
:103DB0005400C88094F85A0000F0800038B194F89C
:103DC0005A001F49C870B4F85C00888006E094F877
:103DD0005A001B498870B4F85C00C8801848817884
:103DE0003046FEF7D4FF164948700846C178304681
:103DF000FEF7CDFF124908700846C0880221CDE9C0
:103E000000102120035D94F820200D4841783046B1
:103E100000F02EFB0A4880880221CDE90010212005
:103E2000035D94F8202006480178304600F020FB1E
:103E300003E0D4F88010086C804700207CBD0000AF
:103E4000E411002070B5054603262846FDF709FE5B
:103E5000002855D02B48C078012802D002284DD127
:103E600027E03F2028498860802008730A20887353
:103E700026482449886005208870102405E0002128
:103E800021480F300155601EC4B2002CF7D11A2012
:103E90001D49C8733F211C484174C1740120194950
:103EA0000871072008700320C8730220C870032619
:103EB00025E01448C07B80B91448807800F0800069
:103EC00018B101201249087302E00020104908735C
:103ED00001200C49C87000260FE00A48C07B012869
:103EE00003D10849C870012607E00648C07B0228B4
:103EF00003D101200349C870022600E000BF00BFC3
:103F0000304670BDD4110020A41100200014002000
:103F1000F0130020FFB581B007460E461D46032072
:103F2000394908703846FDF79CFD002867D03748AE
:103F3000C078012802D002285FD139E0344885607A
:103F40008020334908730A20887330488660102423
:103F500005E000212E480F300155601EC4B2002C30
:103F6000F7D128202A49C8739DF80F1028484174BA
:103F70009DF80E1081749DF80D10C1749DF80C1001
:103F80000175C5F34F2000909DF801102048817500
:103F90009DF80010C17501201C49087107200870A8
:103FA0000320C8730220C87003201749087025E059
:103FB0001648C07B50B93846FDF753FD30B101209B
:103FC0001249C87000201049087015E00F48C07BE6
:103FD000012807D13846FDF744FD18B101200B49EF
:103FE000C87009E00948C07B022805D101200749B3
:103FF000C87002200449087000E000BF00BF0248FA
:10400000007805B0F0BD000071000020D411002040
:10401000A411002070B5054603262846FDF721FDB2
:1040200000285AD02E48C078012802D0022852D148
:1040300023E008202B498860802008730A208873B9
:1040400029482749886004208870102405E0002151
:1040500024480F300155601EC4B2002CF7D1252032
:104060002049C87301201E490871072008700320E9
:10407000C8730220C87003262EE01948C07BC8B957
:10408000194800781949C870174840788870164850
:10409000807848701448C0780870134881791348B4
:1040A00041721148C0791149087201200C49C87049
:1040B00000260FE00A48C07B012803D10849C870D8
:1040C000012607E00648C07B022803D101200449ED
:1040D000C870022600E000BF00BF304670BD00007F
:1040E000D4110020A411002000140020F01300209F
:1040F00070B5054603262846FDF7B3FC00285DD0C1
:104100002F48C078012802D0022855D12BE03F204B
:104110002C498860802008730A2088732A4828491F
:10412000886008468078487006208870102405E072
:10413000002124480F300155601EC4B2002CF7D175
:1041400003202049C87300211E4801743F21C17417
:1041500001201B490871072008700320C873022042
:10416000C870032629E01648C07BA0B9164801781C
:104170001648C171144841781448817112488178F9
:10418000124841711048C0781049087101200C494B
:10419000C87000260FE00A48C07B012803D10849F7
:1041A000C870012607E00648C07B022803D1012021
:1041B0000349C870022600E000BF00BF304670BD52
:1041C000D4110020A411002000140020F0130020BE
:1041D00070B5054603262846FDF743FC002846D067
:1041E0002448C078012802D002283ED124E00020D3
:1041F0002149886008730620887320481D4988601B
:104200003F20888103208870102405E000211A488F
:104210000F300155601EC4B2002CF7D100201649A2
:10422000C873012013490871072008700320C87360
:104230000220C870032619E00E48C07B20B9012077
:104240000C49C87000260FE00A48C07B012803D142
:104250000849C870012607E00648C07B022803D140
:1042600001200449C870022600E000BF00BF3046AC
:1042700070BD0000D4110020A4110020C411002042
:104280002DE9FF4182B007460E461D464FF0030858
:104290003846FDF7E6FB00285BD03048C07801289F
:1042A00002D0022853D138E02D48856000202C49E7
:1042B00008730A20887329488660102405E00021CD
:1042C00027480F300155601EC4B2002CF7D12A20B8
:1042D0002349C8739DF81310214841749DF81210AA
:1042E00081749DF81110C1749DF810100175C5F30B
:1042F0004F2001909DF80510194881759DF8041014
:10430000C175012015490871072008700320C87382
:104310000220C8704FF003081AE01048C07B28B98B
:1043200001200E49C8704FF000080FE00B48C07B19
:10433000012802D10949C87008E00848C07B02285A
:1043400004D101200549C8704FF0020800E000BF09
:1043500000BF404606B0BDE8F0810000D411002047
:10436000A41100202DE9F04704460D4617461E46CD
:10437000DDE9089827B104F56B7000EB4510077074
:1043800004F56B7000EB4510C088404508D0B8F1CB
:10439000000F05D004F56B7000EB4510A0F8068007
:1043A00004F56B7000EB4510C078B04205D026B123
:1043B00004F56B7000EB4510C6702946204600F0EE
:1043C000FBFE0020BDE8F08738B50546002400203C
:1043D0000090284601F01BF9002847D0284601F03C
:1043E00020F90090009808B9002038BD0098C0F36B
:1043F000C00018B1284602F0D3F804430098C0F377
:10440000001018B1284602F018F804430098C0F3D1
:10441000401018B1284601F052FE04430098C0F342
:10442000806018B1284601F071FF04430098C0F382
:10443000406018B1284601F01AFA04430098C0F30E
:10444000006018B1284601F0D1FE04430098C0F383
:10445000407018B1284601F0D1F904430098C0F328
:10446000405018B1284601F0DFF904432046BCE76C
:104470002DE9F04704460D4617461E46DDE908893A
:1044800004F28C5010F8150000F07F0104F56B70F9
:1044900000EB4510417004F28C5010F81500C0F389
:1044A000C01104F56B7000EB4510817004F56B7062
:1044B00000EB4510077004F56B7000EB451080F8B9
:1044C000058004F56B7000EB4510A0F8069004F52C
:1044D0006B7000EB4510C670002104F56B7000EBAB
:1044E0004510017604F56B7000EB451041762EB94E
:1044F000012104F56B7000EB45100171294620463F
:1045000000F05AFE0020BDE8F08700002DE9F04FD2
:1045100085B00646894692461D462C460027B84679
:1045200000BF2878307068787070A978E87801EB5F
:10453000002070802879307168797071A879B07125
:10454000E879F071287A30720E98092864DD092024
:104550000090307902285ADCBB4653E06946204679
:10456000FEF7EDFD0446607804284BD1A07847B2F1
:1045700007EBC70000EB090BE078032842DA21467D
:1045800002A800F08DF84FF000089DF80C000228FA
:1045900038DC32E069462046FEF7D1FD04466078FB
:1045A00005282AD10AEB071000EBC80001901C482F
:1045B0000078B84206D01A490F7002A9584600F098
:1045C0006FF80CE02179607901EB0020154909882A
:1045D000884200DA15E002A9584600F061F8214649
:1045E000019800F04DF82179607901EB00200D4928
:1045F000088008F101004FFA80F89DF80C00404552
:10460000C8DC00BF7088BDF800108842A6DC00201E
:10461000044908800249087005B0BDE8F08F000029
:10462000880000208600002010B50B7803704B78BE
:1046300043708C78CB7804EB032343800B790371B0
:104640004B7943718B798371CB79C371082A16DD5D
:104650000C7A4B7A04EB032303818C7ACB7A04EB3C
:10466000032343810C7B4B7B04EB032383818B7BF4
:104670008373CB7BC3730B7C03744B7C437410BD7F
:104680000A7802704A7842708A788270CA78C2705A
:104690000B794A7903EB022282808A798271704712
:1046A0000A7802704A7842708A788270CA78C2703A
:1046B0000A7902714A7942718A798271CA79C27122
:1046C0000A7A0272704730B513464578032D14D12B
:1046D0000578AD1E9D4202DC0578AD1E00E01D464A
:1046E000ACB2801C002204E0855C0D70491C951C56
:1046F000AAB2A242F8DB00250D7030BD3EB50546DA
:104700000C46022002902846FDF7ABF930B920781C
:1047100020B12078022801D00220207020780B28B8
:1047200075D2DFE800F006109CB44D687B87598C89
:104730008D002846FDF795F920B1012020706420F6
:1047400000F086FAA4E0D4F8801088688047002141
:104750002846FEF71CFB607180212846FEF717FBF8
:1047600020712846FDF781F948BBD4F88010C8684D
:1047700080472846FDF730F9C1B2212001550420B9
:1047800020702122105DD4F8802091698847A0799B
:104790000021CDE900102120035D94F8202021792B
:1047A0002846FFF765FEA0790021CDE90010212001
:1047B000035D94F8202061792846FFF759FE67E0F1
:1047C00021462846FEF73EFE28B9D4F88010486BF3
:1047D0008047082020705BE0D4F88010886B804709
:1047E000012807D1E06F214602682846904708B9A2
:1047F000052020704CE0E06F2146826828469047F3
:1048000002909DF8080018B90620207005E03EE0EF
:104810009DF808102046FEF736FC39E0E06F21468F
:10482000C2682846904702909DF808102046FEF77F
:104830002AFC2DE021462846FEF7F2FC28E027E07E
:1048400021462846FEF7FCFBD4F8801048688047D4
:10485000E06F04F1200142682846904718E0D4F840
:1048600080100869804721462846FEF7E9FBD4F806
:10487000801048688047E06F04F1200142682846B4
:1048800090472846FEF7CEFB0020207000E000BFD6
:1048900000BF3EBD01460020704770B506460C467D
:1048A00015460021217505216175E58200212183CE
:1048B000618300231A4621463046FEF729FB70BD6E
:1048C00070B506460C461546002121750921617513
:1048D000E58200212183618300231A462146304668
:1048E000FEF716FB70BD10B5034618785870072008
:1048F000187099609A8101241C77002010BD000077
:104900002DE9F04106460C461746254668790828E9
:1049100003D1064802F0CCF805E06879032802D1FB
:10492000034802F0C5F8BDE8F0810000154803080F
:10493000374803087047704710B5024802F0B8F8CE
:1049400010BD00005F47030810B5024802F0B0F840
:1049500010BD00007447030810B502A002F0A8F8CB
:1049600010BD00003E20446576696365206E6F745B
:1049700020737570706F727465642E0D0A000000EC
:1049800010B504461CB90A4802F092F80EE0012C5A
:1049900003D1084802F08CF808E0022C03D1064845
:1049A00002F086F802E0054802F082F810BD00002F
:1049B000A7470308C6470308E54703080348030859
:1049C00070B504462546298903A002F071F869896B
:1049D00005A002F06DF870BD3E20564944203A20F3
:1049E00025303458680D0A003E20504944203A20B2
:1049F00025303458680D0A0010B5024802F058F806
:104A000010BD00008C47030810B50848007858B95D
:104A100001200649087006A002F04AF80AA002F038
:104A200047F811A002F044F810BD0000D4000020A7
:104A30003E20555342204F5447204853204D534366
:104A400020486F73740D0A003E2055534220486F72
:104A50007374206C6962726172792073746172740C
:104A600065642E0D0A0000002020202020555342AE
:104A700020486F7374204C696272617279207632BB
:104A80002E312E300D0A00000020704710B504466C
:104A9000214602A002F00CF810BD00003E204D613E
:104AA0006E756661637475726572203A2025737243
:104AB0000D0A000010B502A001F0FAFF10BD0000C1
:104AC0003E204F76657263757272656E7420646500
:104AD0007465637465642E0D0A00000010B5044609
:104AE000214602A001F0E4FF10BD00003E205072FC
:104AF0006F64756374203A2025730D0A000000006E
:104B000010B502A001F0D4FF10BD00003E205553A7
:104B100042485F5553525F526573657444657669C8
:104B20006365200D0A00000010B50446214602A06E
:104B300001F0BEFF10BD00003E2053657269616C3C
:104B4000204E756D626572203A2025730D0A0000B3
:104B500010B5024801F0ACFF10BD0000CF480308BB
:104B6000012070477047704738B504464FF4C06065
:104B7000FDF776F84D208DF8000001208DF801003A
:104B800000208DF8020001208DF803006846FDF733
:104B90002BF838BD1CB5044601210220FDF79AF818
:104BA0004FF44040009003208DF8050002208DF85E
:104BB000040069460948FCF79BFE0C220E210748B9
:104BC000FCF7DEFE0C220F210448FCF7D9FE012180
:104BD0004807FDF77FF800F003F81CBD0004024011
:104BE00008B500214FF00060FDF744F84FF4A060D5
:104BF000FDF736F81C208DF8000001208DF801002B
:104C00008DF802008DF803006846FCF7EDFF0121E6
:104C10000846FDF76FF808BD10B501218807FDF7BC
:104C200007FD88B101218807FDF7A8FC0748006847
:104C300028B106480068401E0449086004E00021CD
:104C40004FF08040FDF79DFC10BD0000DC0000200F
:104C500010B5044601212046FCF7E6F810BD10B55A
:104C6000044602212046FCF7DFF810BD3EB504469D
:104C700000250020029001900090207A012843D165
:104C8000E068806B0190019820F480300190607A98
:104C900028B1019820F4801000F58010019001984F
:104CA000E168886300200290E068C0680290029882
:104CB00020F040000290029820F4801000F580104F
:104CC0000290029820F480000290029820F40030B4
:104CD0000290029820F4002002900298E168C860D7
:104CE000204600F0C9F8E078012843D1009820F070
:104CF0001E000A300090009820F020002030009024
:104D00000098E168886035E0E068C0680290029829
:104D100020F04000403002900298E168C8602046D0
:104D200000F0AAF800200190019820F4803000F5EE
:104D300080300190019820F4802000F580200190BF
:104D4000019820F4002000F500200190019820F443
:104D5000001000F500100190607A28B1019820F44D
:104D6000801000F5801001900198E168886314209C
:104D7000FFF76EFFE07801280FD1E06880680090AF
:104D8000009820F01E000A300090009820F02000CB
:104D9000203000900098E168886028463EBDFEB54E
:104DA0000446002600250020029001900090204635
:104DB000FFF7D8FE0021D4F80C010160207A012809
:104DC00003D1204600F00FFC03E00121204600F053
:104DD0000AFC204600F05DFC6069006800900098C5
:104DE00020F004000090009960690160E07A00BB47
:104DF0004FF40070E168486202986FF30F0000F50D
:104E000000700290029880B200F1807002900298C7
:104E1000E168886201986FF30F0000F5407001901F
:104E2000019880B200F1807001900198E168C1F8AA
:104E300000011021204600F021F9204600F0F8F88A
:104E400000250DE04FF0FF3104F1900050F82500EF
:104E50008160002104F1900050F82500C1606D1CB4
:104E60002078A842EED80121204600F04EF82046D6
:104E700000F0A4F83046FEBDF8B504460026002533
:104E80000020009000BF0320FFF7E9FEE068006902
:104E90000090681C05461349884201D90020F8BDDE
:104EA0000098C00F0028EED00025009820F00100E7
:104EB000401C00900098E168086100BFE06800694C
:104EC0000090681C05460749884200D904E0009814
:104ED00000F001000028F1D100BF0320FFF7BFFE62
:104EE0003046DCE7400D030008B5014600200022F3
:104EF0000092009A22F00102521C0092CA68926845
:104F0000009B9A43CB689A6008BD38B505460C46AD
:104F10000020009021462846FFF725FE284600F095
:104F200088FB00900098C0F3003058B9012C09D1DB
:104F3000009820F4805000F5805000900099D5F83A
:104F4000CC0001600098C0F3003040B13CB900983B
:104F500020F4805000900099D5F8CC000160C82062
:104F6000FFF776FE38BD08B500210091491EC268E2
:104F700051606FF08041C2685161009921F0004199
:104F800001F100410091009921F4006101F50061F7
:104F900000910099C268916108BD08B501460020E2
:104FA00000220092009A22F00102521C0092CA686C
:104FB0009268009B1A43CB689A6008BD38B50446D6
:104FC000002500200090E1688861401EE16848618A
:104FD0002046FFF7C8FFE07820B9009820F01000C5
:104FE00010300090009820F0807000F180700090E8
:104FF000009820F0007000F100700090009820F000
:10500000005000F100500090009820F00800083097
:105010000090009820F4001000F500100090E06867
:105020008069009988430843E1688861284638BD53
:10503000F8B504460025002600200090009820F0D6
:105040001000103000900098E168086100BFE0682F
:1050500000690090701C06460749884200D904E0A8
:105060000098C0F300100028F1D100BF0320FFF723
:10507000F6FD2846F8BD0000400D0300F8B50446D3
:105080000D460026002700200090009820F0200008
:1050900020300090009865F38A1000900098E16835
:1050A000086100BFE06800690090781C0746074966
:1050B000884200D904E00098C0F340100028F1D1E4
:1050C00000BF0320FFF7CBFD3046F8BD400D0300C5
:1050D0000146C868406900F0010070471CB50246EF
:1050E000002000230093009B23F0004303F10043C2
:1050F00000930124009B64F3DC43009302F19003CE
:1051000053F82130009C1C6102F1900353F82130C8
:105110001B680193019B23F0004303F100430193BB
:10512000019B23F08043019302F1900353F8213057
:10513000019C1C601CBD10B586B0024600200023F7
:105140000393019302F1900353F821301B680093FD
:10515000009B23F0004303F100430093009B23F0E6
:10516000804303F180430093009BC3F3814323B149
:10517000009BC3F38143022B0BD1D368DB6A0393FB
:10518000039BC3F307437BB9009B23F000430093C9
:105190000AE053691B690193019BC3F307431BB9E1
:1051A000009B23F00043009302F1900353F8213059
:1051B000009C1C6006B010BD3FB5024600200023D5
:1051C0000024029403940194441E009402F190047C
:1051D00054F82140009DA56000240394D478012C4C
:1051E00004D1039C24F00404241D039402F56B7481
:1051F00004EB4114647934B1012C6AD0022C03D041
:10520000032C38D138E000BF039C24F00104641C57
:105210000394039C24F0080408340394039C24F0B2
:10522000800480340394039C24F4806404F5806437
:105230000394039C24F010041034039402F56B745F
:1052400004EB4114A47834B1039C24F4807404F575
:10525000807403940FE0039C24F0400440340394D2
:1052600002F56B7404EB4114247924B1039C24F0FF
:105270002004203403944EE0039C24F00104641CB9
:105280000394039C24F0100410340394039C24F032
:10529000080408340394039C24F0800480340394AD
:1052A000039C24F4806404F580640394039C24F438
:1052B000007404F50074039402F56B7404EB41145C
:1052C000A4782CB1039C24F4807404F580740394B6
:1052D00021E0039C24F00104641C0394039C24F447
:1052E000007404F500740394039C24F0200420341B
:1052F000039402F56B7404EB4114A47854B1039C3D
:1053000024F0800480340394039C24F4807404F516
:105310008074039400BF00BF02F1900454F8214050
:10532000039DE560012404FA01F35469A4691C4358
:105330005569AC61029C24F0007404F1007402947D
:10534000D468A469029D2C43D568AC610024019403
:1053500002F56B7404EB41142578019C65F39C54B1
:10536000019402F56B7404EB41146578019C65F3BC
:10537000CE24019402F56B7404EB4114A578019CD2
:1053800065F3CF34019402F56B7404EB4114E478B7
:10539000022C01D1012500E00025019C65F3514458
:1053A000019402F56B7404EB41146579019C65F37B
:1053B0009344019402F56B7404EB4114E588019C5D
:1053C00065F30A04019402F56B7404EB41146479EB
:1053D000032C05D1019C24F0005404F100540194E5
:1053E00002F1900454F82140019D256004B030BDC5
:1053F0002DE9F04388B004460D464FF00009C84639
:105400004FF48077002006900790009004F56B70B1
:1054100000EB4510006910B304F56B7000EB45100C
:10542000016904F56B7000EB4510C0880144491E0A
:1054300004F56B7000EB4510C088B1FBF0F086B24C
:10544000BE420DDD3E4604F56B7000EB4510C18891
:10545000714304F56B7000EB4510016100E001261B
:1054600004F56B7000EB4510807850B104F56B705B
:1054700000EB4510C188714304F56B7000EB4510DB
:10548000016104F56B7000EB45100169069861F34A
:1054900012000690069866F3DC40069004F56B70E7
:1054A00000EB4510017A069861F35E70069004F1F6
:1054B000900050F8250006990161E078012809D193
:1054C00004F56B7000EB4510C16804F1900050F8D2
:1054D0002500416104F1900050F825000068079014
:1054E000204600F08CF8079960F35D7107910798EA
:1054F00020F0004000F100400790079820F0804025
:10550000079004F1900050F8250007990160E078B9
:10551000002864D104F56B7000EB451080780028FA
:105520005DD104F56B7000EB45100069002856D082
:1055300004F56B7000EB4510407930B1012821D0A3
:10554000022803D0032839D11BE000BFE068C06AFD
:10555000039004F56B7000EB45100069C01CC0F3AC
:105560008F08039880B240450ADA009820F02000A6
:1055700020300090E068806900990843E168886104
:105580001DE000BF60690069019004F56B7000EBDD
:1055900045100069C01CC0F38F08019880B24045D7
:1055A0000BDA009820F0806000F180600090E068E5
:1055B000806900990843E168886100E000BF00BF8E
:1055C00004F56B7000EB4510008A83B204F56B7034
:1055D00000EB45102A46C168204600F0F7FF484618
:1055E00008B0BDE8F08308B5426912680092009ADD
:1055F00061F301020092009B4269136008BD0146FD
:105600004869806800F0010080F00100704700B533
:1056100002461046FFF75CFD012800D100BD0020C6
:10562000FCE701460020CA685069CA6892691040C8
:10563000704708B50146D1F8CC000068009000988A
:1056400020F004000090009820F0020000900098E4
:1056500020F008000090009820F0200000900098B2
:1056600008BD0146486940697047F0B5034600240B
:10567000D01CC71700EB9777BD10D3F8D06000BFE0
:1056800003E030680860641C091DAC42F9D3084689
:10569000F0BD38B504462046FFF7CBFF00900098D8
:1056A00020F4807000F5807000900099D4F8CC0050
:1056B00001600A20FFF7CCFA009820F48070009077
:1056C0000099D4F8CC0001601420FFF7C1FA012042
:1056D00038BD000070B502460C46002300200025AE
:1056E000D5700125957040259580012C0CD14FF087
:1056F000A0430125D57208251570042555709D1508
:10570000D580022515720EE06CB9274B0025D572A5
:105710000C251570062555704FF4A065D58002251F
:1057200015720125D570D36003F500651561002160
:1057300010E003F5106505EB411602F1180545F878
:10574000216003F5306505EB411602F1540545F87B
:105750002160491C55788D42EBD803F58065556171
:105760004035C2F8CC50002108E003F5A06505EBF8
:10577000411602F1900545F82160491C15788D42CB
:10578000F3D8002108E003F5805505EB013602F15E
:10579000D00545F82160491C15788D42F3D803F5F2
:1057A0006065C2F80C5170BD00000440F8B50446B5
:1057B0000D460026E068C0680090009820F0005078
:1057C0000090009820F080400090012D06D10098B4
:1057D00020F0005000F10050009006E02DB9009834
:1057E00020F0804000F1804000900098E168C8609F
:1057F0003220FFF72DFA3046F8BD000038B50446D8
:10580000002000900748006881682046884700987B
:1058100020F0005000F1005000900098E1684861CD
:10582000012038BD800000200CB50146D1F8900061
:1058300000680090009820F0004000F100400090C7
:10584000009820F0804000F180400090009AD1F84C
:105850009000026000200190019820F4001000F5F3
:10586000001001900198CA68506101200CBD7CB500
:105870000546002400262846FFF7F3FE019000BFEE
:105880001BE0019880B20121A1400840A0B105F1C0
:10589000900050F82400006800900098C0F3C030D9
:1058A00028B12146284600F00DF8064304E02146C1
:1058B000284600F01CFA0643641C2878A042E0D871
:1058C00030467CBD70B586B005460C4605F19000AB
:1058D00050F82460B0680590F0680490DDE9041089
:1058E0000840059005F1900050F8240000680390EE
:1058F000002004900598C0F38000D0B100200190F2
:10590000019820F00400001D01900198B06005F19D
:10591000900050F82400C0680190019820F0020027
:10592000801C019005F1900050F824000199C1609D
:1059300073E00598C0F3401048B100200190019831
:1059400020F02000203001900198B06065E00598BB
:10595000C0F3C00078B305F1900050F82400C0688F
:105960000190019820F00200801C019005F1900048
:1059700050F824000199C160052105F563700155B7
:1059800000200190019820F0100010300190019843
:10599000B06000200190019820F0080008300190CC
:1059A0000198B060059820F010000590E1B22846FB
:1059B000FFF7C1FB31E0FFE70598C0F3802060B33B
:1059C00005F1900050F82400C0680190019820F083
:1059D0000200801C019005F1900050F8240001990C
:1059E000C160E1B22846FFF7A6FB002001900198B4
:1059F00020F01000103001900198B060082105F5EA
:105A00006370015500200190019820F4806000F53A
:105A1000806001900198B06000BF0598C0F34020FD
:105A2000F8B105F1900050F82400C0680190019889
:105A300020F00200801C019005F1900050F8240035
:105A40000199C160E1B22846FFF775FB0020019083
:105A5000019820F4007000F5007001900198B0608A
:105A600042E1059800F00100002871D0E878012893
:105A700012D105F1900050F824000069029005F55C
:105A80006B7000EB441000690299C1F31201411AD6
:105A900005F5547040F82410012105F56370015597
:105AA0000021783840F8241000200190019820F05F
:105AB0000100401C01900198B0600398C0F3814040
:105AC00020B10398C0F3814002282AD105F190004B
:105AD00050F82400C0680190019820F00200801C5A
