:020000040800F2
:10000000E8A900209D010008C5160008CD130008CE
:10001000C1160008B3050008291D000800000000F3
:10002000000000000000000000000000D5180008DB
:10003000B70500080000000069170008D119000882
:10004000B7010008B7010008B7010008B7010008B0
:10005000B7010008B7010008B7010008B7010008A0
:10006000B7010008B7010008B7010008B701000890
:10007000B7010008B7010008B7010008B701000880
:10008000B7010008B7010008B7010008B701000870
:10009000B7010008B7010008B7010008B701000860
:1000A000B7010008B7010008B7010008B701000850
:1000B000B7010008ED1A0008B7010008B7010008F1
:1000C000B7010008B7010008B7010008B701000830
:1000D000B7010008B7010008B7010008B701000820
:1000E000B7010008B7010008B7010008B701000810
:1000F000B7010008B7010008B7010008B701000800
:10010000B7010008B7010008B7010008B7010008EF
:10011000B7010008B7010008B7010008B7010008DF
:10012000B7010008B7010008B7010008B7010008CF
:10013000B7010008B7010008B7010008B7010008BF
:10014000B7010008B7010008B7010008B7010008AF
:10015000B7010008B7010008B7010008B70100089F
:10016000B7010008B7010008B7010008B70100088F
:10017000B7010008B7010008B7010008B70100087F
:10018000B7010008B7010008DFF80CD000F0A0F8B4
:1001900000480047854A0008E8A900200648804733
:1001A00006480047FEE7FEE7FEE7FEE7FEE7FEE75C
:1001B000FEE7FEE7FEE7FEE7291A000889010008CE
:1001C00040EA01039B0703D009E008C9121F08C0D9
:1001D000042AFAD203E011F8013B00F8013B521E59
:1001E000F9D27047D2B201E000F8012B491EFBD2D0
:1001F00070470022F6E710B513460A460446194632
:10020000FFF7F0FF204610BD30B505462A460B46E5
:1002100012F8010B13F8014B08B1A042F8D01CB141
:10022000002802D06D1CF1E7284630BDCAB2401E3E
:1002300010F8011F8A4202D00029F9D1002070472E
:10024000421C10F8011B0029FBD1801A704710B521
:10025000002200E0521C835C8C5CA34201D1002B85
:10026000F8D1D8B2E1B2401A10BD30B50446002032
:10027000034600E05B1C934203D2E05CCD5C401B74
:10028000F8D030BD30B505460020034600E05B1CC9
:10029000934205D2EC5CC85C201A01D1002CF6D147
:1002A00030BD30B50B46014600202022012409E074
:1002B00021FA02F59D4205D303FA02F5491B04FA1F
:1002C00002F52844151EA2F10102F1DC30BD000048
:1002D000064C074D06E0E06840F0010394E8070093
:1002E00098471034AC42F6D3FFF752FF7054010820
:1002F0009054010821B1826842F00102826003E05B
:10030000826822F001028260704700000021084AE2
:100310001168084A1140D0E900231A4383681A4340
:10032000C3681A431143044AC2F80413704700001B
:1003300004230140E030FCFF0020014000B58DB0F7
:100340000121080201F042FA0820019003208DF8F3
:10035000080000208DF80B0001A9174800F0C6FF27
:100360000020039004900590069003A8FFF7CEFFAD
:1003700007A800F014F9002007908DF82000012054
:100380008DF82100002009900A900B9001208DF833
:10039000300007A9094800F077F803230122194625
:1003A000064800F09BF801210448FFF7A3FF03482B
:1003B00000F0F0F80DB000BD000002400020014048
:1003C0000146C86C80B270472DE9F05F82460C464A
:1003D0009346BAF1000F50D100BF00BF00BF00BF6D
:1003E00000BF27480068012804D1FFF7A7FF0020BD
:1003F000234908602348FFF7E3FF064640F6E44040
:100400007043060B4FF47A70B6FBF0F0C5B205EB03
:100410004500C0EBC510A6EBC0006421B0FBF1F0B5
:10042000C7B24FF47A7015FB00F007EBC70101EB80
:10043000071100EB8100301A0A21B0FBF1F8E82027
:1004400015FB00F007EBC70101EB071100EB810082
:1004500008EB880100EB4100A6EB000905F1300034
:10046000207007F13000607008F13000A07009F1D1
:100470003000E0700420BDE8F09F0020FBE70000A2
:10048000600000200020014030B50246002000231B
:100490005068104C20400D790C6844EA0524204334
:1004A000506090680C4C2040D1E903542C438D6877
:1004B0002C434D7944EA450420439060D06A20F4EF
:1004C00070000C7D641EE4B2234340EA0350D06206
:1004D00030BD0000FFFEFFFCFDF7FFC0F0B5044695
:1004E0000D4600200021092D11DDE068A5F10A0666
:1004F00006EB4607072606FA07F18843A5F10A0628
:1005000006EB460603FA06F10843E0600CE02069BA
:1005100005EB4507072606FA07F1884305EB450674
:1005200003FA06F108432061072A0FDA606B561EB2
:1005300006EB86071F2606FA07F18843561E06EBD0
:10054000860605FA06F10843606322E00D2A0FDAF9
:10055000206BD61F06EB86071F2606FA07F1884395
:10056000D61F06EB860605FA06F10843206310E065
:10057000E06AA2F10D0606EB86071F2606FA07F1D0
:100580008843A2F10D0606EB860605FA06F108433C
:10059000E062F0BD816841F08041816070470021D8
:1005A0000160017141718160C160016101210175CA
:1005B000704700BFFEE7704700B587B001210846CD
:1005C00001F0D4F80121102001F000F907220A21DE
:1005D0001F4800F0D3FE072209211D4800F0CEFE7F
:1005E00000208DF81A0001208DF81B0002208DF8E4
:1005F00018000002059002208DF8190005A9144882
:1006000000F074FE02208DF818004002059005A944
:100610000F4800F06BFE4FF4E13001900020ADF880
:100620000800ADF80A00ADF80C00ADF810000C2081
:10063000ADF80E0001A9074801F008FB01210548AB
:1006400001F0EBFA4021034801F0DEFA07B000BDEB
:10065000000002400010014001B504490098086004
:1006600000BF024800680028FBD108BD74000020CC
:1006700010B500F059F900F0D9FB0121002000F07D
:10068000CBFC00F0040028B10348006840F01000E3
:100690000149086010BD000078000020344800685F
:1006A000006800F00040E8B931480068006800F4D4
:1006B0008070B8B12F4800688068401C2D490968D7
:1006C00088602C4800688068012804D128480068A8
:1006D0002849096808602648006826490968486072
:1006E0000120704722480068006800F00040F0B91F
:1006F0001F480068006800F40070C0B11C48006822
:10070000006800F4807090B91948006819490968B8
:1007100008600020174909684860012015490968E8
:10072000886013480068C068114908601DE01048DF
:100730000068006800F00040B8B90D480068006823
:1007400000F4007088B90A480068006800F48070FE
:1007500058B9084800688068401C064909688860E4
:1007600003480068C068024908600020B9E700003B
:10077000840000208800002070B50546012100207B
:1007800000F04AFC00F0040444B10B48007828B99A
:100790000A4804F05DFC0120074908705CB906486E
:1007A000007840B1012006490870044804F03BFC81
:1007B00000200149087070BD7D000020200100204C
:1007C0007C00002030B10749896941F00201054AE7
:1007D000916105E00349896921F00201014A9161B3
:1007E000704700000090024070B50C46134600218F
:1007F000124D286000BF18E000EB41124FF0004599
:10080000156044F2F4555560C1EBC11505EB450583
:1008100004EB850595605D1E8D4204D900EB411502
:100820002035D56000E0D060491C9942E4D3044DE6
:10083000E860044D044E356070BD00008400002067
:1008400000900240CC4300208800002030B10749CE
:10085000896941F40051054A916105E003498969BC
:1008600021F40051014A916170470000009002405C
:1008700030B50C46134600210F4D286000BF15E02F
:1008800000EB41124FF480151560C1EBC11505EB6B
:10089000450504EB850595605D1E8D4204D900EB8E
:1008A00041152035D56000E0D060491C9942E7D35E
:1008B000024D286130BD0000800000200090024001
:1008C00002680A430260704710B50121480600F033
:1008D0005DFF00214FF0007000F058FF10BD01B522
:1008E00081B0002000900198009002E00098401E26
:1008F000009000980028F9D10CBD000008B5002038
:1009000000900848806940F48010064988610846D4
:10091000806900904FF6FF70FFF7E1FF01490098F2
:10092000886108BD009002401CB50121072000F03D
:100930001DFF0121880300F049FF012000F0CCFFDA
:100940000420009003208DF8050002208DF804009B
:1009500000208DF8060001208DF807006946414807
:1009600000F0C4FC0B2202213E4800F007FD0220EB
:10097000009069463C4800F0B9FC0B2201213A483E
:1009800000F0FCFC022000906946364800F0AEFC06
:100990000B220121334800F0F1FC802000906946D1
:1009A000304800F0A3FC0B2207212E4800F0E6FCA3
:1009B0001020009069462C4800F098FC0B2204217E
:1009C000294800F0DBFC202000906946264800F012
:1009D0008DFC0B220521244800F0D0FC4FF4006070
:1009E00000906946214800F081FC0B2211461F4807
:1009F00000F0C4FC4FF48050009069461B4800F0A2
:100A000075FC0B220C21194800F0B8FC4FF4005083
:100A100000906946154800F069FC0B220D2113482F
:100A200000F0ACFC4FF48070009003208DF80500BE
:100A300001208DF8040000208DF806008DF80700D5
:100A40006946084800F052FC4FF48071054800F0F8
:100A5000B8FC3220FFF700FE4FF48071014800F02F
:100A6000B2FC1CBD0000024000080240000402402D
:100A700000200449096801F0010109B1012000E0EA
:100A800000207047009002401EB500210022009215
:100A9000019202920C4A12681268C2F30D42111FB1
:100AA00000910A4A126812680292084A1268126893
:100AB00092680192044A1268D268034B1A609DE85A
:100AC0001C0080E81C001EBD84000020880000205F
:100AD0002DE9F04188B004460F464FF0000800258C
:100AE00000200790B94E029001200190B848056996
:100AF00025F01C0503A800F079FE049EB548864247
:100B000005D3B548864202D245F008051AE0B2483E
:100B1000864205D3AD48864202D245F00C0511E06D
:100B2000AA48864203D3AD48864200D20AE0AB48C9
:100B3000864205D3AA48864202D245F0040501E068
:100B400045F01005A24805614FF4004200213846E7
:100B500000F01CFB10B9002001906AE0A148FFF7EB
:100B6000BEFE2068002850D000BF0298401C0290B2
:100B70000121384600F050FA00F0040018B99A49F3
:100B800002988842F1D398490298884202D1002005
:100B900001904EE0002002904FF480520021384630
:100BA00000F0F4FA08B90020019000BF0298401C40
:100BB00002900121384600F02FFA00F0200018B909
:100BC000894902988842F1D387490298884202D124
:100BD000002001902DE0002002901F21384600F0F7
:100BE0001BFA804608F0100018B14FF40060206234
:100BF00001E00020206208F0040010B100206061D4
:100C000016E04FF48040606112E0206AC0F3CF002C
:100C10006169C1F34F0140EA01020021384600F04A
:100C2000B5FA08B9002001906FF07F40FFF757FE3A
:100C300000BF019820B94FF400602062C0006061DD
:100C40006348056869480540D4E901010843E16843
:100C500008432169084361690843A1690843E169C0
:100C60000843216A0843616A0843A16A0843E16AAC
:100C70000843216B0843616B0843054354480560F2
:100C800005684FF6FF70FFF72AFE51480560D4E96A
:100C90000E010843216C0843616C0843A16C0843B2
:100CA000E16C0843216D0843616D08434849486081
:100CB000084645684FF6FF70FFF711FE444845604F
:100CC0004349A06D8860E06DC860084685694FF6AD
:100CD00041700540B4F86010606E40EA0140A16EBA
:100CE0000843E16E0843216F0843616F08430543E1
:100CF0003748856185694FF6FF70FFF7F0FD34488E
:100D00008561D4E91E0108433149C8610846C569B7
:100D10004FF6FF70FFF7E3FD2D48C5613448856944
:100D200034480540D4E920010843D4F8881008432A
:100D3000D4F88C100843D4F890100843D4F89410D9
:100D40000843D4F898100843D4F89C100843D4F80A
:100D5000A010084305432648856185694FF6FF705A
:100D6000FFF7BDFD22488561D4E929010843D4F885
:100D7000AC100843D4F8B0100843D4F8B41040EADB
:100D80008100D4F8B810084340F400001849086006
:100D9000084605684FF6FF70FFF7A1FD144805608F
:100DA000006840F0800012490860084605684FF668
:100DB000FF70FFF794FD0E4805600198012802D1ED
:100DC00008B0BDE8F0810020FAE700000087930337
:100DD00000800240002D3101C00E160200E1F50531
:100DE00080D1F008FFFF0F00FFFF04000F8120FFFC
:100DF00000900240233FDEF810B50B794C7943EAAE
:100E00000422094B03441A64CB781B068C7843EA0E
:100E100004434C7843EA04230C7843EA0402024B6F
:100E200003445A6410BD00000080024010B5012147
:100E30004FF0606000F09AFCFFF746FD00F022F9E9
:100E400000BFFFF715FE0128FBD01E4800F044F953
:100E500001201C4908600020C8614FF400708862BE
:100E60000020C86288634864C864086548654FF418
:100E7000806048620020C1F880004FF00070C1F827
:100E800084000011C1F88C000020C1F89400C1F862
:100E900098000420C1F8A000C005C1F8A4004012C9
:100EA000C1F8A8008001C1F8AC004012C1F8B00040
:100EB0004000C1F8B80000210248FFF709FE0249CE
:100EC000086010BD480600207800002008B50146E3
:100ED0000020009031B10C48006840F004000A4A3C
:100EE000106005E00848006820F00400064A106021
:100EF0000548006800904FF6FF70FFF7F0FC024ACB
:100F00000098106008BD00000080024008B501464E
:100F10000020009031B10C48006840F008000A4AF7
:100F2000106005E00848006820F00800064A1060DC
:100F30000548006800904FF6FF70FFF7D0FC024AAA
:100F40000098106008BD00000080024070B50246A5
:100F50000023002500242E480068006800F00040AF
:100F600008B1002070BD2A48016840F2F450824266
:100F700008DD92FBF0F392FBF0F600FB162010B1B7
:100F80005B1C00E00123012B0CD1086840F04050AD
:100F90000860C2F30C004860086840F00040086038
:100FA000C96826E0002422E0086820F0405008606C
:100FB0001CB9086840F08050086040F2F450486066
:100FC000581EA0420DD1086840F000500860581E1D
:100FD000C0EBC01000EB4000A2EB8005C5F30C0095
:100FE0004860086840F000400860C968641C9C4282
:100FF000DAD3074801600748406900F0040020B1D7
:101000000420044E7061002070600120AAE70000F7
:10101000800000200090024018B502460B460021D7
:10102000002000901548016901F01C014FF4784040
:1010300000EAC22001434FF4F86000EA8310014344
:1010400021F0020141F001010C48016100BF00984C
:10105000401C00900948016901F0010018B1084CDA
:101060000098A042F3D3064C0098A04201D1002082
:1010700018BD0248406980B2FAE7000000800240D3
:10108000FFFF04000348006840F0010001490860C8
:10109000704700000090024000B50120FFF736FFC6
:1010A0000120FFF713FFFFF729FC0120FFF7CEFB1C
:1010B0000120FFF787FB00BD00B50020FFF7C6FB4E
:1010C0000020FFF77FFB0020FFF700FFFFF716FC73
:1010D0000020FFF71BFF00BD0121016000214160DE
:1010E0008160C16001614FF48041416100218161F3
:1010F000C1614FF400610162002141628162C162FD
:10110000016341638163C163402101642021416423
:1011100000218164C164016541658165C165016625
:101120008021416600218166C16601674167816750
:10113000C1674FF08061C0F880104910C0F884107A
:101140000021C0F888104FF40011C0F88C10002165
:10115000C0F89010C0F89410C0F89810C0F89C1017
:10116000C0F8A0104FF00071C0F8A4104912C0F8E8
:10117000A8108901C0F8AC104912C0F8B0100021C5
:10118000C0F8B410C0F8B8107047000038B5034676
:101190000C460021002000901448016901F01C0158
:1011A0004FF4784000EAC32001434FF4F86000EAAE
:1011B0008410014341F0020141F001010B484261FA
:1011C000016100BF0098401C00900848016901F0CF
:1011D000010018B1064D0098A842F3D3044D0098C1
:1011E000A84201D1002038BD0120FCE70080024068
:1011F000FFFF04007FB506460020039096F83100FB
:10120000C0F3001000285DD031480068002843D0AA
:10121000002003904FF4805200210846FFF7B6FFEC
:1012200000BF0398401C039001210020FFF7F4FE4B
:1012300000F0200018B9274903988842F1D3002014
:1012400003901F21FFF7E8FE044604F0100020B1D0
:101250004FF400601E49086202E000201C49086249
:1012600004F0040018B100201949486103E04FF46C
:101270008040174948611848056815484069144975
:10128000096A08430543144805604FF6FF70FFF7ED
:1012900026FB114805680560FFF7FEFE0F48029027
:1012A0006FF07F4001900E4800906B4601AA02A9A2
:1012B0000C4803F043FE0B4803F0F8FE00200A49F7
:1012C000087004E0FFF7F8FE064803F051FE7FBD0A
:1012D00048060020FFFF040000800240C0A8017AF9
:1012E000C0A80101200100207C000020F0B50A46C2
:1012F00000210023002400BF3DE0012505FA01F391
:10130000156805EA03049C4234D105684F000326A2
:10131000BE40B543056015794E00B54006683543BB
:1013200005601579012D02D01579022D16D1856839
:101330004F000326BE40B543856055794E00B54049
:10134000866835438560456801268E40B543456013
:10135000456896798E40B6B235434560C5684F0002
:101360000326BE40B543C560D5794E00B540C6687A
:101370003543C560491C1029BFD3F0BDF0B500232B
:1013800000244D07ED0E02FA05F3CE1000F1200502
:1013900055F826504E07F70E0F26BE40B543CF1026
:1013A00000F1200646F82750CE1000F1200555F830
:1013B000265045EA0304CE1000F1200545F82640EA
:1013C000F0BD4183704701837047000002A000F028
:1013D000ADFC00BFFEE70000686172646661756C79
:1013E000742121210A0000002DE9F04106460F4634
:1013F00090461D460024002E39D100BF35E058F834
:1014000024001CA1FEF723FFF8B955F824001AA107
:10141000FEF71DFF20B94FF400501849488323E020
:1014200055F8240016A1FEF712FF20B94FF48040B2
:101430001249488318E055F8240012A1FEF707FF6F
:1014400020B94FF400400D4948830DE055F82400C1
:101450000DA1FEF7FCFE38B94FF400500749088390
:101460004000088340000883641CBC42C7D307A027
:10147000BDE8F0816C65640031000000001002409E
:101480003200000033000000340000002F53544DA0
:101490003332463478374C45442E68746D6C000006
:1014A0001CB50121102000F061F94FF400500090AC
:1014B00001208DF8040000208DF8060001208DF831
:1014C000070000208DF8050069460D48FFF70EFF64
:1014D0004FF48040009069460948FFF707FF4FF43A
:1014E0000040009069460648FFF700FF4FF40050A7
:1014F0000349088340000883400008831CBD0000A6
:101500000010024000B587B003F04EFB03F096FCDC
:10151000274806906FF07F400590264804902648A3
:101520002649002204ABCDE90021029005AA06A9B4
:10153000234803F0CBFC224803F014FD2148006847
:10154000112826D11E4890F8310040F010001C49A7
:1015500081F83100084603F0A9FD1BA000F0E6FB6E
:101560007A200123A822C02100901EA000F0DEFBFB
:101570000020FF231A46194600901FA000F0D6FB5A
:1015800001200346A822C021009021A000F0CEFB3C
:1015900008E00B4803F0ECFC23A000F0C7FB28A0F8
:1015A00000F0C4FB2C49064803F03AFD07B000BD2B
:1015B000C0A8017AC0A80101DD2B0008952C000805
:1015C00020010020780000200A20205374617469F3
:1015D0006320495020616464726573732020200A7F
:1015E0000000000049503A2025642E25642E256411
:1015F0002E25640A000000004E45544D41534B3ADD
:101600002025642E25642E25642E25640A00000002
:10161000476174657761793A2025642E25642E250B
:10162000642E25640A0000000A20204E6574776F3E
:10163000726B204361626C6520697320200A000090
:10164000202020206E6F7420636F6E6E656374655A
:10165000642020200A000000F511000801B511499E
:1016600000980968401AFA2804D30E4900980860C7
:1016700006F0AAFB0C4900980968401A41F288312B
:10168000884204D308490098086001F005FA074928
:1016900000980968401AB0F57A7F02D30020FFF75E
:1016A0006BF808BD280000202C000020300000202E
:1016B00010B5024801F006FB10BD0000200100201B
:1016C00000BFFEE77047000070B5002100230F2225
:1016D000C4781CB3174C246804F4E064C4F5E064D7
:1016E000C4F30721C1F10404E3B20A4144789C40E9
:1016F000E1B28478144021430C07210E0E4C05788A
:101700006155047804F01F050124AC4005786D1183
:10171000AD0005F1E025C5F8004109E0047804F0CA
:101720001F050124AC40054D0678761145F826408A
:1017300070BD00000CED00E000E400E080E100E09E
:1017400010B5002807DA0A07140E054A00F00F0347
:101750001B1FD45403E00A07130E024A135410BD92
:1017600018ED00E000E400E07047000029B1064AEF
:1017700012680243044B1A6004E0034A1268824371
:10178000014B1A60704700003038024029B1064A08
:1017900012680243044B1A6004E0034A1268824351
:1017A000014B1A60704700001038024029B1064A08
:1017B00012680243044B1A6004E0034A1268824331
:1017C000014B1A60704700004038024029B1064AB8
:1017D00012680243044B1A6004E0034A1268824311
:1017E000014B1A607047000044380240F0B50021F8
:1017F00000220024022500260223324F3F6807F012
:101800000C0121B1042905D0082937D105E02E4F5C
:10181000076036E02D4F076033E02A4F3F1F3F68D7
:10182000C7F38056274F3F1F3F6807F03F036EB155
:10183000264FB7FBF3F7DFF88CC0ACF1040CDCF8F3
:1018400000C0CCF3881C07FB0CF40CE01E4FB7FB68
:10185000F3F7DFF870C0ACF1040CDCF800C0CCF397
:10186000881C07FB0CF4174F3F1F3F68C7F3014765
:101870007F1C7D00B4FBF5F7076002E0124F0760A4
:1018800000BF00BF0F4F3F6807F0F0010909104F7C
:101890007A5C0768D74047600A4F3F6807F4E05119
:1018A000890A0B4F7A5C4768D7408760054F3F68CD
:1018B00007F46041490B064F7A5C4768D740C76020
:1018C000F0BD0000083802400024F40000127A0045
:1018D00014000020704700000149086070470000B4
:1018E000DC0027420CB500200190009034480068CD
:1018F00040F480303249086000BF3148006800F48D
:10190000003000900198401C0190009818B901988F
:10191000B0F5A04FF1D12A48006800F4003010B1B2
:101920000120009001E0002000900098012846D19D
:1019300023484030006840F0805021494031086021
:101940002048006840F440401E4908601C480830A8
:1019500000681B49083108600846006840F40040F0
:1019600008600846006840F4A05008601648091F47
:101970000860081F006840F08070091F086000BF01
:101980000F48006800F000700028F9D040F20570A0
:101990000E4908600A480830006820F00300084932
:1019A000083108600846006840F00200086000BF87
:1019B00003480830006800F00C000828F8D10CBD7E
:1019C000003802400070004008544007003C0240CC
:1019D00010B500F00DF910BD10B5124800684FF4B5
:1019E0007A71B0FBF1F4601EB0F1807F01D3012069
:1019F0000FE0601E4FF0E02148610F214FF0FF30F3
:101A0000FFF79EFE00204FF0E0218861072008616B
:101A1000002008B100BFFEE70021481EFFF790FE3E
:101A200010BD00000000002010B51548006840F40B
:101A30007000134908601348006840F00100114924
:101A4000086000200F49083108600E4800680E4900
:101A500008400C4908600D48091D0860081F00680F
:101A600020F48020091F0860002006490C3108601E
:101A7000FFF738FF4FF0006001498039086010BD62
:101A800088ED00E000380240FFFFF6FE1030002431
:101A90007FB504460D4601210220FFF787FEADF811
:101AA00004500020ADF806000294ADF80C0001A926
:101AB0000D4800F05BF8012211460B4800F04CF88D
:101AC0000121094800F02BF81D208DF800000120AD
:101AD0008DF8010003208DF8020001208DF803002D
:101AE0006846FFF7F1FD7FBD0004004010B50121FD
:101AF000074800F020F8012804D1064800680A30A1
:101B0000044908600121024800F006F810BD0000F9
:101B10000004004024000020CA430282704721B123
:101B2000028842F00102028004E002884FF6FE7350
:101B30001A400280704730B502460020002300247E
:101B4000158A05EA0103958905EA010413B10CB170
:101B5000012000E0002030BD1AB183890B4383814E
:101B600002E083898B438381704700000022028852
:101B7000184B98420ED0184B98420BD0B0F1804FC2
:101B800008D0164B984205D0154B984202D0154B01
:101B9000984204D14FF68F731A404B881A43124B68
:101BA000984207D0114B984204D04FF6FF431A4099
:101BB0000B891A4302804B68C3620B880385054B6F
:101BC000984202D0044B984201D18B7A03860123BC
:101BD000838270470000014000040140000400407F
:101BE00000080040000C00400010004000140040BD
:101BF0000448006820B103480068401E014908609D
:101C0000704700007400002001F40072B2F5007FFC
:101C100000D100BFCA430280704721B1828942F4DB
:101C20000052828104E082894DF6FF731A4082815E
:101C3000704702460020B1F5007F00D100BF138835
:101C40000B400BB1012000E0002070472DE9FF4759
:101C500005460E460024A14600BFA046B08900B14B
:101C600000BF2C8A24F44054F08804432C82AC89B1
:101C700041F20C608443B08831890843718908437C
:101C80000443AC81AC8A24F44074B0890443AC8230
:101C90006846FFF7ABFD2048854202D01F488542C9
:101CA00002D1DDF80C9001E0DDF80890A88900F47D
:101CB000004040B109EBC90000EB09103168490050
:101CC000B0FBF1F707E009EBC90000EB0910316840
:101CD0008900B0FBF1F76420B7FBF0F004012009A4
:101CE000642101FB1078A88900F4004040B1322043
:101CF00000EBC800B0FBF1F000F00700044308E07F
:101D0000322000EB08106421B0FBF1F000F00F006E
:101D100004432C81BDE8FF870010014000140140FE
:101D2000C1F308028280704700BFFEE70FB4054B85
:101D300010B503A9044A029800F018F810BC5DF829
:101D400014FB00006D2D00081C01002002E008C8F3
:101D5000121F08C1002AFAD170477047002001E025
:101D600001C1121F002AFBD1704700002DE9FF4F6F
:101D700089B09B460446002506E025280BD05A462C
:101D80000B999047641C6D1C20780028F5D10DB08C
:101D90002846BDE8F08F0027B8460122474900E0F9
:101DA000074314F8013F203B02FA03F00842F7D141
:101DB00020782E2819D114F8010F47F004072A289B
:101DC0000ED06FF02F022078A0F1300109290CD835
:101DD00008EB880102EB410100EB0108641CF2E70B
:101DE0000A98641C50F8048B0A9020780028CED002
:101DF000642808D0692806D075281ED05A460B9949
:101E000090476D1C58E00A994FF00A0901C90A91E0
:101E1000002802DA40422D2102E0390504D52B21A9
:101E20008DF82010012103E0F90704D02021F7E705
:101E30008A4608AE0DE00021FAE70A994FF00A0938
:101E400001C90A91F7E74946FEF72BFA303106F847
:101E5000011D0028F7D1ADEB060000F1200978073D
:101E600001D44FF00108C84502DDA8EB090000E0ED
:101E700000208046002706E008A85A46C05D0B995E
:101E800090476D1C7F1C5745F6DB04E030205A4616
:101E90000B9990476D1CB8F10001A8F10108F5DC21
:101EA00005E016F8010B5A460B9990476D1CB9F1E5
:101EB0000001A9F10109F4DC641C65E709280100AF
:101EC00070B504460D4600BF04B970BD00BF606A1E
:101ED00058B1606A007B082807D12868616A496A9E
:101EE000884202D1204600F0A7F800BFEDE70000CD
:101EF0002DE9F04106460C46174600BF1EB96FF0AB
:101F00000D00BDE8F08100BF00BF14B96FF00500FF
:101F1000F7E700BF00BF00BF00BF00BF00224FF4C3
:101F20009A71104603F0DDF82061206910B94FF076
:101F3000FF30E6E700BF00BF607B20B93C48006887
:101F4000401C3B4908603A480068206020694068AE
:101F500060610120616908706169487096F82A0023
:101F60006169887000206169C870206802F03CFDDA
:101F7000616948600020616908816169488161691F
:101F8000C860082F09D0042F07D0032F08D1207B69
:101F9000052802D0207B042802D170686169C860DE
:101FA0000020616908616169486161698861002593
:101FB0000DE096F82A00A84203DD06F12B00405DF3
:101FC00000E0002061691C314855681C85B2102D65
:101FD000EFD3002505E0002160692C304155681CD5
:101FE00085B2402DF7D3002505E0002160696C30F3
:101FF0004155681C85B2802DF7D30E486169C1F840
:10200000EC0000202083002504E06069F030455595
:10201000681C85B2442DF8D301223521204600F0FA
:10202000EBF83946204600F0F7F8002069E7000099
:10203000AC000020638253632DE9F84305466C6AC7
:1020400000260C21204600F099F90422214628465A
:10205000FFF74EFF0646FEB904223221204600F06B
:10206000CBF8606A02F0D3FC80464146204600F07F
:10207000DCF8204600F00BF9228BF03291B2206997
:1020800003F089FA009543230B4A2169606806F042
:1020900075FA204600F012F8607B401C607342F233
:1020A000107707F2F3104FF4FA7190FBF1F06083B0
:1020B0003046BDE8F8830000F852010810B5044628
:1020C00000BF04B910BD00BF00BF00BF00BF00BF0C
:1020D000206910B1206903F0DCF900202061606103
:1020E00000BFEFE7F8B505466C6A00260020606285
:1020F0000621204600F042F9012221462846FFF73A
:10210000F7FE0646002E30D102223921204600F08B
:1021100073F8298D204600F0A9F8042237212046C3
:1021200000F06AF80121204600F076F803212046ED
:1021300000F072F81C21204600F06EF806212046BF
:1021400000F06AF8204600F0A2F8228BF03291B23B
:10215000206903F020FA00954323124A2169606840
:1021600006F00CFA2046FFF7A9FF607B401C607365
:10217000607B062803DA617B0120884000E03C2078
:1021800000EB4001C1EBC0104FF6FF7101EAC00740
:1021900007F2F3104FF4FA7190FBF1F060833046D0
:1021A000F8BD0000F852010870B505466C6A04B924
:1021B00070BD207B042809D003DC98B1032812D11C
:1021C00007E0052803D00A280DD101E000BF00BFB9
:1021D00000BF284602F0CCFE00206073284600F0C5
:1021E00079F806E005E0002060732846FFF77AFFE3
:1021F00000BF00BF00BFDBE710B500BF00BF048B0E
:10220000631C03834369F0331955048B631C0383F8
:102210004369F0331A5510BD00BF00BF038B5A1C31
:1022200002834269F032D154704710B500BF00BF3D
:102230000B0E048B621C02834269F0321355C1F30A
:102240000743048B621C02834269F0321355C1F3C9
:102250000723048B621C02834269F0321355048BFE
:10226000621C02834269F032115510BD10B500BFE7
:1022700000BF0B0A048B621C02834269F0321355C3
:10228000048B621C02834269F032115510BD00BFFD
:1022900000B9704700BF00BF00BF00BF00BFFF22F2
:1022A000038B591C01834169F031CA5406E00022B6
:1022B000038B591C01834169F031CA54018B4429B5
:1022C00003D3017E01F0030111B1018B4429EED348
:1022D00000BFDEE72DE9F84305466C6A032120467E
:1022E00000F04CF8032221462846FFF701FE06467F
:1022F0004EBB022239212046FFF77EFF4FF41071BA
:102300002046FFF7B3FF042232212046FFF774FF77
:10231000606A02F07CFB804641462046FFF785FF5D
:102320002046FFF7B4FF228BF03291B2206903F010
:1023300032F900954323104A2169606806F01EF9BE
:102340002046FFF7BBFE607B401C6073607B0A2861
:1023500005DA607B4FF47A7110FB01F001E042F284
:10236000107087B207F2F3104FF4FA7190FBF1F09E
:1023700060833046BDE8F883F8520108027B8A4248
:1023800003D0017300224273428370472DE9FC475A
:1023900005468846164600BF0DB9BDE8FC8700BF5C
:1023A00070892A2803DA304603F073F8F5E7776876
:1023B00007F10E042088B0F5807F08D12079062827
:1023C00005D16079042802D16088082803D03046FE
:1023D00003F05FF8E1E7D4F80E000190A0690090E7
:1023E000281D08B1686810B94FF0000907E000988F
:1023F0006968884201D1012000E000208146B9F1DE
:10240000000F01D0012000E00220034604F1080281
:1024100001A9284600F086FBE088B0F5807F03D054
:10242000B0F5007F31D12BE0B9F1000F26D00220AA
:1024300002F0E7FAE080D4F80E00A0616868C4F802
:102440000E0000BF00BFA068C4F81200A089E0829F
:10245000A0683860A089B880D8F80000A060B8F8FB
:102460000400A081D8F80000C7F80600B8F80400FE
:10247000788131462846AA69904700E000BF05E010
:1024800001A92846FFF71CFD00E000BF00BF304651
:1024900002F0FFFF00BF80E770B50546002412E0A0
:1024A00004EB8400094901EB8000867C4EB104EB0B
:1024B000840001EB80008068A84202D1204600F031
:1024C000B7F8601CC4B20A2CEADB70BD1CA5002062
:1024D0002DE9FC5F05460F464FF00A08C1460A2663
:1024E0000024A34600200190B246009000BF5CE0AB
:1024F00004EB84004D4A02EB8000817C0A2E02D15D
:1025000009B966B24FE000294DD000BF00BF5DB1F0
:1025100004EB8402454B03EB820228685268904228
:1025200002D160B2BDE8FC9F012928D104EB8400F0
:102530003E4A52F8200088B104EB840002EB800090
:10254000C27C009882422EDB4FFA84FA04EB8400AE
:10255000364A02EB8000C07C009024E004EB84004B
:10256000324A02EB8000C07C58451CDB4FFA84F8ED
:1025700004EB840002EB800090F813B013E0022912
:1025800011DB04EB8400294A02EB8000C27C019835
:10259000824208DB4FFA84F904EB8400234A02EB01
:1025A0008000C07C0190601CC4B20A2CA0DB07F044
:1025B000020020B90A2E05D107F0010010B94FF032
:1025C000FF30AFE70A2E01DAF4B21AE0B9F10A0FD0
:1025D00003DA09F0FF0400BF0EE0B8F10A0F02DAD7
:1025E00008F0FF0408E0BAF10A0F02DA0AF0FF046B
:1025F00002E04FF0FF3095E700BF00BF204600F03B
:1026000017F800BF00BF00BF00BF35B104EB840165
:10261000064A02EB810128684860002004EB84012F
:10262000024A02EB8101C87460B27BE71CA500205E
:1026300010B5044604EB84000C4951F8200060B149
:1026400004EB8401094A52F8210002F022FF002025
:1026500004EB8401054A42F82100002004EB8401C8
:10266000024A02EB8101887410BD00001CA5002005
:102670002DE9FC4704460F461546A94600BF00BF9A
:1026800000BF00BF00BF00BF0E21384602F044FF6C
:1026900018B16FF00100BDE8FC872146286801F001
:1026A0009DFB10B1DFF8048177E0287800F0F0009E
:1026B000E02815D101208DF8000000208DF80100E0
:1026C0005E208DF80200687800F07F008DF803002E
:1026D000A8788DF80400E8788DF80500E8465BE0FE
:1026E0002868A1680840D4E901121140884210D03E
:1026F000288880B24FF6A96188420AD004F10C0004
:1027000020B1E06810B104F10C0902E06FF00300A1
:10271000C1E72748007800EB8000264901EB8000E4
:10272000807C022812DB2249097801EB8101214AD1
:1027300002EB8101D9F800004968884206D11C48A3
:1027400002783946204600F037F8A4E700261BE05F
:1027500006EB8600174901EB8000807C022811DB24
:1027600006EB8601134A02EB8101D9F800004968A3
:10277000884207D10E490E70F2B23946204600F069
:102780001BF888E7701C46B20A2EE1DB3A46494640
:10279000204600F047F87EE700BF434604F12B02D5
:1027A0003946204600F05CF975E7000070530108D7
:1027B000180100201CA5002070B505460E461446E1
:1027C00000BF00BF04EB8400154901EB8000807C52
:1027D000022817D104EB840001EB8000C07CE428C0
:1027E00010DB04EB84000A4602EB8000011D284642
:1027F00000F020F930B9032004EB8401084A02EB11
:102800008101887404EB8400054901EB800000F12C
:102810000C0305F12B023146284600F021F970BD6A
:102820001CA500202DE9F05F80460E46174608F1F2
:102830002B094FF0FF3A4146306801F0CFFA38B922
:10284000307800F0F000E02802D00EB1306818B9FE
:102850006FF00D00BDE8F09F01213046FFF738FE14
:102860000446002C01DA2046F4E704EB84004249D8
:1028700001EB8000807C30B9012004EB84013E4AEA
:1028800002EB8101887400BF00BF04EB84003A4969
:1028900001EB8000807C012800D03FB931464046E2
:1028A00000F0C8F882460FB95046D3E700BF00BF1A
:1028B00004EB8400304901EB8000807C02280FDBB0
:1028C0002E490C7004EB84002B4901EB800000F1D1
:1028D0000C034A463946404600F0C2F8824648E0BA
:1028E00004EB8400244901EB8000807C012840D166
:1028F0004FF0000B3D4608E000BF00BF287B0128D9
:1029000002D04FF0010B02E02D68002DF4D100BF82
:10291000BBF1000F10D029890022032002F0E1FB57
:1029200005466DB13946284602F00AFD40B12846F9
:1029300002F0AFFD002503E03D46284602F067FEA9
:10294000A5B104EB84000C4951F8200030B104EB30
:102950008401094A52F8210002F09BFD04EB840037
:10296000054941F820504FF0000A01E04FF0FF3ACE
:1029700000BF50466EE700001CA500201801002093
:102980002DE9F84F0746884691469A46DDF828B06B
:102990000020009000BF00BF00222A21032002F087
:1029A000A0FB05461DB94FF0FF30BDE8F88F00BF12
:1029B00000BF6E6806F10E040D9802F022F8E08068
:1029C00000BF00BFDAF80000A060BAF80400A081E0
:1029D0000B980168C4F812108088E082D9F80000D2
:1029E0003060B9F80400B080D8F80000C6F80600DE
:1029F000B8F804007081DBF80000C4F80E000C98F1
:102A00000068A0614FF4807020800820608006205C
:102A10002071042060714FF4C160B08129463846AE
:102A2000BA6990470090284602F033FD00250098CF
:102A3000BBE700007FB504460D460121064A201D74
:102A400004F12B038DE825000391044A1946204622
:102A5000FFF796FF04B070BD76530108705301086C
:102A60002DE9F04105460E4617469846746800BFAA
:102A700000BFD8F800002060B8F80400A0803868D3
:102A8000C4F80600B88860810820A0813146284635
:102A9000AA699047BDE8F08170B500243DE004EBE1
:102AA00084001F4901EB8000857C25B304EB840082
:102AB00001EB8000C07C401C04EB8401184A02EB4F
:102AC0008101C87404EB8400114601EB8000C07CD6
:102AD000F0280DDA04EB840001EB8000807C0128F3
:102AE0000AD104EB840001EB8000C07C022803DBE8
:102AF0002046FFF79DFD0EE004EB8400084901EB42
:102B00008000807C032806D1022004EB8401044A63
:102B100002EB81018874601CC4B20A2CBFDB70BD5B
:102B20001CA500202DE9F04706460D46174698469D
:102B300000BF00BF5DB1286848B13146286801F088
:102B40004DF920B9287800F0F000E02803D16FF0AB
:102B50000D00BDE8F08741462846FFF7B9FC044662
:102B6000002C01DA2046F4E7022004EB84011A4A23
:102B700002EB8101887404EB8400114601EB8000B4
:102B8000866004EB840001EB80003968C160B9887D
:102B90000182002004EB840102EB8101C87404EB84
:102BA0008400114651F8200098B104EB840051F8DC
:102BB0002090002004EB840142F821003B4606F1FE
:102BC0002B0249463046FFF74BFF484602F061FCB6
:102BD00000BF0020BDE700001CA500202DE9F0414A
:102BE00004460E464FF00E0860890E2800DC49E0CE
:102BF0006568AF89287800F00100B0B12878012815
:102C000009D1687888B9A8785E280ED1607B40F039
:102C10001000607309E006221D492846FDF725FBD8
:102C200018B9607B40F008006073082F03D0B7F537
:102C3000C16F22D114E096F8310000F0200000B9F5
:102C400020E0C8F1000001B2204602F065FC10B19E
:102C500000BF00BF16E03146204601F0CBF90DE081
:102C600096F8310000F0200000B90BE0224606F192
:102C70002B013046FFF78AFB00E003E000BF002095
:102C8000BDE8F081204602F004FC0020F8E70000D7
:102C90007053010810B5044600BF00BF732084F8CC
:102CA0003200742133200155044860610448A0615A
:102CB000204601F079FD002010BD000071260008BB
:102CC0000949000870B50446204601F0ADFD0646EE
:102CD00016B94FF0FF3070BD21463046226990474B
:102CE000054615B1304602F0D4FB2846F3E72DE93E
:102CF000F04180460E460EB1307810B90020BDE894
:102D0000F081344600252BE008F1F40040F825401E
:102D1000274626212046FDF789FA04461CB10020EB
:102D20002070641C08E020213846FDF77FFA044635
:102D30000CB10020207000243D213846FDF776FAC2
:102D400007463FB100203870781C08F59A7141F8A9
:102D5000250004E0002108F59A7040F825106D1C4C
:102D6000102D01DA002CCFD12846C8E770B50446F3
:102D70000D46E1B20548FEF7D3FF00BF80210348AE
:102D8000FEF757FF0028F9D0204670BD0010014023
:102D90000146D1E90102801A704710B50446204669
:102DA00000F002F810BD000010B5014600200FE051
:102DB00000EB4002084B03EBC2028A4207D100221B
:102DC00000EB4003044C04EBC3031A7502E0401C03
:102DD0000A28EDDB00BF10BD58010020002114E0DF
:102DE00001EB41000B4A02EBC000007D60B90120FD
:102DF00001EB4102074B03EBC202107501EB4100EE
:102E00001A4602EBC0007047491C0A29E8DB002083
:102E1000F9E700005801002070B50646FFF7DEFF15
:102E200005460DB9002070BD0D4C11E030466168BB
:102E3000FDF70DFA58B9A0682860E0686860E0689E
:102E4000A8600020E860207C28742846EBE724680E
:102E5000002CEBD12846FFF7A7FF0020E3E7000096
:102E6000A85201082DE9F04104460F461646D4E960
:102E70000110884203D14FF0FF30BDE8F081D4E962
:102E80000101451AB54200DD3546A2682068811867
:102E90002A463846FDF794F9A0682844A0602846E1
:102EA000EBE7000070B504462B480068F0B12B48F2
:102EB0000068D8B12A480068C0B1002512E0274850
:102EC000006850F8251004F12E00FDF7C0F940B954
:102ED000C02204F1300128461F4B1B6898476085CB
:102EE00070BD6D1C1E4800688542E8DB04F12E00B1
:102EF000FDF7A6F9A72804D204F12E00FDF7A0F9EA
:102F000000E0A7200646122216A104F13000FDF7CA
:102F100057F9324604F12E0104F14200FDF750F951
:102F200006F1120004F13001084413A10A6802609E
:102F30008A88828089798171002206F1190004F162
:102F400030010A540846FDF77BF9064600BF00BF72
:102F5000668500BFC4E70000480000205000002044
:102F60004C0000203C623E2A2A2A554E4B4E4F57B9
:102F70004E205441472000002A2A2A3C2F623E005E
:102F80002DE9F04105460E4690462F4600BF00BF92
:102F90000121304604F023FD00F05AFD04461CB91F
:102FA0004FF0FF30BDE8F0812146304602F08EFC44
:102FB0000949304604F0ACFB0849304602F0BBFE3C
:102FC00004220749304603F071FD0649304604F0FB
:102FD00002FD0020E6E70000ED330008393000086C
:102FE000A5330008E939000870B505460C460021F4
:102FF000284602F06BFC0021284604F089FB0021E2
:10300000284602F098FE00221146284603F04EFDA5
:103010000021284604F0DFFC204600F027FD28466A
:1030200002F0A2FC064626B104220249284603F01B
:103030003DFD70BDA533000870B504460E4625461B
:1030400015B1284600F012FD70BD00002DE9F74FC4
:10305000064691464FF00008002086F82C000198A3
:1030600000782F2827D10198407820BB002414E055
:10307000434951F83400FFF7CFFE8046404850F8EE
:1030800034000190B8F1000F06D03D4800EBC400B9
:10309000007986F82C0002E0641C052CE8D300BF00
:1030A000B8F1000F64D101A800F072F8804600204A
:1030B00086F82C005CE03F210198FDF7B7F8054643
:1030C00015B1002028706D1C2E48006870B32E4882
:1030D000006858B300271CE02B48006850F83710F0
:1030E0000198FDF7B4F898B929463046FFF7FFFD7F
:1030F00082462548006800EBC70006F59A7306F182
:10310000F4025146D0F804C03846E047019004E08C
:103110007F1C1C4800688742DEDB00BF194800683E
:10312000874203D115B16D1E3F2028700198FFF72B
:1031300073FE8046B8F1000F03D101A800F028F813
:103140008046B8F1000F13D0002086F82C00002430
:103150000BE00E4850F824100198FDF755F818B10F
:10316000012086F82C0002E0641C042CF1D300BF7F
:103170004A4641463046019B00F038F8BDE8FE8FD4
:10318000BC520108580000205400002038000020E4
:1031900070B504460CA020602068FFF73DFE054690
:1031A0007DB90CA020602068FFF736FE054645B9C2
:1031B0000BA020602068FFF72FFE05460DB9002008
:1031C0002060284670BD00002F3430342E68746DA6
:1031D0006C0000002F3430342E68746D0000000045
:1031E0002F3430342E7368746D6C00002DE9F0417B
:1031F00004460D4616469846002D2AD0002020850C
:1032000084F8F1002868E0616868606228682062DC
:1032100025602868606000BF00BF686860610020AA
:10322000207600BF00BF2068007CB8B1B6B10DA108
:103230006269606802F06EFA07464FB1391D626834
:10324000881A6168014461606169091A616100BF9F
:1032500004E0002020606060606120760020BDE80E
:10326000F08100000D0A0D0A000000002DE9F74F63
:1032700084B00C460498D0F8009000BF00BF00BF97
:1032800000BF206808B9606820B16FF0070007B080
:10329000BDE8F08FA06810B9C4F8089003E0494673
:1032A000A06802F01DF8A068006898B1A0680089C5
:1032B00040F2FF31884202DAA068008901E040F262
:1032C000FF308046002342463149A06802F098F85A
:1032D0002F4E04E0D9F80460B9F80A8000BFB8F1B5
:1032E000070F42DB42462BA1304602F013FA82461A
:1032F000BAF1000F39D000200390042226A13046F5
:10330000FCF7C0FF08B9F51C04E0002030716FF035
:103310000D00BCE7681C801BA8EB000080B2029087
:103320001FA1681C029A02F0F5F907463FB919A1DE
:10333000681C029A02F0EEF9074601200390681C0F
:10334000381A80B201907FB1AF420DD9681C00904D
:10335000002028700022DDE9000142542046039A33
:103360000099FFF773FE92E700BFA06801F0DFFF4E
:103370008346A0680089B0F5806F05DABBF10A0FBB
:1033800002DC6FF0040082E76FF00D007FE70000C1
:10339000480200200D0A00004745542000000000AC
:1033A0002000000070B505460E462C462CB921467B
:1033B0003046FFF719FE002070BD207E401C2076AD
:1033C000207E042805D121463046FFF70DFE00205F
:1033D000F2E74CB1206838B12146304600F04EF893
:1033E00010B1304603F0DEF80020E5E72DE9FF419B
:1033F00007460D4698466FF009063C46B8F1000FA7
:1034000002D1029800B18CB9029838B102980189B2
:10341000284604F098F9029802F03BF82146284625
:10342000FFF7E2FD002004B0BDE8F08102980189B9
:10343000284604F088F9206838B92A46214602A8AF
:10344000FFF714FF064600BF00BF701D30B1A06833
:1034500020B1A06802F01DF80020A06026B9214626
:10346000284600F00BF806E006F10E0018B92146D8
:103470002846FFF7B9FD0020D5E700002DE9F84305
:1034800005460C464FF0000900276069002849D125
:10349000206830B921462846FFF7A6FD0020BDE888
:1034A000F8832068FFF774FC002805DC21462846D5
:1034B000FFF79AFD0020F2E7E06808B126691CE0FA
:1034C000A87F00F0080010B1E88E0C3800E0E88E0C
:1034D000460000BFB0B201F095FBE060E06808B1C3
:1034E000266105E0304606EBD0714E10642EF1DC0B
:1034F00000BFE06808B90020D1E73246E1682068E3
:10350000FFF7B0FC0646002E05DA21462846FFF7F5
:103510006BFD0120C3E76661E06860606662E06899
:10352000E06100BF94F82C00E8BBB5F86600616963
:10353000884203D2B5F86600009004E0A08A80B209
:10354000009000BF00BFA87F00F0080010B1E88E17
:103550000C3800E0E88E1FFA80F84FEA4800BDF80A
:103560000010884203DA4FEA4840000C009094F8BB
:103570002C0008B1012000E0002003466A462846DE
:10358000616800F088FA0746002F0BD14FF001095F
:10359000BDF80010606808446060BDF80010606904
:1035A000401A60610CE2FFE7B5F8660000906168C0
:1035B000E069884244D96168E069401AB5F866104C
:1035C000884203DDB5F86600009006E000BF00BF4A
:1035D000A08BA188401A80B20090A87F00F008005C
:1035E00010B1E88E0C3800E0E88E1FFA80F84FEA40
:1035F0004800BDF80010884203DA4FEA4840000C4A
:10360000009094F82C0008B1012000E0002003464F
:103610006A462846616800F03EFA07465FB94FF0F7
:103620000109BDF80010606808446060BDF8001032
:103630006069401A6061B5F8660008B948462EE72F
:103640006DE1BDF8000008B9484628E794F8F1009C
:10365000052815D2DFE800F00315349BFA00E06975
:103660000078DF4909680978884203D1012084F88D
:10367000F1002085606A401E6062E069401CE061E4
:103680004CE1208D052805D100202085022084F8FA
:10369000F10014E0E0690078218DD14A1268515C94
:1036A000884203D1208D401C208502E0002084F850
:1036B000F100606A401E6062E069401CE0612DE13B
:1036C000208DB0B9E069007820280BD0E06900783F
:1036D000092807D0E06900780A2803D0E06900785B
:1036E0000D2806D1606A401E6062E069401CE061FE
:1036F00014E1E0690078BB490968097888420FD075
:10370000E069007820280BD0E0690078092807D00C
:10371000E06900780A2803D0E06900780D2820D1FC
:10372000208D18B9002084F8F10029E0032084F8E6
:10373000F10000BF00BF94F8280084F82D0000219C
:10374000228D04F12E008154E0690078A5490968B2
:103750000978884202D10120208511E000202085CF
:103760000EE0208D012808DAE0690178228D501CD6
:10377000208504F12E00815402E0002084F8F1003D
:10378000606A401E6062E069401CE061C6E0208D16
:10379000B0B9E069007820280BD0E06900780928EA
:1037A00007D0E06900780A2803D0E06900780D2886
:1037B00006D1606A401E6062E069401CE061ADE0D5
:1037C000E0690078218D874A1268515C884242D1B5
:1037D000606A401E6062E069401CE061208D022842
:1037E00035D12046FFF75EFB00202085042084F8B9
:1037F000F100E06920626168206A884234D961681A
:10380000206A401ABDF80010884204DA208CA18892
:10381000401A80B2009094F82C0008B1012000E01A
:10382000002003466A462846616800F034F90746DE
:10383000D7B94FF00109BDF8001060680844606016
:10384000BDF800106069401A60610DE00DE0208D48
:10385000401C208508E0606A401E6062E069401CF0
:10386000E061002084F8F10058E06168206A884235
:103870002BD96168206A401ABDF80010884204DA2A
:10388000208CA188401A80B20090BDF8000068B179
:1038900094F82C0008B1012000E0002003466A469D
:1038A0002846616800F0F7F8074600E000277FBB74
:1038B0004FF00109BDF80010606808446060BDF871
:1038C00000106069401A606128E0208D618D884297
:1038D0001FDA608D218D401ABDF80010884204DA8D
:1038E000608D218D401A80B20090228D04F130004D
:1038F000111801236A46284600F0CDF8074667B93B
:103900004FF00109208DBDF800100844208504E027
:1039100004E00020208584F8F10000BF00BF606A49
:1039200010B1002F3FF48DAE94F8F100042847D079
:103930006168E069884243D96168E069401AB5F876
:103940006610884203DDB5F86600009006E000BF0F
:1039500000BFA08BA188401A80B20090A87F00F021
:10396000080010B1E88E0C3800E0E88E4000BDF889
:10397000001088420ADAA87F00F0080010B1E88E33
:103980000C3800E0E88E4004000C009094F82C0005
:1039900008B1012000E0002003466A46284661681D
:1039A00000F079F807465FB94FF00109BDF8001043
:1039B000606808446060BDF800106069401A60618A
:1039C000606950B92068FFF7E3F9002805DC21465B
:1039D0002846FFF709FB002061E548465FE5000047
:1039E000E4520108E85201082DE9F04104460E4670
:1039F0001746254615B90020BDE8F081002028763D
:103A000029463046FFF73AFD0020F5E700BF00BF2A
:103A100000BF00BF024A1060024A116070470000F8
:103A2000540000205800002000BF00BF00BF00BFAE
:103A300000BF00BF034B1860034B1960034B1A60B3
:103A40007047000048000020500000204C0000207B
:103A500010B54FF4BA7001F0D5F8044624B14FF414
:103A6000BA712046FCF7C5FB204610BD10B50446D0
:103A700084B1206820B12068FFF78FF90020206012
:103A8000E06820B1E06801F067F80020E0602046BF
:103A900001F062F810BD2DE9F0470646884617464A
:103AA000994600BF00BF3C8800BF4B4622464146B6
:103AB000304604F0C2F90546681C68B9B6F86600DD
:103AC00018B1B6F86800082801DB012404E020469C
:103AD00004EBD071C1F34F04681C08B9012CE4DC7D
:103AE0003C802846BDE8F08710B50448044A06CA61
:103AF00006C001210838FFF789FF10BD6C000020C7
:103B0000EC52010810B500F02FF8FFF7EDFF024866
:103B100000F004F810BD0000F452010870B504462E
:103B200002F0F8FC054600BF00BF0121284603F063
:103B300056FF50222146284601F0CAFE064600BF25
:103B400000BFFF21284602F079FC054600BF00BFF8
:103B50002946284601F0BAFE0249284601F051FEE6
:103B600070BD0000812F000810B5012202480168D5
:103B70000248FFF759FF10BD68000020C903000884
:103B800070B505460C4622460321284600F0B0F8E1
:103B900070BD00002DE9FE4F04468946656828780F
:103BA00000074FEA9068C8F10001204601F0B4FC1C
:103BB00010B92089042800D28DE0606890F800A038
:103BC000BAF1000F03D0BAF1080F7ED100E07DE01A
:103BD00001264548007800F0F000E02800D10026DA
:103BE00041490868494600F0F9F800B1002626B9B5
:103BF000204601F04EFCBDE8FE8F2089082800D247
:103C000069E0204600F0BFF818B1204601F041FC01
:103C1000F1E72221204601F07FFC48B341462046CF
:103C200001F07AFC10B100BF00BF58E021890022EA
:103C3000022001F056FA064606B950E000BF00BF68
:103C40002146304601F07CFB10B100BF00BF46E0CA
:103C50007568C8F1000001B2304601F05DFC10B19A
:103C600000BF00BF3BE0204601F013FC344608E0F3
:103C70006FF02101204601F04FFC10B100BF00BFE2
:103C80002DE0676818480068E860184800682861F7
:103C9000002038707880FF2028720020688141461B
:103CA000204601F039FC10B100BF0DE00DE001200D
:103CB0000021FF230A46CDE9010900910A49204667
:103CC00000F090FA064600BF00E000BF00BF2046AB
:103CD00001F0DFFB8FE7204601F0DBFB8BE720469E
:103CE00001F0D7FB00BF86E79C0000209800002071
:103CF0002DE9FE4306460F4690460022242101206E
:103D000001F0EFF905460DB9BDE8FE8300BF00BF25
:103D1000D6F804906C68277084F801800020A08099
:103D2000E08071686A6802F108001C22FCF748FA1A
:103D3000002060806989204600F01BF86080D9F877
:103D40000C00029001200021FF2302AACDE90010FF
:103D5000284600F02BFA284601F09BFB00BFD3E772
:103D600070B505460C4622460B212846FFF7C0FFDA
:103D700070BD70B504460D462946204600F053FE3E
:103D8000C04380B270BD2DE9F041064600240027F3
:103D9000354617E06989686800F045FE0444A0B222
:103DA00000EB1444688900EBD0714910A0EB41018D
:103DB00039B1C7F10100C7B2E0B2C4F3072141EA4B
:103DC00000242D68002DE5D127B1E0B2C4F307210E
:103DD00041EA0024E04380B2BDE8F08118B5024614
:103DE0000092D04300B10AB9012018BD91F831000A
:103DF00000F0020008B90020F7E74868904201D1BE
:103E00000020F2E700988B681840D1E90134234084
:103E1000984208D1886822EA00008C68E3439842FF
:103E200001D10120E1E70020DFE700002DE9F74F95
:103E30008CB004468946B9F82800089014200490F4
:103E40004FF0000860680B900B9EF08800F0E5FDD5
:103E500003900398C0F30C000790039800F40050FF
:103E600006902089143880B209900899A1F11400B5
:103E7000C11700EB5171C1F3CF010A91A4E008987A
:103E800014380999884201DB012000E000200590E8
:103E90000798C0F30C00069908430390059818B9D9
:103EA000039840F400500390059808B1099801E088
:103EB0000A98C0001FFA80FB00221421022001F0A2
:103EC00010F9054625B94FF0FF300FB0BDE8F08F6F
:103ED00000BF00BF142268680B99FCF771F96E6887
:103EE000616804980844606061890498081A6081D8
:103EF000CDF808B03FE061890298814201DD029867
:103F000000E060898046B8F1000F01D1246832E0FA
:103F100000F062F807462FB9284601F0BAFA4FF0D0
:103F2000FF30D2E760683B4602224146CDE90008F7
:103F3000032001F09FF98246BAF1000F08D13846FC
:103F400000F04FF8284601F0A4FA4FF0FF30BCE72C
:103F5000204601F05CFB7C611E48386151462846D2
:103F600001F0BEF90298A0EB080080B2029002981E
:103F700000B1246800BF02980028BCD1CDF81080A1
:103F8000039800F03EFDF0800BF1140188B200F0C0
:103F900038FD70800020708114213046FFF7E9FE63
:103FA0007081D9F81430294648460E9A9847284619
:103FB00001F06FFA0998A0EB0B0080B209900A9902
:103FC0000798084480B20790099800287FF457AFFB
:103FD00000BF7AE78947000810B5062000F060FFAF
:103FE00010BD10B5044600BF00BF2146062000F0FA
:103FF00015FF10BD2DE9F05F06460F464FF0010A90
:10400000756828780421B1EB201F05D0304601F0F7
:1040100040FA0020BDE8F09F287800F00F084FF626
:10402000FF7000EA8808688800F0F7FC8146708914
:10403000404502DB3089484504DA304601F029FA70
:104040000020E7E74946304601F0A5FA28695249C1
:104050000860E868514908604FF0010B3C4600BF1A
:1040600094F8310000F0010078B1201D68B160685B
:1040700058B1494800686168884205D046490868D7
:104080002146FFF7ABFE00B10DE0BBF1000F04D0FD
:104090004FF0000B4248046800E02468BC4200D1A5
:1040A0002468002CDCD100BF64B9687A112809D1DA
:1040B00005EB08004188B1F5884F02D13C464FF02E
:1040C000000A00BFBAF1000F13D03448006880B175
:1040D000324908683946FFF781FE28B92F48007831
:1040E00000F0F000E02804D1304601F0D2F90020C1
:1040F00090E724B9304601F0CCF900208AE7E8883F
:104100004FF63F71084038B1304600F0CDF8064612
:104110000EB900207EE775682248076022480560D6
:104120003946304601F0BCFA58BB687A01280DD0F8
:10413000062806D011280ED13946304604F00AF977
:104140001EE03946304601F039FE19E03946304666
:10415000FFF720FD14E0104908683946FFF73EFEDE
:1041600050B90D48007800F0F000E02804D07560E8
:1041700002213046FFF704FD304601F08AF900BF06
:1041800000BF00200749086007490860034908602C
:104190000149086000BF3DE79C0000209800002016
:1041A000BC00002090000020940000202DE9FE4F6C
:1041B00006460F4615469846DDE90C9A00BF00BF3B
:1041C000284600F0B7FA040002D1001FBDE8FE8FB8
:1041D00043462A4639463046CDE9009A029400F01B
:1041E00001F8F3E72DE9F84F05460F4690469A4649
:1041F000DDF828B00C9E00BF00BFB8F1000F3BD027
:104200004FF014091421284601F086F918B16FF017
:104210000100BDE8F88F6C6800BF00BF84F808A0FB
:104220000B986072D8F80000206148464FEAE971A7
:1042300009EB9171C1F3870141F04001217084F8CD
:1042400001B0288900F0DDFB60800020E080154887
:10425000008800F0D6FBA08012480088401C11495D
:1042600008800FB1386810B97068E06001E0386804
:10427000E0600020608103E06C6820690090E846FF
:10428000308D48B12889318D884205DD424631465E
:104290002846FFF7CBFDBCE7424629463046736906
:1042A0009847B6E7A00000202DE9F84F804600208F
:1042B0000090D8F80450287800F00F001421B1EBDA
:1042C000800F00D0ACE0E88800F0A7FBC0F30C0042
:1042D0004FF6FF7101EAC00A688800F09EFB29785A
:1042E00001F00F01A0EB81001FFA80FB404601F0B6
:1042F0001EF806464D48018888190A280ADD31460D
:10430000284600F0D9F920B14848008830440A28EE
:1043100000DD85E04648046812E06069E96888428B
:1043200009D1A0692969884205D1A089A988884254
:1043300001D1012000E0002000B103E000942468D6
:10434000002CEAD100BF34B93146284600F03AF9D2
:10435000044694B964E0E88800F05FFBC0F30C0009
:1043600058B9E08900F059FBC0F30C0028B11422C1
:10437000294604F10800FBF723FF2C48008830444D
:104380002A490880A87900F0200030B9A07F40F0C9
:104390000100A0770AEB0B00A0834146204600F005
:1043A00049F8D0B3A08B1430A083606840680768D8
:1043B00060684568142204F108012846FBF700FFF5
:1043C000A08B00F01EFB68800020E880688114212B
:1043D0002846FFF7CEFC6881D4F804800CE0D7F8BB
:1043E00004906FF01301384601F096F839464046C4
:1043F00000F076FFD9F80070002FF0D12046009928
:1044000000F0CAF8404600F092FF08490988081AEF
:10441000064908804046BDE8F88FFFE70020FAE72C
:10442000404601F036F80020F5E70000A800002023
:10443000A40000202DE9FC5F81460E4600254FF0C8
:10444000010BD6F804A0BAF8020000F0E6FA9AF8D8
:10445000001001F00F01A0EB810080B20090BAF8CB
:10446000060000F0DAFAC0F30C004FF6FF7101EA23
:10447000C000019000BF00BF746800202060019858
:10448000A080DDE900100844E080D9F804802AE02B
:10449000D8F80470A088B988884210DAC4F800807F
:1044A00055B1A088E988884203DBE088B988884252
:1044B00000DD62E02E6001E0C9F8046016E0A0882B
:1044C000B988884200D158E0A088F988884200DA8B
:1044D00053E02DB1E888B988884201D04FF0000B35
:1044E000D7F800803D46B8F1000FD1D100BFB8F138
:1044F000000F0ED14DB100BF00BF2E60E888A1882B
:10450000884206D04FF0000B03E000BF00BFC9F89F
:10451000046099F81E0000F0010060B3BBF1000FC9
:1045200026D0D9F804004068808810B14FF0000B05
:104530001EE02546D4F800800BE0D8F80440E88857
:10454000A188884202D04FF0000B05E02546D4F840
:104550000080B8F1000FF0D100BFBBF1000F07D011
:1045600000BF00BF00BF00BF00BF00BF00BF00BF53
:104570005846BDE8FC9F0020FBE7304600F0D7FE20
:1045800004490988081A03490880304600F081FF71
:104590000020EEE7A800002070B504460D4608484C
:1045A0000068A04203D106492068086003E000BF0C
:1045B00000BF206828602146052000F02FFC70BD58
:1045C000A400002070B505460E46052000F068FCEA
:1045D000044664B93146284600F06EF8B04203DB69
:1045E000052000F05DFC04460CB9002070BD2021C0
:1045F0002046FBF7FEFD0320E077064800682060B8
:10460000044804601422294604F10800FBF7D8FD91
:104610002046EBE7A40000202DE9F0470446894638
:10462000002600BF00BFB9F1000F01D000BF00BFDE
:104630006068D0F80480B8F80400C0B96568D8F89C
:1046400000006060142204F108016868FBF7B8FDFF
:1046500001212846FFF784FB284600F068FE074644
:1046600000BF00BFF01986B2284600F012FF65684F
:1046700010E0D5F80480AA46D8F80050504600F063
:1046800056FE074600BF00BFF01986B2504600F044
:1046900000FF00BF002DECD149462046FFF77CFF0C
:1046A00000BF00BF03480088801B024908803046D5
:1046B000BDE8F087A80000202DE9F05F0546894697
:1046C000002700BF0026B346B246194804681DE023
:1046D0006069E968884207D1A0692969884203D1E5
:1046E000A089A988884201D0012000E0002048B1BB
:1046F0000AF1010A0EB9264604E0E07FF17F884204
:1047000000DC2646206800B1A3462468002CDFD1D7
:104710002EB159463046FFF77FFF804647444F454C
:1047200002DABAF1010FCDDC3846BDE8F09F000097
:10473000A400002010B50246114801680FE091F86E
:10474000310000F0010048B110688B681840D1E9D1
:1047500001342340984201D1084610BD0968002960
:10476000EDD10848006830B10648006890F8310083
:1047700000F0010008B90020EFE702480068ECE70C
:10478000BC000020C000002070B505462C4600BFCC
:1047900000BF00BF00BF606910B1606900F079FE22
:1047A0002046FFF71EFC70BD70B50446062084F855
:1047B0002A00022084F82B0000212C2001552D20F6
:1047C00001552E2001552F2001553020015504F1AF
:1047D0002B010020FCF710FB40F2DC50208522204A
:1047E00084F8310005220C490C48FCF741F80522F9
:1047F0000B490C48FBF7F8FF002507E0074901EBE0
:1048000045104FF44001FCF75BF86D1C052DF5DBFE
:10481000FCF742FC70BD000008260020A407002021
:1048200044080020040700202DE9F04F87B0002441
:10483000A1460027A3466846FCF726F99DE8070035
:1048400003AB07C303980690DDF810A0069881B269
:104850000322104600F045FC8046B8F1000F2ED030
:10486000059E00BF454628E06F894FF0000915E01E
:1048700040F2F4531A1B0AEB04016B6803EB0900C6
:10488000FBF79EFCF668D6F808A040F2F450001B37
:104890003F1A40F2F450001B81440024381940F2C2
:1048A000F4518842E4D80AEB04016A6802EB09007B
:1048B0003A46FBF785FC3C442D68002DD4D1059E7B
:1048C0004FF0000B05E04FF000403060F6680BF150
:1048D000010B0B48006880685845F4D8002008494F
:1048E000096888600748406900F0800020B1802096
:1048F0000449486100208860404607B0BDE8F08F59
:1049000088000020009002402DE9F84F8B46344883
:104910000068806800904FF0000900240026A2463D
:104920002F48D0F8008000BF5D4644E0D8F8000072
:1049300000F0004010B16FF0010743E06E894FF0C6
:10494000000A25E040F2F4531A1B6B6803EB0A01DE
:10495000009B1819FBF734FCD8F80C80D8F800003D
:1049600000F0004010B16FF007072BE0D8F8080006
:10497000009040F2F450001B361A40F2F450001B35
:10498000824440F2F450001B48441FFA80F900248E
:10499000301940F2F4518842D4D86A6802EB0A0117
:1049A000009A10193246FBF70BFC344409EB060061
:1049B0001FFA80F92D68002DB8D14846FCF7C6FAD9
:1049C000002700BF0748406900F0200020B12020E8
:1049D00004494861002048603846BDE8F88F00006F
:1049E00080000020009002400146080601F47F424A
:1049F00040EA022001F47F0240EA122040EA1160FE
:104A0000704701460806000C40EA1120704700B5C7
:104A100003461846FFF7E8FF00BD00B50246104602
:104A2000FFF7EFFF00BDF8B505460A462B4600200C
:104A30000090002103F0010636B1002A04DD13F8CE
:104A4000010B8DF80100521E1C4603E034F8027B76
:104A50003944921E012AF9DC002A02DD20788DF803
:104A60000000BDF80000014488B200EB114188B29B
:104A700000EB114126B1C8B2C1F3072747EA002174
:104A800088B2F8BD08B5FCF70BFDFBF795FDFCF708
:104A9000A3FF40F2833140F2E730FCF7F9FF0FA0AB
:104AA000FDF744F97A200123A822C021009011A02B
:104AB000FDF73CF9FBF7DCFD1BA0FDF737F9FCF730
:104AC00021FDFFF71FF808E0FBF7E8FD08B1FCF750
:104AD000EFFD20480068FCF7C1FDF5E74C414E387A
:104AE000373230412045746865726E6574204465C4
:104AF0006D6F0A00D4DAB5E7C4D4B6CBE4AFC0C05A
:104B0000C6F7D6B1BDD3CAE4C8EBB5D8D6B7A3BAF9
:104B100025642E25642E25642E2564A3ACBCC8BF55
:104B2000C9B7C3CECA0A00004C414E3837323041B3
:104B30002042535020494E495420414E4420434F77
:104B40004D46494755524520535543434553530A13
:104B5000000000002400002070B5054605B970BDB6
:104B600000BF00BF00BF00BF0C480068854203D3F0
:104B70000B480068854200D3F1E7A5F1080400BFA7
:104B800000BF0020207107480068844201D2054818
:104B90000460204600F040FD00BFE0E7B0000020C8
:104BA000B4000020B800002000BF00BF114921F070
:104BB0000301114A1160114608684FF42051018029
:104BC0000021418001711146096801F520510B4A0D
:104BD00011600121126811714FF42051074A1268C7
:104BE0001180064A1268518003490968044A11601D
:104BF00070470000DB430020B0000020B40000201C
:104C0000B8000020F0B502460AB90020F0BDD01C63
:104C100020F0030082B20C2A00DA0C22B2F5205FE9
:104C200001DD0020F2E72F4800882F4E3688801BD8
:104C300083B250E02C480068C1180879002847D199
:104C40000E8803F10800301A904241D30E8803F118
:104C50000800361A02F11400864218D303F1080046
:104C6000104485B22048006844190020207108884B
:104C7000208063800D80012008712088B0F5205FBE
:104C800007D02088184E36683044458001E0012066
:104C9000087114480068814211D1124E306803E057
:104CA0000688114F3F68F01906791EB10F4E36681D
:104CB000B042F5D10B4E306000BF00BF00BF00BF57
:104CC00000BF00BF00BF00BF00BF01F108009DE7AB
:104CD00005480068C35AC2F520509842AADC00205B
:104CE00094E70000B8000020B0000020B4000020CD
:104CF0002DE9F04106460A46D01C20F0030082B29E
:104D00000C2A00DA0C22B2F5205F02DD0020BDE89B
:104D1000F08100BF00BF3E480068864203D33D4893
:104D20000068864201D33046F1E7A6F1080438480E
:104D30000088201A85B22088401B083887B200BF3F
:104D400000BFBA4201DD0020E1E7BA4201D130469E
:104D5000DDE72088DFF8B8C0DCF800C000EB0C010C
:104D6000087980BB088805F1080C94441FFA8CF37D
:104D7000DFF8A4C0DCF800C08C4508D1DFF890C093
:104D8000DCF800C09C44DFF89080C8F800C0DFF871
:104D900080C0DCF800C00CEB03014FF0000C81F880
:104DA00004C008804D802380B1F800C0BCF5205FAE
:104DB00008D0B1F800C0DFF85880D8F80080C444AB
:104DC000ACF8023022E0FFE702F11400B8421DD82F
:104DD00005F10800104483B20D480068C1180E4860
:104DE0000068814201D20C480160002008712088CF
:104DF00008804D8023800888B0F5205F06D00888A1
:104E0000DFF80CC0DCF800C06044438030467EE729
:104E1000B0000020B4000020B800002001B97047A5
:104E200000BF00BF0A46044B53F820301360024B0A
:104E300043F8202000BFF2E7EC6B002010B5002003
:104E400001E0431C98B20928FBDB114B23F003015E
:104E5000002019E000230F4C44F8203000220CE021
:104E60000C4B53F820300B600A4B43F820100A4BD0
:104E700033F810301944531C9AB2084B33F81030F1
:104E80009342EDDC431C98B20928E3DB10BD00001F
:104E9000136C0020EC6B0020FC5201080E5301083B
:104EA000024600BF092A01DB0020704700BF064808
:104EB00050F8221031B1044B086843F8220000BFBB
:104EC00000BF00BF0846F0E7EC6B00202DE9F0477B
:104ED00004460D4616461F46DDE909A9DDF8208087
:104EE00000BF00BF00206060A060E06084F8310077
:104EF0006062E061C4F820800E48007884F83400D5
:104F00000C480078401C0B490870C4F810903B46D0
:104F100032462946204600F011F82046D04710B10D
:104F20000020BDE8F0870448006820600248046063
:104F30002046F6E7C4000020BC0000202DE9F04127
:104F400006460F4614461D463946304600F02CF8FA
:104F50002146304600F0A4F82946304600F01DF8FE
:104F6000BDE8F0810149086070470000C0000020E2
:104F700010B5044694F8310000F0010060B114F857
:104F8000310F20F00100207014F8310900F02000EA
:104F900010B12046FDF780FA10BD09B9002200E0EB
:104FA0000A68C260704700002DE9F04107460C46D0
:104FB00054B320687968884201D1012000E00020C4
:104FC00010BB154806680BE030687968884206D146
:104FD000D6F80C80304600F00DFC464600E0F6683E
:104FE000002EF1D10D4805680CE055B1286840B19C
:104FF00028687968884204D10CB9002000E0206854
:105000002860ED68002DF0D10CB9002000E0206888
:105010007860BDE8F0810000DC000020D8000020AE
:1050200000B1C161704710B5044694F8310000F03A
:10503000100060B194F8310020F0100084F83100C5
:1050400000BFE06910B12046E169884700BF10BD8C
:1050500010B5044694F8310000F01000F8B994F847
:10506000310040F0100084F83100606A10B1204631
:10507000FDF79AF894F8310000F0010040B194F87F
:10508000310000F0200018B1211D2046FDF7D2FCB0
:1050900000BFE06910B12046E169884700BF10BD3C
:1050A00009B9002200E00A688260704710B5044622
:1050B00094F8310000F0010090B914F8310F40F07D
:1050C0000100207014F8310900F0100040B194F88C
:1050D000310000F0200018B1211D2046FDF7AAFC88
:1050E00010BD2DE9F05F83460F469046BBF1000FDF
:1050F00009D0BBF1010F08D0BBF1020F07D0BBF103
:10510000030F08D105E036260AE0222608E00E2625
:1051100006E0002604E000BF00BF0020BDE8F09FCD
:1051200000BFB8F1000F68D0B8F1010F74D0B8F12A
:10513000020F72D0B8F1030F70D10820FFF7B0FE54
:1051400004460CB90020E9E784F80C8000202060B8
:1051500006F110002044C01C20F00300606000BF76
:1051600000BF2781F01C20F00300C0F5FA70B842A0
:1051700001DD384604E0F01C20F00300C0F5FA70B1
:10518000608100BF00BF00BF00BF0120E081A246D8
:105190006089A7EB00092CE00820FFF781FE054697
:1051A00025B9204600F075F90020B7E785F80C8096
:1051B000002068732860CAF8005000BF00BFA5F83F
:1051C00008901FFA89F0B0F5FA7F02DA1FFA89F029
:1051D00001E04FF4FA70688105F11000686000BFCB
:1051E00000BF00BF00BF0120E8816889A9EB00096A
:1051F000AA46B9F1000FCFDC35E006F1130121F02A
:105200000302F91C21F00301114488B2FFF7FAFCF4
:10521000044624B9002081E711E011E01FE004F109
:1052200010003044C01C20F00300606027816781BB
:105230000020206084F80C8000BF00BF13E000BF96
:105240000720FFF72DFE04460CB9002066E700207A
:10525000606027816781206084F80C8003E000BFD4
:1052600000BF00205AE700BF0120E08100206073EA
:10527000204653E7F0B505460C46DDE9056735B134
:10528000012D06D0022D06D0032D08D105E03621D0
:1052900009E0222107E00E2105E0002103E000BF24
:1052A00000BF0020F0BD00BFC81C20F00300204458
:1052B000B84201DD0020F5E7002018602EB1C81CBF
:1052C00020F003003044586001E0002058600220C4
:1052D00058731C815C811A730120D8811846E1E75C
:1052E00010B5024600BF02B101B910BD00BF1046A3
:1052F00004E003890C892344038100680368002BC0
:10530000F7D100BF00BF00BF00BF03890C89234451
:105310000381016000BFE8E730B505460C46214631
:105320002846FFF7DDFF204600F071F930BD014649
:10533000002002E0421CD0B209680029FAD170476F
:105340002DE9F04105460C460026002700BF25B197
:105350001CB128892189884203DA6FF00D00BDE86D
:10536000F08100BF00BF6889801B6189C91B88422A
:1053700004DB6089C01B1FFA80F803E06889801B8A
:105380001FFA80F86268D1196A6890194246FAF7E4
:1053900017FF06EB080086B207EB080087B200BFD4
:1053A00000BF00BF00BF6089B84201DC002724684D
:1053B0006889B04208D100262D6800BF1DB914B11C
:1053C0006FF00D00CBE700BF54B16089218988429E
:1053D00006D100BF206810B16FF00500BFE700BF25
:1053E00055B168892989884206D100BF286810B163
:1053F0006FF00500B3E700BF002CB4D10020AEE78A
:105400002DE9F05F8046894616461D464FF0000B99
:1054100000BFB8F1000F02D10020BDE8F09F00BF2F
:1054200000BFB9F1000F01D10020F6E700BF4FF037
:10543000000AB8F1000F02D0B9F1000F01D100202D
:10544000EBE7444620E035B16089A84203DC60897F
:10545000281A85B217E06089401B87B2B74200DD89
:1054600037466268511909EB0A003A46FAF7A8FE76
:105470000BEB07001FFA80FB0AEB07001FFA80FA0C
:10548000F01B86B2002524680EB1002CDBD15846F3
:10549000C3E72DE9F047044624B900BF00BF002050
:1054A000BDE8F08700BF00BF002631E000BF00BFAD
:1054B000E089401E1FFA80F8A4F80E80B8F1000FB2
:1054C00024D12768257B607B00F0020038B1A1461B
:1054D00000BF00BF2046D9F81010884712E0032D06
:1054E00004D121460820FFF799FC0BE0012D01D0E3
:1054F000022D04D121460720FFF790FC02E0204650
:10550000FFF72AFB701CC6B23C4600E0002400BF37
:10551000002CCBD13046C3E770B5024600BF00BFB8
:1055200001B10AB9002070BD002908DA484284B2EE
:1055300000BF5089A04201DA0120F4E700E08CB2FC
:10554000137B55680BB1032B0AD15068401A506089
:1055500002F110005668864215D255600120E2E73C
:10556000022B01D0012B0AD1002906DA5089A04272
:1055700003DB5068401A506005E00120D3E700BF0C
:1055800000BF0120CFE750890844508110890844AA
:1055900010810020C7E72DE9F04106460F4600BF05
:1055A00000BF00BF00BF3089B84201DCBDE8F08118
:1055B0003089A7EB00083D4634460AE06089281A86
:1055C00085B200BF00BF208940442081246800BF0D
:1055D00000BF6089A842F1DB207B60B96089A842E6
:1055E00009D0A088001B284481B22046FFF780FB29
:1055F000044600BF00BF658160892081206810B12A
:105600002068FFF746FF0020206000BFCEE710B102
:10561000C189491CC181704730B500BF00BF00BFC0
:1056200000BF00BF00BF00BF00BF0388194C246843
:105630001919884215D00B799BB9174B1B689942F1
:105640000FD0164B1B688B4201D1144B18600B888E
:105650000380104B1B88C31A0C880E4D2D682C44F8
:10566000638043880B4C24681A19824211D0137945
:105670007BB90A4B1B68834201D1084B1A6003882F
:105680001380044B1B88D31A0488024D2D682C44C8
:10569000638030BDB0000020B4000020B8000020BE
:1056A0002DE9F04705468A460027D5F8048098F88A
:1056B00009900026144804681FE0207C48451AD150
:1056C00034B1206820B1114920680968884212D19C
:1056D000606980B10E4B2A462146D4E905C0E047F7
:1056E00048B10025012736B1E068F060064800683F
:1056F000E060054804602646E4680FB9002CDCD160
:105700003846BDE8F0870000C80000209C0000205B
:10571000980000202DE9F04105460E46904630469F
:10572000FAF78EFD074617B92846BDE8F0812C46EA
:105730000CE020783178884207D13A46314620463D
:10574000FAF7A0FD08B92046EFE7641C207820B1E5
:10575000E01905EB08018842EBD90020E5E70000DD
:105760002DE9FC4704460E4600BF00BF207E0A28F4
:1057700008D121461C4801F051F921460220FFF7CB
:105780004DFB2FE0276DD4F82880D4F88850D4F84A
:10579000109000BF2146154801F040F9012014493E
:1057A000087000BF206F10B1206F02F0BCF8E06EEF
:1057B00010B1E06E02F0B7F84EB1A08B618B231DE3
:1057C0002246CDE900104146384602F061F82146F4
:1057D0000220FFF723FB00BF1DB16FF0090148460F
:1057E000A84700BFBDE8FC87E0000020DC000020E7
:1057F000E800002010B5044601212046FFF7B0FF65
:1058000010BD4161704703466FF00900704700000A
:1058100070B506460220FFF743FB04467CB900F052
:1058200057FD0220FFF73CFB04463CB9304600F030
:1058300025FD0220FFF734FB044600BF00BF002C0B
:105840003AD094212046FAF7D4FC1034667241F223
:10585000D060A4F856000020A4F8580040F6683044
:10586000A083E083002004F8070CFF2004F8060C56
:105870004FF40670E0840620A086002020860620D3
:105880006086C01FA0840120A08700F07DFE054631
:10589000A5642564A563E56408480068606108485C
:1058A000007860740020E0730648E0660648E06710
:1058B000002084F88200103C204670BDD0000020FB
:1058C000EA0000201977000800DD6D0001617047D3
:1058D0002DE9F04705460C4617464FF0040900BF76
:1058E000287E18B16FF00500BDE8F08700BF37B91A
:1058F00000F016FE074617B96FF00100F4E74FF00D
:10590000000819E0164850F82800066810E0708B6F
:10591000B8420CD146B1306830B12CB1206818B112
:1059200030682168884202D16FF00700DCE7F66832
:10593000002EECD108F10108C845E3DB1CB120685A
:1059400008B1206828606F8300BF06480068E860DF
:105950000448056002F0E0F900BF0020C4E7000041
:1059600060530108D400002010B50446207E0128B1
:1059700003D0A07F40F01000A0770121204600F066
:1059800001F810BD7CB504460E46002E5BD0207E8B
:10599000042802D0207E072855D1606F20B9A08D41
:1059A00040F6683188424ED000BF00BFA08B618BAB
:1059B000CDE90010231D2246A16A206D01F068FF89
:1059C000204601F00BF800BF00BF5A480068A04213
:1059D00005D158480068C0685649086018E0554825
:1059E0000068554908600EE053480068C068A0424E
:1059F00004D15149E0680968C86008E04E48006871
:105A0000C0684D4908604C4800680028ECD100BFD0
:105A10000020E06000BF01204849087000BF207EE0
:105A200004280AD10A20207600BF45480068E060BB
:105A30004348046002F070F903E021460220FFF7BA
:105A4000EDF900207CBD207E082868D2DFE800F058
:105A500004343F4F5767675F0025608B30B300BF4A
:105A600038480068A04205D136480068C06835490A
:105A7000086018E0334800682F4908600EE02E489F
:105A80000068C068A04204D12B49E0680968C8607A
:105A900008E029480068C06827490860264800686F
:105AA0000028ECD100BF0020E06000BF21460220AA
:105AB000FFF7B4F9002435E000252146224800F024
:105AC000ADFF21460320FFF7A9F900242AE00025B5
:105AD00000BF2146174800F0A1FF012017490870B8
